{"contracts/AIDecisionRegistry.sol":{"AIDecisionRegistry":{"abi":[{"inputs":[{"internalType":"bytes32","name":"decisionId","type":"bytes32"}],"name":"DecisionAlreadyRegistered","type":"error"},{"anonymous":false,"inputs":[{"indexed":true,"internalType":"bytes32","name":"decisionId","type":"bytes32"},{"indexed":true,"internalType":"bytes32","name":"domainHash","type":"bytes32"},{"indexed":true,"internalType":"bytes32","name":"chosenModelHash","type":"bytes32"},{"indexed":false,"internalType":"bytes32","name":"ipfsCidHash","type":"bytes32"},{"indexed":false,"internalType":"string","name":"subject","type":"string"},{"indexed":false,"internalType":"uint256","name":"timestamp","type":"uint256"}],"name":"DecisionRegistered","type":"event"},{"inputs":[{"internalType":"bytes32","name":"","type":"bytes32"}],"name":"decisions","outputs":[{"internalType":"bytes32","name":"decisionId","type":"bytes32"},{"internalType":"bytes32","name":"ipfsCidHash","type":"bytes32"},{"internalType":"string","name":"ipfsCid","type":"string"},{"internalType":"bytes32","name":"domainHash","type":"bytes32"},{"internalType":"bytes32","name":"chosenModelHash","type":"bytes32"},{"internalType":"string","name":"subject","type":"string"},{"internalType":"uint256","name":"timestamp","type":"uint256"}],"stateMutability":"view","type":"function"},{"inputs":[{"internalType":"bytes32","name":"","type":"bytes32"}],"name":"isRegistered","outputs":[{"internalType":"bool","name":"","type":"bool"}],"stateMutability":"view","type":"function"},{"inputs":[{"internalType":"bytes32","name":"_decisionId","type":"bytes32"},{"internalType":"bytes32","name":"_ipfsCidHash","type":"bytes32"},{"internalType":"string","name":"_ipfsCid","type":"string"},{"internalType":"bytes32","name":"_domainHash","type":"bytes32"},{"internalType":"bytes32","name":"_chosenModelHash","type":"bytes32"},{"internalType":"string","name":"_subject","type":"string"}],"name":"registerDecision","outputs":[],"stateMutability":"nonpayable","type":"function"},{"inputs":[{"internalType":"bytes32","name":"_decisionId","type":"bytes32"},{"internalType":"bytes32","name":"_ipfsCidHash","type":"bytes32"}],"name":"verifyDecision","outputs":[{"internalType":"bool","name":"","type":"bool"}],"stateMutability":"view","type":"function"}],"evm":{"bytecode":{"linkReferences":{},"object":"608060405234801561001057600080fd5b50610bf2806100206000396000f3fe608060405234801561001057600080fd5b506004361061004c5760003560e01c80631afd614a1461005157806327258b22146100875780638f0faa89146100b7578063c68f0c60146100e7575b600080fd5b61006b6004803603810190610066919061050c565b610103565b60405161007e97969594939291906105f1565b60405180910390f35b6100a1600480360381019061009c919061050c565b610255565b6040516100ae9190610689565b60405180910390f35b6100d160048036038101906100cc91906106a4565b610275565b6040516100de9190610689565b60405180910390f35b61010160048036038101906100fc9190610749565b6102c6565b005b600060205280600052604060002060009150905080600001549080600101549080600201805461013290610847565b80601f016020809104026020016040519081016040528092919081815260200182805461015e90610847565b80156101ab5780601f10610180576101008083540402835291602001916101ab565b820191906000526020600020905b81548152906001019060200180831161018e57829003601f168201915b5050505050908060030154908060040154908060050180546101cc90610847565b80601f01602080910402602001604051908101604052809291908181526020018280546101f890610847565b80156102455780601f1061021a57610100808354040283529160200191610245565b820191906000526020600020905b81548152906001019060200180831161022857829003601f168201915b5050505050908060060154905087565b60016020528060005260406000206000915054906101000a900460ff1681565b60006001600084815260200190815260200160002060009054906101000a900460ff166102a557600090506102c0565b81600080858152602001908152602001600020600101541490505b92915050565b6001600089815260200190815260200160002060009054906101000a900460ff161561032957876040517fe4da61ec0000000000000000000000000000000000000000000000000000000081526004016103209190610878565b60405180910390fd5b6040518060e0016040528089815260200188815260200187878080601f016020809104026020016040519081016040528093929190818152602001838380828437600081840152601f19601f82011690508083019250505050505050815260200185815260200184815260200183838080601f016020809104026020016040519081016040528093929190818152602001838380828437600081840152601f19601f820116905080830192505050505050508152602001428152506000808a81526020019081526020016000206000820151816000015560208201518160010155604082015181600201908161041f9190610a6e565b50606082015181600301556080820151816004015560a08201518160050190816104499190610a6e565b5060c0820151816006015590505060018060008a815260200190815260200160002060006101000a81548160ff0219169083151502179055508284897fd42a2f5d347dc826d7469677011e748d6d61e60bbac979f03eee75226bc693fa8a8686426040516104ba9493929190610b7c565b60405180910390a45050505050505050565b600080fd5b600080fd5b6000819050919050565b6104e9816104d6565b81146104f457600080fd5b50565b600081359050610506816104e0565b92915050565b600060208284031215610522576105216104cc565b5b6000610530848285016104f7565b91505092915050565b610542816104d6565b82525050565b600081519050919050565b600082825260208201905092915050565b60005b83811015610582578082015181840152602081019050610567565b60008484015250505050565b6000601f19601f8301169050919050565b60006105aa82610548565b6105b48185610553565b93506105c4818560208601610564565b6105cd8161058e565b840191505092915050565b6000819050919050565b6105eb816105d8565b82525050565b600060e082019050610606600083018a610539565b6106136020830189610539565b8181036040830152610625818861059f565b90506106346060830187610539565b6106416080830186610539565b81810360a0830152610653818561059f565b905061066260c08301846105e2565b98975050505050505050565b60008115159050919050565b6106838161066e565b82525050565b600060208201905061069e600083018461067a565b92915050565b600080604083850312156106bb576106ba6104cc565b5b60006106c9858286016104f7565b92505060206106da858286016104f7565b9150509250929050565b600080fd5b600080fd5b600080fd5b60008083601f840112610709576107086106e4565b5b8235905067ffffffffffffffff811115610726576107256106e9565b5b602083019150836001820283011115610742576107416106ee565b5b9250929050565b60008060008060008060008060c0898b031215610769576107686104cc565b5b60006107778b828c016104f7565b98505060206107888b828c016104f7565b975050604089013567ffffffffffffffff8111156107a9576107a86104d1565b5b6107b58b828c016106f3565b965096505060606107c88b828c016104f7565b94505060806107d98b828c016104f7565b93505060a089013567ffffffffffffffff8111156107fa576107f96104d1565b5b6108068b828c016106f3565b92509250509295985092959890939650565b7f4e487b7100000000000000000000000000000000000000000000000000000000600052602260045260246000fd5b6000600282049050600182168061085f57607f821691505b60208210810361087257610871610818565b5b50919050565b600060208201905061088d6000830184610539565b92915050565b7f4e487b7100000000000000000000000000000000000000000000000000000000600052604160045260246000fd5b60008190508160005260206000209050919050565b60006020601f8301049050919050565b600082821b905092915050565b6000600883026109247fffffffffffffffffffffffffffffffffffffffffffffffffffffffffffffffff826108e7565b61092e86836108e7565b95508019841693508086168417925050509392505050565b6000819050919050565b600061096b610966610961846105d8565b610946565b6105d8565b9050919050565b6000819050919050565b61098583610950565b61099961099182610972565b8484546108f4565b825550505050565b600090565b6109ae6109a1565b6109b981848461097c565b505050565b5b818110156109dd576109d26000826109a6565b6001810190506109bf565b5050565b601f821115610a22576109f3816108c2565b6109fc846108d7565b81016020851015610a0b578190505b610a1f610a17856108d7565b8301826109be565b50505b505050565b600082821c905092915050565b6000610a4560001984600802610a27565b1980831691505092915050565b6000610a5e8383610a34565b9150826002028217905092915050565b610a7782610548565b67ffffffffffffffff811115610a9057610a8f610893565b5b610a9a8254610847565b610aa58282856109e1565b600060209050601f831160018114610ad85760008415610ac6578287015190505b610ad08582610a52565b865550610b38565b601f198416610ae6866108c2565b60005b82811015610b0e57848901518255600182019150602085019450602081019050610ae9565b86831015610b2b5784890151610b27601f891682610a34565b8355505b6001600288020188555050505b505050505050565b82818337600083830152505050565b6000610b5b8385610553565b9350610b68838584610b40565b610b718361058e565b840190509392505050565b6000606082019050610b916000830187610539565b8181036020830152610ba4818587610b4f565b9050610bb360408301846105e2565b9594505050505056fea264697066735822122040e015bc0a8e28a954debf82df57e166905dd52d4fc62937b8ac43abc95058d764736f6c63430008140033","opcodes":"PUSH1 0x80 PUSH1 0x40 MSTORE CALLVALUE DUP1 ISZERO PUSH2 0x10 JUMPI PUSH1 0x0 DUP1 REVERT JUMPDEST POP PUSH2 0xBF2 DUP1 PUSH2 0x20 PUSH1 0x0 CODECOPY PUSH1 0x0 RETURN INVALID PUSH1 0x80 PUSH1 0x40 MSTORE CALLVALUE DUP1 ISZERO PUSH2 0x10 JUMPI PUSH1 0x0 DUP1 REVERT JUMPDEST POP PUSH1 0x4 CALLDATASIZE LT PUSH2 0x4C JUMPI PUSH1 0x0 CALLDATALOAD PUSH1 0xE0 SHR DUP1 PUSH4 0x1AFD614A EQ PUSH2 0x51 JUMPI DUP1 PUSH4 0x27258B22 EQ PUSH2 0x87 JUMPI DUP1 PUSH4 0x8F0FAA89 EQ PUSH2 0xB7 JUMPI DUP1 PUSH4 0xC68F0C60 EQ PUSH2 0xE7 JUMPI JUMPDEST PUSH1 0x0 DUP1 REVERT JUMPDEST PUSH2 0x6B PUSH1 0x4 DUP1 CALLDATASIZE SUB DUP2 ADD SWAP1 PUSH2 0x66 SWAP2 SWAP1 PUSH2 0x50C JUMP JUMPDEST PUSH2 0x103 JUMP JUMPDEST PUSH1 0x40 MLOAD PUSH2 0x7E SWAP8 SWAP7 SWAP6 SWAP5 SWAP4 SWAP3 SWAP2 SWAP1 PUSH2 0x5F1 JUMP JUMPDEST PUSH1 0x40 MLOAD DUP1 SWAP2 SUB SWAP1 RETURN JUMPDEST PUSH2 0xA1 PUSH1 0x4 DUP1 CALLDATASIZE SUB DUP2 ADD SWAP1 PUSH2 0x9C SWAP2 SWAP1 PUSH2 0x50C JUMP JUMPDEST PUSH2 0x255 JUMP JUMPDEST PUSH1 0x40 MLOAD PUSH2 0xAE SWAP2 SWAP1 PUSH2 0x689 JUMP JUMPDEST PUSH1 0x40 MLOAD DUP1 SWAP2 SUB SWAP1 RETURN JUMPDEST PUSH2 0xD1 PUSH1 0x4 DUP1 CALLDATASIZE SUB DUP2 ADD SWAP1 PUSH2 0xCC SWAP2 SWAP1 PUSH2 0x6A4 JUMP JUMPDEST PUSH2 0x275 JUMP JUMPDEST PUSH1 0x40 MLOAD PUSH2 0xDE SWAP2 SWAP1 PUSH2 0x689 JUMP JUMPDEST PUSH1 0x40 MLOAD DUP1 SWAP2 SUB SWAP1 RETURN JUMPDEST PUSH2 0x101 PUSH1 0x4 DUP1 CALLDATASIZE SUB DUP2 ADD SWAP1 PUSH2 0xFC SWAP2 SWAP1 PUSH2 0x749 JUMP JUMPDEST PUSH2 0x2C6 JUMP JUMPDEST STOP JUMPDEST PUSH1 0x0 PUSH1 0x20 MSTORE DUP1 PUSH1 0x0 MSTORE PUSH1 0x40 PUSH1 0x0 KECCAK256 PUSH1 0x0 SWAP2 POP SWAP1 POP DUP1 PUSH1 0x0 ADD SLOAD SWAP1 DUP1 PUSH1 0x1 ADD SLOAD SWAP1 DUP1 PUSH1 0x2 ADD DUP1 SLOAD PUSH2 0x132 SWAP1 PUSH2 0x847 JUMP JUMPDEST DUP1 PUSH1 0x1F ADD PUSH1 0x20 DUP1 SWAP2 DIV MUL PUSH1 0x20 ADD PUSH1 0x40 MLOAD SWAP1 DUP2 ADD PUSH1 0x40 MSTORE DUP1 SWAP3 SWAP2 SWAP1 DUP2 DUP2 MSTORE PUSH1 0x20 ADD DUP3 DUP1 SLOAD PUSH2 0x15E SWAP1 PUSH2 0x847 JUMP JUMPDEST DUP1 ISZERO PUSH2 0x1AB JUMPI DUP1 PUSH1 0x1F LT PUSH2 0x180 JUMPI PUSH2 0x100 DUP1 DUP4 SLOAD DIV MUL DUP4 MSTORE SWAP2 PUSH1 0x20 ADD SWAP2 PUSH2 0x1AB JUMP JUMPDEST DUP3 ADD SWAP2 SWAP1 PUSH1 0x0 MSTORE PUSH1 0x20 PUSH1 0x0 KECCAK256 SWAP1 JUMPDEST DUP2 SLOAD DUP2 MSTORE SWAP1 PUSH1 0x1 ADD SWAP1 PUSH1 0x20 ADD DUP1 DUP4 GT PUSH2 0x18E JUMPI DUP3 SWAP1 SUB PUSH1 0x1F AND DUP3 ADD SWAP2 JUMPDEST POP POP POP POP POP SWAP1 DUP1 PUSH1 0x3 ADD SLOAD SWAP1 DUP1 PUSH1 0x4 ADD SLOAD SWAP1 DUP1 PUSH1 0x5 ADD DUP1 SLOAD PUSH2 0x1CC SWAP1 PUSH2 0x847 JUMP JUMPDEST DUP1 PUSH1 0x1F ADD PUSH1 0x20 DUP1 SWAP2 DIV MUL PUSH1 0x20 ADD PUSH1 0x40 MLOAD SWAP1 DUP2 ADD PUSH1 0x40 MSTORE DUP1 SWAP3 SWAP2 SWAP1 DUP2 DUP2 MSTORE PUSH1 0x20 ADD DUP3 DUP1 SLOAD PUSH2 0x1F8 SWAP1 PUSH2 0x847 JUMP JUMPDEST DUP1 ISZERO PUSH2 0x245 JUMPI DUP1 PUSH1 0x1F LT PUSH2 0x21A JUMPI PUSH2 0x100 DUP1 DUP4 SLOAD DIV MUL DUP4 MSTORE SWAP2 PUSH1 0x20 ADD SWAP2 PUSH2 0x245 JUMP JUMPDEST DUP3 ADD SWAP2 SWAP1 PUSH1 0x0 MSTORE PUSH1 0x20 PUSH1 0x0 KECCAK256 SWAP1 JUMPDEST DUP2 SLOAD DUP2 MSTORE SWAP1 PUSH1 0x1 ADD SWAP1 PUSH1 0x20 ADD DUP1 DUP4 GT PUSH2 0x228 JUMPI DUP3 SWAP1 SUB PUSH1 0x1F AND DUP3 ADD SWAP2 JUMPDEST POP POP POP POP POP SWAP1 DUP1 PUSH1 0x6 ADD SLOAD SWAP1 POP DUP8 JUMP JUMPDEST PUSH1 0x1 PUSH1 0x20 MSTORE DUP1 PUSH1 0x0 MSTORE PUSH1 0x40 PUSH1 0x0 KECCAK256 PUSH1 0x0 SWAP2 POP SLOAD SWAP1 PUSH2 0x100 EXP SWAP1 DIV PUSH1 0xFF AND DUP2 JUMP JUMPDEST PUSH1 0x0 PUSH1 0x1 PUSH1 0x0 DUP5 DUP2 MSTORE PUSH1 0x20 ADD SWAP1 DUP2 MSTORE PUSH1 0x20 ADD PUSH1 0x0 KECCAK256 PUSH1 0x0 SWAP1 SLOAD SWAP1 PUSH2 0x100 EXP SWAP1 DIV PUSH1 0xFF AND PUSH2 0x2A5 JUMPI PUSH1 0x0 SWAP1 POP PUSH2 0x2C0 JUMP JUMPDEST DUP2 PUSH1 0x0 DUP1 DUP6 DUP2 MSTORE PUSH1 0x20 ADD SWAP1 DUP2 MSTORE PUSH1 0x20 ADD PUSH1 0x0 KECCAK256 PUSH1 0x1 ADD SLOAD EQ SWAP1 POP JUMPDEST SWAP3 SWAP2 POP POP JUMP JUMPDEST PUSH1 0x1 PUSH1 0x0 DUP10 DUP2 MSTORE PUSH1 0x20 ADD SWAP1 DUP2 MSTORE PUSH1 0x20 ADD PUSH1 0x0 KECCAK256 PUSH1 0x0 SWAP1 SLOAD SWAP1 PUSH2 0x100 EXP SWAP1 DIV PUSH1 0xFF AND ISZERO PUSH2 0x329 JUMPI DUP8 PUSH1 0x40 MLOAD PUSH32 0xE4DA61EC00000000000000000000000000000000000000000000000000000000 DUP2 MSTORE PUSH1 0x4 ADD PUSH2 0x320 SWAP2 SWAP1 PUSH2 0x878 JUMP JUMPDEST PUSH1 0x40 MLOAD DUP1 SWAP2 SUB SWAP1 REVERT JUMPDEST PUSH1 0x40 MLOAD DUP1 PUSH1 0xE0 ADD PUSH1 0x40 MSTORE DUP1 DUP10 DUP2 MSTORE PUSH1 0x20 ADD DUP9 DUP2 MSTORE PUSH1 0x20 ADD DUP8 DUP8 DUP1 DUP1 PUSH1 0x1F ADD PUSH1 0x20 DUP1 SWAP2 DIV MUL PUSH1 0x20 ADD PUSH1 0x40 MLOAD SWAP1 DUP2 ADD PUSH1 0x40 MSTORE DUP1 SWAP4 SWAP3 SWAP2 SWAP1 DUP2 DUP2 MSTORE PUSH1 0x20 ADD DUP4 DUP4 DUP1 DUP3 DUP5 CALLDATACOPY PUSH1 0x0 DUP2 DUP5 ADD MSTORE PUSH1 0x1F NOT PUSH1 0x1F DUP3 ADD AND SWAP1 POP DUP1 DUP4 ADD SWAP3 POP POP POP POP POP POP POP DUP2 MSTORE PUSH1 0x20 ADD DUP6 DUP2 MSTORE PUSH1 0x20 ADD DUP5 DUP2 MSTORE PUSH1 0x20 ADD DUP4 DUP4 DUP1 DUP1 PUSH1 0x1F ADD PUSH1 0x20 DUP1 SWAP2 DIV MUL PUSH1 0x20 ADD PUSH1 0x40 MLOAD SWAP1 DUP2 ADD PUSH1 0x40 MSTORE DUP1 SWAP4 SWAP3 SWAP2 SWAP1 DUP2 DUP2 MSTORE PUSH1 0x20 ADD DUP4 DUP4 DUP1 DUP3 DUP5 CALLDATACOPY PUSH1 0x0 DUP2 DUP5 ADD MSTORE PUSH1 0x1F NOT PUSH1 0x1F DUP3 ADD AND SWAP1 POP DUP1 DUP4 ADD SWAP3 POP POP POP POP POP POP POP DUP2 MSTORE PUSH1 0x20 ADD TIMESTAMP DUP2 MSTORE POP PUSH1 0x0 DUP1 DUP11 DUP2 MSTORE PUSH1 0x20 ADD SWAP1 DUP2 MSTORE PUSH1 0x20 ADD PUSH1 0x0 KECCAK256 PUSH1 0x0 DUP3 ADD MLOAD DUP2 PUSH1 0x0 ADD SSTORE PUSH1 0x20 DUP3 ADD MLOAD DUP2 PUSH1 0x1 ADD SSTORE PUSH1 0x40 DUP3 ADD MLOAD DUP2 PUSH1 0x2 ADD SWAP1 DUP2 PUSH2 0x41F SWAP2 SWAP1 PUSH2 0xA6E JUMP JUMPDEST POP PUSH1 0x60 DUP3 ADD MLOAD DUP2 PUSH1 0x3 ADD SSTORE PUSH1 0x80 DUP3 ADD MLOAD DUP2 PUSH1 0x4 ADD SSTORE PUSH1 0xA0 DUP3 ADD MLOAD DUP2 PUSH1 0x5 ADD SWAP1 DUP2 PUSH2 0x449 SWAP2 SWAP1 PUSH2 0xA6E JUMP JUMPDEST POP PUSH1 0xC0 DUP3 ADD MLOAD DUP2 PUSH1 0x6 ADD SSTORE SWAP1 POP POP PUSH1 0x1 DUP1 PUSH1 0x0 DUP11 DUP2 MSTORE PUSH1 0x20 ADD SWAP1 DUP2 MSTORE PUSH1 0x20 ADD PUSH1 0x0 KECCAK256 PUSH1 0x0 PUSH2 0x100 EXP DUP2 SLOAD DUP2 PUSH1 0xFF MUL NOT AND SWAP1 DUP4 ISZERO ISZERO MUL OR SWAP1 SSTORE POP DUP3 DUP5 DUP10 PUSH32 0xD42A2F5D347DC826D7469677011E748D6D61E60BBAC979F03EEE75226BC693FA DUP11 DUP7 DUP7 TIMESTAMP PUSH1 0x40 MLOAD PUSH2 0x4BA SWAP5 SWAP4 SWAP3 SWAP2 SWAP1 PUSH2 0xB7C JUMP JUMPDEST PUSH1 0x40 MLOAD DUP1 SWAP2 SUB SWAP1 LOG4 POP POP POP POP POP POP POP POP JUMP JUMPDEST PUSH1 0x0 DUP1 REVERT JUMPDEST PUSH1 0x0 DUP1 REVERT JUMPDEST PUSH1 0x0 DUP2 SWAP1 POP SWAP2 SWAP1 POP JUMP JUMPDEST PUSH2 0x4E9 DUP2 PUSH2 0x4D6 JUMP JUMPDEST DUP2 EQ PUSH2 0x4F4 JUMPI PUSH1 0x0 DUP1 REVERT JUMPDEST POP JUMP JUMPDEST PUSH1 0x0 DUP2 CALLDATALOAD SWAP1 POP PUSH2 0x506 DUP2 PUSH2 0x4E0 JUMP JUMPDEST SWAP3 SWAP2 POP POP JUMP JUMPDEST PUSH1 0x0 PUSH1 0x20 DUP3 DUP5 SUB SLT ISZERO PUSH2 0x522 JUMPI PUSH2 0x521 PUSH2 0x4CC JUMP JUMPDEST JUMPDEST PUSH1 0x0 PUSH2 0x530 DUP5 DUP3 DUP6 ADD PUSH2 0x4F7 JUMP JUMPDEST SWAP2 POP POP SWAP3 SWAP2 POP POP JUMP JUMPDEST PUSH2 0x542 DUP2 PUSH2 0x4D6 JUMP JUMPDEST DUP3 MSTORE POP POP JUMP JUMPDEST PUSH1 0x0 DUP2 MLOAD SWAP1 POP SWAP2 SWAP1 POP JUMP JUMPDEST PUSH1 0x0 DUP3 DUP3 MSTORE PUSH1 0x20 DUP3 ADD SWAP1 POP SWAP3 SWAP2 POP POP JUMP JUMPDEST PUSH1 0x0 JUMPDEST DUP4 DUP2 LT ISZERO PUSH2 0x582 JUMPI DUP1 DUP3 ADD MLOAD DUP2 DUP5 ADD MSTORE PUSH1 0x20 DUP2 ADD SWAP1 POP PUSH2 0x567 JUMP JUMPDEST PUSH1 0x0 DUP5 DUP5 ADD MSTORE POP POP POP POP JUMP JUMPDEST PUSH1 0x0 PUSH1 0x1F NOT PUSH1 0x1F DUP4 ADD AND SWAP1 POP SWAP2 SWAP1 POP JUMP JUMPDEST PUSH1 0x0 PUSH2 0x5AA DUP3 PUSH2 0x548 JUMP JUMPDEST PUSH2 0x5B4 DUP2 DUP6 PUSH2 0x553 JUMP JUMPDEST SWAP4 POP PUSH2 0x5C4 DUP2 DUP6 PUSH1 0x20 DUP7 ADD PUSH2 0x564 JUMP JUMPDEST PUSH2 0x5CD DUP2 PUSH2 0x58E JUMP JUMPDEST DUP5 ADD SWAP2 POP POP SWAP3 SWAP2 POP POP JUMP JUMPDEST PUSH1 0x0 DUP2 SWAP1 POP SWAP2 SWAP1 POP JUMP JUMPDEST PUSH2 0x5EB DUP2 PUSH2 0x5D8 JUMP JUMPDEST DUP3 MSTORE POP POP JUMP JUMPDEST PUSH1 0x0 PUSH1 0xE0 DUP3 ADD SWAP1 POP PUSH2 0x606 PUSH1 0x0 DUP4 ADD DUP11 PUSH2 0x539 JUMP JUMPDEST PUSH2 0x613 PUSH1 0x20 DUP4 ADD DUP10 PUSH2 0x539 JUMP JUMPDEST DUP2 DUP2 SUB PUSH1 0x40 DUP4 ADD MSTORE PUSH2 0x625 DUP2 DUP9 PUSH2 0x59F JUMP JUMPDEST SWAP1 POP PUSH2 0x634 PUSH1 0x60 DUP4 ADD DUP8 PUSH2 0x539 JUMP JUMPDEST PUSH2 0x641 PUSH1 0x80 DUP4 ADD DUP7 PUSH2 0x539 JUMP JUMPDEST DUP2 DUP2 SUB PUSH1 0xA0 DUP4 ADD MSTORE PUSH2 0x653 DUP2 DUP6 PUSH2 0x59F JUMP JUMPDEST SWAP1 POP PUSH2 0x662 PUSH1 0xC0 DUP4 ADD DUP5 PUSH2 0x5E2 JUMP JUMPDEST SWAP9 SWAP8 POP POP POP POP POP POP POP POP JUMP JUMPDEST PUSH1 0x0 DUP2 ISZERO ISZERO SWAP1 POP SWAP2 SWAP1 POP JUMP JUMPDEST PUSH2 0x683 DUP2 PUSH2 0x66E JUMP JUMPDEST DUP3 MSTORE POP POP JUMP JUMPDEST PUSH1 0x0 PUSH1 0x20 DUP3 ADD SWAP1 POP PUSH2 0x69E PUSH1 0x0 DUP4 ADD DUP5 PUSH2 0x67A JUMP JUMPDEST SWAP3 SWAP2 POP POP JUMP JUMPDEST PUSH1 0x0 DUP1 PUSH1 0x40 DUP4 DUP6 SUB SLT ISZERO PUSH2 0x6BB JUMPI PUSH2 0x6BA PUSH2 0x4CC JUMP JUMPDEST JUMPDEST PUSH1 0x0 PUSH2 0x6C9 DUP6 DUP3 DUP7 ADD PUSH2 0x4F7 JUMP JUMPDEST SWAP3 POP POP PUSH1 0x20 PUSH2 0x6DA DUP6 DUP3 DUP7 ADD PUSH2 0x4F7 JUMP JUMPDEST SWAP2 POP POP SWAP3 POP SWAP3 SWAP1 POP JUMP JUMPDEST PUSH1 0x0 DUP1 REVERT JUMPDEST PUSH1 0x0 DUP1 REVERT JUMPDEST PUSH1 0x0 DUP1 REVERT JUMPDEST PUSH1 0x0 DUP1 DUP4 PUSH1 0x1F DUP5 ADD SLT PUSH2 0x709 JUMPI PUSH2 0x708 PUSH2 0x6E4 JUMP JUMPDEST JUMPDEST DUP3 CALLDATALOAD SWAP1 POP PUSH8 0xFFFFFFFFFFFFFFFF DUP2 GT ISZERO PUSH2 0x726 JUMPI PUSH2 0x725 PUSH2 0x6E9 JUMP JUMPDEST JUMPDEST PUSH1 0x20 DUP4 ADD SWAP2 POP DUP4 PUSH1 0x1 DUP3 MUL DUP4 ADD GT ISZERO PUSH2 0x742 JUMPI PUSH2 0x741 PUSH2 0x6EE JUMP JUMPDEST JUMPDEST SWAP3 POP SWAP3 SWAP1 POP JUMP JUMPDEST PUSH1 0x0 DUP1 PUSH1 0x0 DUP1 PUSH1 0x0 DUP1 PUSH1 0x0 DUP1 PUSH1 0xC0 DUP10 DUP12 SUB SLT ISZERO PUSH2 0x769 JUMPI PUSH2 0x768 PUSH2 0x4CC JUMP JUMPDEST JUMPDEST PUSH1 0x0 PUSH2 0x777 DUP12 DUP3 DUP13 ADD PUSH2 0x4F7 JUMP JUMPDEST SWAP9 POP POP PUSH1 0x20 PUSH2 0x788 DUP12 DUP3 DUP13 ADD PUSH2 0x4F7 JUMP JUMPDEST SWAP8 POP POP PUSH1 0x40 DUP10 ADD CALLDATALOAD PUSH8 0xFFFFFFFFFFFFFFFF DUP2 GT ISZERO PUSH2 0x7A9 JUMPI PUSH2 0x7A8 PUSH2 0x4D1 JUMP JUMPDEST JUMPDEST PUSH2 0x7B5 DUP12 DUP3 DUP13 ADD PUSH2 0x6F3 JUMP JUMPDEST SWAP7 POP SWAP7 POP POP PUSH1 0x60 PUSH2 0x7C8 DUP12 DUP3 DUP13 ADD PUSH2 0x4F7 JUMP JUMPDEST SWAP5 POP POP PUSH1 0x80 PUSH2 0x7D9 DUP12 DUP3 DUP13 ADD PUSH2 0x4F7 JUMP JUMPDEST SWAP4 POP POP PUSH1 0xA0 DUP10 ADD CALLDATALOAD PUSH8 0xFFFFFFFFFFFFFFFF DUP2 GT ISZERO PUSH2 0x7FA JUMPI PUSH2 0x7F9 PUSH2 0x4D1 JUMP JUMPDEST JUMPDEST PUSH2 0x806 DUP12 DUP3 DUP13 ADD PUSH2 0x6F3 JUMP JUMPDEST SWAP3 POP SWAP3 POP POP SWAP3 SWAP6 SWAP9 POP SWAP3 SWAP6 SWAP9 SWAP1 SWAP4 SWAP7 POP JUMP JUMPDEST PUSH32 0x4E487B7100000000000000000000000000000000000000000000000000000000 PUSH1 0x0 MSTORE PUSH1 0x22 PUSH1 0x4 MSTORE PUSH1 0x24 PUSH1 0x0 REVERT JUMPDEST PUSH1 0x0 PUSH1 0x2 DUP3 DIV SWAP1 POP PUSH1 0x1 DUP3 AND DUP1 PUSH2 0x85F JUMPI PUSH1 0x7F DUP3 AND SWAP2 POP JUMPDEST PUSH1 0x20 DUP3 LT DUP2 SUB PUSH2 0x872 JUMPI PUSH2 0x871 PUSH2 0x818 JUMP JUMPDEST JUMPDEST POP SWAP2 SWAP1 POP JUMP JUMPDEST PUSH1 0x0 PUSH1 0x20 DUP3 ADD SWAP1 POP PUSH2 0x88D PUSH1 0x0 DUP4 ADD DUP5 PUSH2 0x539 JUMP JUMPDEST SWAP3 SWAP2 POP POP JUMP JUMPDEST PUSH32 0x4E487B7100000000000000000000000000000000000000000000000000000000 PUSH1 0x0 MSTORE PUSH1 0x41 PUSH1 0x4 MSTORE PUSH1 0x24 PUSH1 0x0 REVERT JUMPDEST PUSH1 0x0 DUP2 SWAP1 POP DUP2 PUSH1 0x0 MSTORE PUSH1 0x20 PUSH1 0x0 KECCAK256 SWAP1 POP SWAP2 SWAP1 POP JUMP JUMPDEST PUSH1 0x0 PUSH1 0x20 PUSH1 0x1F DUP4 ADD DIV SWAP1 POP SWAP2 SWAP1 POP JUMP JUMPDEST PUSH1 0x0 DUP3 DUP3 SHL SWAP1 POP SWAP3 SWAP2 POP POP JUMP JUMPDEST PUSH1 0x0 PUSH1 0x8 DUP4 MUL PUSH2 0x924 PUSH32 0xFFFFFFFFFFFFFFFFFFFFFFFFFFFFFFFFFFFFFFFFFFFFFFFFFFFFFFFFFFFFFFFF DUP3 PUSH2 0x8E7 JUMP JUMPDEST PUSH2 0x92E DUP7 DUP4 PUSH2 0x8E7 JUMP JUMPDEST SWAP6 POP DUP1 NOT DUP5 AND SWAP4 POP DUP1 DUP7 AND DUP5 OR SWAP3 POP POP POP SWAP4 SWAP3 POP POP POP JUMP JUMPDEST PUSH1 0x0 DUP2 SWAP1 POP SWAP2 SWAP1 POP JUMP JUMPDEST PUSH1 0x0 PUSH2 0x96B PUSH2 0x966 PUSH2 0x961 DUP5 PUSH2 0x5D8 JUMP JUMPDEST PUSH2 0x946 JUMP JUMPDEST PUSH2 0x5D8 JUMP JUMPDEST SWAP1 POP SWAP2 SWAP1 POP JUMP JUMPDEST PUSH1 0x0 DUP2 SWAP1 POP SWAP2 SWAP1 POP JUMP JUMPDEST PUSH2 0x985 DUP4 PUSH2 0x950 JUMP JUMPDEST PUSH2 0x999 PUSH2 0x991 DUP3 PUSH2 0x972 JUMP JUMPDEST DUP5 DUP5 SLOAD PUSH2 0x8F4 JUMP JUMPDEST DUP3 SSTORE POP POP POP POP JUMP JUMPDEST PUSH1 0x0 SWAP1 JUMP JUMPDEST PUSH2 0x9AE PUSH2 0x9A1 JUMP JUMPDEST PUSH2 0x9B9 DUP2 DUP5 DUP5 PUSH2 0x97C JUMP JUMPDEST POP POP POP JUMP JUMPDEST JUMPDEST DUP2 DUP2 LT ISZERO PUSH2 0x9DD JUMPI PUSH2 0x9D2 PUSH1 0x0 DUP3 PUSH2 0x9A6 JUMP JUMPDEST PUSH1 0x1 DUP2 ADD SWAP1 POP PUSH2 0x9BF JUMP JUMPDEST POP POP JUMP JUMPDEST PUSH1 0x1F DUP3 GT ISZERO PUSH2 0xA22 JUMPI PUSH2 0x9F3 DUP2 PUSH2 0x8C2 JUMP JUMPDEST PUSH2 0x9FC DUP5 PUSH2 0x8D7 JUMP JUMPDEST DUP2 ADD PUSH1 0x20 DUP6 LT ISZERO PUSH2 0xA0B JUMPI DUP2 SWAP1 POP JUMPDEST PUSH2 0xA1F PUSH2 0xA17 DUP6 PUSH2 0x8D7 JUMP JUMPDEST DUP4 ADD DUP3 PUSH2 0x9BE JUMP JUMPDEST POP POP JUMPDEST POP POP POP JUMP JUMPDEST PUSH1 0x0 DUP3 DUP3 SHR SWAP1 POP SWAP3 SWAP2 POP POP JUMP JUMPDEST PUSH1 0x0 PUSH2 0xA45 PUSH1 0x0 NOT DUP5 PUSH1 0x8 MUL PUSH2 0xA27 JUMP JUMPDEST NOT DUP1 DUP4 AND SWAP2 POP POP SWAP3 SWAP2 POP POP JUMP JUMPDEST PUSH1 0x0 PUSH2 0xA5E DUP4 DUP4 PUSH2 0xA34 JUMP JUMPDEST SWAP2 POP DUP3 PUSH1 0x2 MUL DUP3 OR SWAP1 POP SWAP3 SWAP2 POP POP JUMP JUMPDEST PUSH2 0xA77 DUP3 PUSH2 0x548 JUMP JUMPDEST PUSH8 0xFFFFFFFFFFFFFFFF DUP2 GT ISZERO PUSH2 0xA90 JUMPI PUSH2 0xA8F PUSH2 0x893 JUMP JUMPDEST JUMPDEST PUSH2 0xA9A DUP3 SLOAD PUSH2 0x847 JUMP JUMPDEST PUSH2 0xAA5 DUP3 DUP3 DUP6 PUSH2 0x9E1 JUMP JUMPDEST PUSH1 0x0 PUSH1 0x20 SWAP1 POP PUSH1 0x1F DUP4 GT PUSH1 0x1 DUP2 EQ PUSH2 0xAD8 JUMPI PUSH1 0x0 DUP5 ISZERO PUSH2 0xAC6 JUMPI DUP3 DUP8 ADD MLOAD SWAP1 POP JUMPDEST PUSH2 0xAD0 DUP6 DUP3 PUSH2 0xA52 JUMP JUMPDEST DUP7 SSTORE POP PUSH2 0xB38 JUMP JUMPDEST PUSH1 0x1F NOT DUP5 AND PUSH2 0xAE6 DUP7 PUSH2 0x8C2 JUMP JUMPDEST PUSH1 0x0 JUMPDEST DUP3 DUP2 LT ISZERO PUSH2 0xB0E JUMPI DUP5 DUP10 ADD MLOAD DUP3 SSTORE PUSH1 0x1 DUP3 ADD SWAP2 POP PUSH1 0x20 DUP6 ADD SWAP5 POP PUSH1 0x20 DUP2 ADD SWAP1 POP PUSH2 0xAE9 JUMP JUMPDEST DUP7 DUP4 LT ISZERO PUSH2 0xB2B JUMPI DUP5 DUP10 ADD MLOAD PUSH2 0xB27 PUSH1 0x1F DUP10 AND DUP3 PUSH2 0xA34 JUMP JUMPDEST DUP4 SSTORE POP JUMPDEST PUSH1 0x1 PUSH1 0x2 DUP9 MUL ADD DUP9 SSTORE POP POP POP JUMPDEST POP POP POP POP POP POP JUMP JUMPDEST DUP3 DUP2 DUP4 CALLDATACOPY PUSH1 0x0 DUP4 DUP4 ADD MSTORE POP POP POP JUMP JUMPDEST PUSH1 0x0 PUSH2 0xB5B DUP4 DUP6 PUSH2 0x553 JUMP JUMPDEST SWAP4 POP PUSH2 0xB68 DUP4 DUP6 DUP5 PUSH2 0xB40 JUMP JUMPDEST PUSH2 0xB71 DUP4 PUSH2 0x58E JUMP JUMPDEST DUP5 ADD SWAP1 POP SWAP4 SWAP3 POP POP POP JUMP JUMPDEST PUSH1 0x0 PUSH1 0x60 DUP3 ADD SWAP1 POP PUSH2 0xB91 PUSH1 0x0 DUP4 ADD DUP8 PUSH2 0x539 JUMP JUMPDEST DUP2 DUP2 SUB PUSH1 0x20 DUP4 ADD MSTORE PUSH2 0xBA4 DUP2 DUP6 DUP8 PUSH2 0xB4F JUMP JUMPDEST SWAP1 POP PUSH2 0xBB3 PUSH1 0x40 DUP4 ADD DUP5 PUSH2 0x5E2 JUMP JUMPDEST SWAP6 SWAP5 POP POP POP POP POP JUMP INVALID LOG2 PUSH5 0x6970667358 0x22 SLT KECCAK256 BLOCKHASH 0xE0 ISZERO 0xBC EXP DUP15 0x28 0xA9 SLOAD 0xDE 0xBF DUP3 0xDF JUMPI 0xE1 PUSH7 0x905DD52D4FC629 CALLDATACOPY 0xB8 0xAC NUMBER 0xAB 0xC9 POP PC 0xD7 PUSH5 0x736F6C6343 STOP ADDMOD EQ STOP CALLER "},"methodIdentifiers":{"decisions(bytes32)":"1afd614a","isRegistered(bytes32)":"27258b22","registerDecision(bytes32,bytes32,string,bytes32,bytes32,string)":"c68f0c60","verifyDecision(bytes32,bytes32)":"8f0faa89"}}}}}