{"contracts/DecisionLogger.sol":{"DecisionLogger":{"abi":[{"inputs":[{"internalType":"bytes32","name":"decisionId","type":"bytes32"}],"name":"DecisionAlreadyLogged","type":"error"},{"inputs":[{"internalType":"address","name":"signer","type":"address"}],"name":"InvalidSigner","type":"error"},{"anonymous":false,"inputs":[{"indexed":true,"internalType":"bytes32","name":"decisionId","type":"bytes32"},{"indexed":true,"internalType":"bytes32","name":"decisionHash","type":"bytes32"},{"indexed":true,"internalType":"address","name":"backendSigner","type":"address"},{"indexed":false,"internalType":"uint256","name":"timestamp","type":"uint256"},{"indexed":false,"internalType":"uint256","name":"ftsoRoundId","type":"uint256"},{"indexed":false,"internalType":"bytes32","name":"fdcProofHash","type":"bytes32"}],"name":"DecisionLogged","type":"event"},{"inputs":[{"internalType":"bytes32","name":"","type":"bytes32"}],"name":"decisions","outputs":[{"internalType":"bytes32","name":"decisionId","type":"bytes32"},{"internalType":"bytes32","name":"decisionHash","type":"bytes32"},{"internalType":"bytes32","name":"modelHash","type":"bytes32"},{"internalType":"uint256","name":"ftsoRoundId","type":"uint256"},{"internalType":"bytes32","name":"fdcProofHash","type":"bytes32"},{"internalType":"uint256","name":"timestamp","type":"uint256"},{"internalType":"address","name":"backendSigner","type":"address"}],"stateMutability":"view","type":"function"},{"inputs":[{"internalType":"bytes32","name":"_decisionId","type":"bytes32"}],"name":"getDecision","outputs":[{"components":[{"internalType":"bytes32","name":"decisionId","type":"bytes32"},{"internalType":"bytes32","name":"decisionHash","type":"bytes32"},{"internalType":"bytes32","name":"modelHash","type":"bytes32"},{"internalType":"uint256","name":"ftsoRoundId","type":"uint256"},{"internalType":"bytes32","name":"fdcProofHash","type":"bytes32"},{"internalType":"uint256","name":"timestamp","type":"uint256"},{"internalType":"address","name":"backendSigner","type":"address"}],"internalType":"struct DecisionLogger.Decision","name":"","type":"tuple"}],"stateMutability":"view","type":"function"},{"inputs":[{"internalType":"bytes32","name":"","type":"bytes32"}],"name":"isDecisionLogged","outputs":[{"internalType":"bool","name":"","type":"bool"}],"stateMutability":"view","type":"function"},{"inputs":[{"internalType":"bytes32","name":"_decisionId","type":"bytes32"},{"internalType":"bytes32","name":"_decisionHash","type":"bytes32"},{"internalType":"bytes32","name":"_modelHash","type":"bytes32"},{"internalType":"uint256","name":"_ftsoRoundId","type":"uint256"},{"internalType":"bytes32","name":"_fdcProofHash","type":"bytes32"},{"internalType":"uint256","name":"_timestamp","type":"uint256"},{"internalType":"address","name":"_backendSigner","type":"address"}],"name":"logDecision","outputs":[],"stateMutability":"nonpayable","type":"function"}],"evm":{"bytecode":{"linkReferences":{},"object":"608060405234801561001057600080fd5b506108cf806100206000396000f3fe608060405234801561001057600080fd5b506004361061004c5760003560e01c80631afd614a1461005157806328c07e0b146100875780634a82eb43146100b7578063d8c57892146100d3575b600080fd5b61006b60048036038101906100669190610521565b610103565b60405161007e97969594939291906105b7565b60405180910390f35b6100a1600480360381019061009c9190610521565b610165565b6040516100ae9190610641565b60405180910390f35b6100d160048036038101906100cc91906106b4565b610185565b005b6100ed60048036038101906100e89190610521565b6103c8565b6040516100fa9190610811565b60405180910390f35b60016020528060005260406000206000915090508060000154908060010154908060020154908060030154908060040154908060050154908060060160009054906101000a900473ffffffffffffffffffffffffffffffffffffffff16905087565b60006020528060005260406000206000915054906101000a900460ff1681565b60008088815260200190815260200160002060009054906101000a900460ff16156101e757866040517f3e4db87f0000000000000000000000000000000000000000000000000000000081526004016101de919061082c565b60405180910390fd5b600073ffffffffffffffffffffffffffffffffffffffff168173ffffffffffffffffffffffffffffffffffffffff160361025857806040517fbf18af4300000000000000000000000000000000000000000000000000000000815260040161024f9190610847565b60405180910390fd5b60006040518060e001604052808981526020018881526020018781526020018681526020018581526020018481526020018373ffffffffffffffffffffffffffffffffffffffff16815250905080600160008a8152602001908152602001600020600082015181600001556020820151816001015560408201518160020155606082015181600301556080820151816004015560a0820151816005015560c08201518160060160006101000a81548173ffffffffffffffffffffffffffffffffffffffff021916908373ffffffffffffffffffffffffffffffffffffffff16021790555090505060016000808a815260200190815260200160002060006101000a81548160ff0219169083151502179055508173ffffffffffffffffffffffffffffffffffffffff1687897fe5917ce79a46a10f291e65ab5297d5a623f8e826e2605e18152d6841498736a68689896040516103b693929190610862565b60405180910390a45050505050505050565b6103d0610487565b600160008381526020019081526020016000206040518060e00160405290816000820154815260200160018201548152602001600282015481526020016003820154815260200160048201548152602001600582015481526020016006820160009054906101000a900473ffffffffffffffffffffffffffffffffffffffff1673ffffffffffffffffffffffffffffffffffffffff1673ffffffffffffffffffffffffffffffffffffffff16815250509050919050565b6040518060e00160405280600080191681526020016000801916815260200160008019168152602001600081526020016000801916815260200160008152602001600073ffffffffffffffffffffffffffffffffffffffff1681525090565b600080fd5b6000819050919050565b6104fe816104eb565b811461050957600080fd5b50565b60008135905061051b816104f5565b92915050565b600060208284031215610537576105366104e6565b5b60006105458482850161050c565b91505092915050565b610557816104eb565b82525050565b6000819050919050565b6105708161055d565b82525050565b600073ffffffffffffffffffffffffffffffffffffffff82169050919050565b60006105a182610576565b9050919050565b6105b181610596565b82525050565b600060e0820190506105cc600083018a61054e565b6105d9602083018961054e565b6105e6604083018861054e565b6105f36060830187610567565b610600608083018661054e565b61060d60a0830185610567565b61061a60c08301846105a8565b98975050505050505050565b60008115159050919050565b61063b81610626565b82525050565b60006020820190506106566000830184610632565b92915050565b6106658161055d565b811461067057600080fd5b50565b6000813590506106828161065c565b92915050565b61069181610596565b811461069c57600080fd5b50565b6000813590506106ae81610688565b92915050565b600080600080600080600060e0888a0312156106d3576106d26104e6565b5b60006106e18a828b0161050c565b97505060206106f28a828b0161050c565b96505060406107038a828b0161050c565b95505060606107148a828b01610673565b94505060806107258a828b0161050c565b93505060a06107368a828b01610673565b92505060c06107478a828b0161069f565b91505092959891949750929550565b61075f816104eb565b82525050565b61076e8161055d565b82525050565b61077d81610596565b82525050565b60e0820160008201516107996000850182610756565b5060208201516107ac6020850182610756565b5060408201516107bf6040850182610756565b5060608201516107d26060850182610765565b5060808201516107e56080850182610756565b5060a08201516107f860a0850182610765565b5060c082015161080b60c0850182610774565b50505050565b600060e0820190506108266000830184610783565b92915050565b6000602082019050610841600083018461054e565b92915050565b600060208201905061085c60008301846105a8565b92915050565b60006060820190506108776000830186610567565b6108846020830185610567565b610891604083018461054e565b94935050505056fea264697066735822122024a8418acaa5cf9d41bc09861c23d0068b0c85f39d5c8255efce5fb24be1352b64736f6c63430008140033","opcodes":"PUSH1 0x80 PUSH1 0x40 MSTORE CALLVALUE DUP1 ISZERO PUSH2 0x10 JUMPI PUSH1 0x0 DUP1 REVERT JUMPDEST POP PUSH2 0x8CF DUP1 PUSH2 0x20 PUSH1 0x0 CODECOPY PUSH1 0x0 RETURN INVALID PUSH1 0x80 PUSH1 0x40 MSTORE CALLVALUE DUP1 ISZERO PUSH2 0x10 JUMPI PUSH1 0x0 DUP1 REVERT JUMPDEST POP PUSH1 0x4 CALLDATASIZE LT PUSH2 0x4C JUMPI PUSH1 0x0 CALLDATALOAD PUSH1 0xE0 SHR DUP1 PUSH4 0x1AFD614A EQ PUSH2 0x51 JUMPI DUP1 PUSH4 0x28C07E0B EQ PUSH2 0x87 JUMPI DUP1 PUSH4 0x4A82EB43 EQ PUSH2 0xB7 JUMPI DUP1 PUSH4 0xD8C57892 EQ PUSH2 0xD3 JUMPI JUMPDEST PUSH1 0x0 DUP1 REVERT JUMPDEST PUSH2 0x6B PUSH1 0x4 DUP1 CALLDATASIZE SUB DUP2 ADD SWAP1 PUSH2 0x66 SWAP2 SWAP1 PUSH2 0x521 JUMP JUMPDEST PUSH2 0x103 JUMP JUMPDEST PUSH1 0x40 MLOAD PUSH2 0x7E SWAP8 SWAP7 SWAP6 SWAP5 SWAP4 SWAP3 SWAP2 SWAP1 PUSH2 0x5B7 JUMP JUMPDEST PUSH1 0x40 MLOAD DUP1 SWAP2 SUB SWAP1 RETURN JUMPDEST PUSH2 0xA1 PUSH1 0x4 DUP1 CALLDATASIZE SUB DUP2 ADD SWAP1 PUSH2 0x9C SWAP2 SWAP1 PUSH2 0x521 JUMP JUMPDEST PUSH2 0x165 JUMP JUMPDEST PUSH1 0x40 MLOAD PUSH2 0xAE SWAP2 SWAP1 PUSH2 0x641 JUMP JUMPDEST PUSH1 0x40 MLOAD DUP1 SWAP2 SUB SWAP1 RETURN JUMPDEST PUSH2 0xD1 PUSH1 0x4 DUP1 CALLDATASIZE SUB DUP2 ADD SWAP1 PUSH2 0xCC SWAP2 SWAP1 PUSH2 0x6B4 JUMP JUMPDEST PUSH2 0x185 JUMP JUMPDEST STOP JUMPDEST PUSH2 0xED PUSH1 0x4 DUP1 CALLDATASIZE SUB DUP2 ADD SWAP1 PUSH2 0xE8 SWAP2 SWAP1 PUSH2 0x521 JUMP JUMPDEST PUSH2 0x3C8 JUMP JUMPDEST PUSH1 0x40 MLOAD PUSH2 0xFA SWAP2 SWAP1 PUSH2 0x811 JUMP JUMPDEST PUSH1 0x40 MLOAD DUP1 SWAP2 SUB SWAP1 RETURN JUMPDEST PUSH1 0x1 PUSH1 0x20 MSTORE DUP1 PUSH1 0x0 MSTORE PUSH1 0x40 PUSH1 0x0 KECCAK256 PUSH1 0x0 SWAP2 POP SWAP1 POP DUP1 PUSH1 0x0 ADD SLOAD SWAP1 DUP1 PUSH1 0x1 ADD SLOAD SWAP1 DUP1 PUSH1 0x2 ADD SLOAD SWAP1 DUP1 PUSH1 0x3 ADD SLOAD SWAP1 DUP1 PUSH1 0x4 ADD SLOAD SWAP1 DUP1 PUSH1 0x5 ADD SLOAD SWAP1 DUP1 PUSH1 0x6 ADD PUSH1 0x0 SWAP1 SLOAD SWAP1 PUSH2 0x100 EXP SWAP1 DIV PUSH20 0xFFFFFFFFFFFFFFFFFFFFFFFFFFFFFFFFFFFFFFFF AND SWAP1 POP DUP8 JUMP JUMPDEST PUSH1 0x0 PUSH1 0x20 MSTORE DUP1 PUSH1 0x0 MSTORE PUSH1 0x40 PUSH1 0x0 KECCAK256 PUSH1 0x0 SWAP2 POP SLOAD SWAP1 PUSH2 0x100 EXP SWAP1 DIV PUSH1 0xFF AND DUP2 JUMP JUMPDEST PUSH1 0x0 DUP1 DUP9 DUP2 MSTORE PUSH1 0x20 ADD SWAP1 DUP2 MSTORE PUSH1 0x20 ADD PUSH1 0x0 KECCAK256 PUSH1 0x0 SWAP1 SLOAD SWAP1 PUSH2 0x100 EXP SWAP1 DIV PUSH1 0xFF AND ISZERO PUSH2 0x1E7 JUMPI DUP7 PUSH1 0x40 MLOAD PUSH32 0x3E4DB87F00000000000000000000000000000000000000000000000000000000 DUP2 MSTORE PUSH1 0x4 ADD PUSH2 0x1DE SWAP2 SWAP1 PUSH2 0x82C JUMP JUMPDEST PUSH1 0x40 MLOAD DUP1 SWAP2 SUB SWAP1 REVERT JUMPDEST PUSH1 0x0 PUSH20 0xFFFFFFFFFFFFFFFFFFFFFFFFFFFFFFFFFFFFFFFF AND DUP2 PUSH20 0xFFFFFFFFFFFFFFFFFFFFFFFFFFFFFFFFFFFFFFFF AND SUB PUSH2 0x258 JUMPI DUP1 PUSH1 0x40 MLOAD PUSH32 0xBF18AF4300000000000000000000000000000000000000000000000000000000 DUP2 MSTORE PUSH1 0x4 ADD PUSH2 0x24F SWAP2 SWAP1 PUSH2 0x847 JUMP JUMPDEST PUSH1 0x40 MLOAD DUP1 SWAP2 SUB SWAP1 REVERT JUMPDEST PUSH1 0x0 PUSH1 0x40 MLOAD DUP1 PUSH1 0xE0 ADD PUSH1 0x40 MSTORE DUP1 DUP10 DUP2 MSTORE PUSH1 0x20 ADD DUP9 DUP2 MSTORE PUSH1 0x20 ADD DUP8 DUP2 MSTORE PUSH1 0x20 ADD DUP7 DUP2 MSTORE PUSH1 0x20 ADD DUP6 DUP2 MSTORE PUSH1 0x20 ADD DUP5 DUP2 MSTORE PUSH1 0x20 ADD DUP4 PUSH20 0xFFFFFFFFFFFFFFFFFFFFFFFFFFFFFFFFFFFFFFFF AND DUP2 MSTORE POP SWAP1 POP DUP1 PUSH1 0x1 PUSH1 0x0 DUP11 DUP2 MSTORE PUSH1 0x20 ADD SWAP1 DUP2 MSTORE PUSH1 0x20 ADD PUSH1 0x0 KECCAK256 PUSH1 0x0 DUP3 ADD MLOAD DUP2 PUSH1 0x0 ADD SSTORE PUSH1 0x20 DUP3 ADD MLOAD DUP2 PUSH1 0x1 ADD SSTORE PUSH1 0x40 DUP3 ADD MLOAD DUP2 PUSH1 0x2 ADD SSTORE PUSH1 0x60 DUP3 ADD MLOAD DUP2 PUSH1 0x3 ADD SSTORE PUSH1 0x80 DUP3 ADD MLOAD DUP2 PUSH1 0x4 ADD SSTORE PUSH1 0xA0 DUP3 ADD MLOAD DUP2 PUSH1 0x5 ADD SSTORE PUSH1 0xC0 DUP3 ADD MLOAD DUP2 PUSH1 0x6 ADD PUSH1 0x0 PUSH2 0x100 EXP DUP2 SLOAD DUP2 PUSH20 0xFFFFFFFFFFFFFFFFFFFFFFFFFFFFFFFFFFFFFFFF MUL NOT AND SWAP1 DUP4 PUSH20 0xFFFFFFFFFFFFFFFFFFFFFFFFFFFFFFFFFFFFFFFF AND MUL OR SWAP1 SSTORE POP SWAP1 POP POP PUSH1 0x1 PUSH1 0x0 DUP1 DUP11 DUP2 MSTORE PUSH1 0x20 ADD SWAP1 DUP2 MSTORE PUSH1 0x20 ADD PUSH1 0x0 KECCAK256 PUSH1 0x0 PUSH2 0x100 EXP DUP2 SLOAD DUP2 PUSH1 0xFF MUL NOT AND SWAP1 DUP4 ISZERO ISZERO MUL OR SWAP1 SSTORE POP DUP2 PUSH20 0xFFFFFFFFFFFFFFFFFFFFFFFFFFFFFFFFFFFFFFFF AND DUP8 DUP10 PUSH32 0xE5917CE79A46A10F291E65AB5297D5A623F8E826E2605E18152D6841498736A6 DUP7 DUP10 DUP10 PUSH1 0x40 MLOAD PUSH2 0x3B6 SWAP4 SWAP3 SWAP2 SWAP1 PUSH2 0x862 JUMP JUMPDEST PUSH1 0x40 MLOAD DUP1 SWAP2 SUB SWAP1 LOG4 POP POP POP POP POP POP POP POP JUMP JUMPDEST PUSH2 0x3D0 PUSH2 0x487 JUMP JUMPDEST PUSH1 0x1 PUSH1 0x0 DUP4 DUP2 MSTORE PUSH1 0x20 ADD SWAP1 DUP2 MSTORE PUSH1 0x20 ADD PUSH1 0x0 KECCAK256 PUSH1 0x40 MLOAD DUP1 PUSH1 0xE0 ADD PUSH1 0x40 MSTORE SWAP1 DUP2 PUSH1 0x0 DUP3 ADD SLOAD DUP2 MSTORE PUSH1 0x20 ADD PUSH1 0x1 DUP3 ADD SLOAD DUP2 MSTORE PUSH1 0x20 ADD PUSH1 0x2 DUP3 ADD SLOAD DUP2 MSTORE PUSH1 0x20 ADD PUSH1 0x3 DUP3 ADD SLOAD DUP2 MSTORE PUSH1 0x20 ADD PUSH1 0x4 DUP3 ADD SLOAD DUP2 MSTORE PUSH1 0x20 ADD PUSH1 0x5 DUP3 ADD SLOAD DUP2 MSTORE PUSH1 0x20 ADD PUSH1 0x6 DUP3 ADD PUSH1 0x0 SWAP1 SLOAD SWAP1 PUSH2 0x100 EXP SWAP1 DIV PUSH20 0xFFFFFFFFFFFFFFFFFFFFFFFFFFFFFFFFFFFFFFFF AND PUSH20 0xFFFFFFFFFFFFFFFFFFFFFFFFFFFFFFFFFFFFFFFF AND PUSH20 0xFFFFFFFFFFFFFFFFFFFFFFFFFFFFFFFFFFFFFFFF AND DUP2 MSTORE POP POP SWAP1 POP SWAP2 SWAP1 POP JUMP JUMPDEST PUSH1 0x40 MLOAD DUP1 PUSH1 0xE0 ADD PUSH1 0x40 MSTORE DUP1 PUSH1 0x0 DUP1 NOT AND DUP2 MSTORE PUSH1 0x20 ADD PUSH1 0x0 DUP1 NOT AND DUP2 MSTORE PUSH1 0x20 ADD PUSH1 0x0 DUP1 NOT AND DUP2 MSTORE PUSH1 0x20 ADD PUSH1 0x0 DUP2 MSTORE PUSH1 0x20 ADD PUSH1 0x0 DUP1 NOT AND DUP2 MSTORE PUSH1 0x20 ADD PUSH1 0x0 DUP2 MSTORE PUSH1 0x20 ADD PUSH1 0x0 PUSH20 0xFFFFFFFFFFFFFFFFFFFFFFFFFFFFFFFFFFFFFFFF AND DUP2 MSTORE POP SWAP1 JUMP JUMPDEST PUSH1 0x0 DUP1 REVERT JUMPDEST PUSH1 0x0 DUP2 SWAP1 POP SWAP2 SWAP1 POP JUMP JUMPDEST PUSH2 0x4FE DUP2 PUSH2 0x4EB JUMP JUMPDEST DUP2 EQ PUSH2 0x509 JUMPI PUSH1 0x0 DUP1 REVERT JUMPDEST POP JUMP JUMPDEST PUSH1 0x0 DUP2 CALLDATALOAD SWAP1 POP PUSH2 0x51B DUP2 PUSH2 0x4F5 JUMP JUMPDEST SWAP3 SWAP2 POP POP JUMP JUMPDEST PUSH1 0x0 PUSH1 0x20 DUP3 DUP5 SUB SLT ISZERO PUSH2 0x537 JUMPI PUSH2 0x536 PUSH2 0x4E6 JUMP JUMPDEST JUMPDEST PUSH1 0x0 PUSH2 0x545 DUP5 DUP3 DUP6 ADD PUSH2 0x50C JUMP JUMPDEST SWAP2 POP POP SWAP3 SWAP2 POP POP JUMP JUMPDEST PUSH2 0x557 DUP2 PUSH2 0x4EB JUMP JUMPDEST DUP3 MSTORE POP POP JUMP JUMPDEST PUSH1 0x0 DUP2 SWAP1 POP SWAP2 SWAP1 POP JUMP JUMPDEST PUSH2 0x570 DUP2 PUSH2 0x55D JUMP JUMPDEST DUP3 MSTORE POP POP JUMP JUMPDEST PUSH1 0x0 PUSH20 0xFFFFFFFFFFFFFFFFFFFFFFFFFFFFFFFFFFFFFFFF DUP3 AND SWAP1 POP SWAP2 SWAP1 POP JUMP JUMPDEST PUSH1 0x0 PUSH2 0x5A1 DUP3 PUSH2 0x576 JUMP JUMPDEST SWAP1 POP SWAP2 SWAP1 POP JUMP JUMPDEST PUSH2 0x5B1 DUP2 PUSH2 0x596 JUMP JUMPDEST DUP3 MSTORE POP POP JUMP JUMPDEST PUSH1 0x0 PUSH1 0xE0 DUP3 ADD SWAP1 POP PUSH2 0x5CC PUSH1 0x0 DUP4 ADD DUP11 PUSH2 0x54E JUMP JUMPDEST PUSH2 0x5D9 PUSH1 0x20 DUP4 ADD DUP10 PUSH2 0x54E JUMP JUMPDEST PUSH2 0x5E6 PUSH1 0x40 DUP4 ADD DUP9 PUSH2 0x54E JUMP JUMPDEST PUSH2 0x5F3 PUSH1 0x60 DUP4 ADD DUP8 PUSH2 0x567 JUMP JUMPDEST PUSH2 0x600 PUSH1 0x80 DUP4 ADD DUP7 PUSH2 0x54E JUMP JUMPDEST PUSH2 0x60D PUSH1 0xA0 DUP4 ADD DUP6 PUSH2 0x567 JUMP JUMPDEST PUSH2 0x61A PUSH1 0xC0 DUP4 ADD DUP5 PUSH2 0x5A8 JUMP JUMPDEST SWAP9 SWAP8 POP POP POP POP POP POP POP POP JUMP JUMPDEST PUSH1 0x0 DUP2 ISZERO ISZERO SWAP1 POP SWAP2 SWAP1 POP JUMP JUMPDEST PUSH2 0x63B DUP2 PUSH2 0x626 JUMP JUMPDEST DUP3 MSTORE POP POP JUMP JUMPDEST PUSH1 0x0 PUSH1 0x20 DUP3 ADD SWAP1 POP PUSH2 0x656 PUSH1 0x0 DUP4 ADD DUP5 PUSH2 0x632 JUMP JUMPDEST SWAP3 SWAP2 POP POP JUMP JUMPDEST PUSH2 0x665 DUP2 PUSH2 0x55D JUMP JUMPDEST DUP2 EQ PUSH2 0x670 JUMPI PUSH1 0x0 DUP1 REVERT JUMPDEST POP JUMP JUMPDEST PUSH1 0x0 DUP2 CALLDATALOAD SWAP1 POP PUSH2 0x682 DUP2 PUSH2 0x65C JUMP JUMPDEST SWAP3 SWAP2 POP POP JUMP JUMPDEST PUSH2 0x691 DUP2 PUSH2 0x596 JUMP JUMPDEST DUP2 EQ PUSH2 0x69C JUMPI PUSH1 0x0 DUP1 REVERT JUMPDEST POP JUMP JUMPDEST PUSH1 0x0 DUP2 CALLDATALOAD SWAP1 POP PUSH2 0x6AE DUP2 PUSH2 0x688 JUMP JUMPDEST SWAP3 SWAP2 POP POP JUMP JUMPDEST PUSH1 0x0 DUP1 PUSH1 0x0 DUP1 PUSH1 0x0 DUP1 PUSH1 0x0 PUSH1 0xE0 DUP9 DUP11 SUB SLT ISZERO PUSH2 0x6D3 JUMPI PUSH2 0x6D2 PUSH2 0x4E6 JUMP JUMPDEST JUMPDEST PUSH1 0x0 PUSH2 0x6E1 DUP11 DUP3 DUP12 ADD PUSH2 0x50C JUMP JUMPDEST SWAP8 POP POP PUSH1 0x20 PUSH2 0x6F2 DUP11 DUP3 DUP12 ADD PUSH2 0x50C JUMP JUMPDEST SWAP7 POP POP PUSH1 0x40 PUSH2 0x703 DUP11 DUP3 DUP12 ADD PUSH2 0x50C JUMP JUMPDEST SWAP6 POP POP PUSH1 0x60 PUSH2 0x714 DUP11 DUP3 DUP12 ADD PUSH2 0x673 JUMP JUMPDEST SWAP5 POP POP PUSH1 0x80 PUSH2 0x725 DUP11 DUP3 DUP12 ADD PUSH2 0x50C JUMP JUMPDEST SWAP4 POP POP PUSH1 0xA0 PUSH2 0x736 DUP11 DUP3 DUP12 ADD PUSH2 0x673 JUMP JUMPDEST SWAP3 POP POP PUSH1 0xC0 PUSH2 0x747 DUP11 DUP3 DUP12 ADD PUSH2 0x69F JUMP JUMPDEST SWAP2 POP POP SWAP3 SWAP6 SWAP9 SWAP2 SWAP5 SWAP8 POP SWAP3 SWAP6 POP JUMP JUMPDEST PUSH2 0x75F DUP2 PUSH2 0x4EB JUMP JUMPDEST DUP3 MSTORE POP POP JUMP JUMPDEST PUSH2 0x76E DUP2 PUSH2 0x55D JUMP JUMPDEST DUP3 MSTORE POP POP JUMP JUMPDEST PUSH2 0x77D DUP2 PUSH2 0x596 JUMP JUMPDEST DUP3 MSTORE POP POP JUMP JUMPDEST PUSH1 0xE0 DUP3 ADD PUSH1 0x0 DUP3 ADD MLOAD PUSH2 0x799 PUSH1 0x0 DUP6 ADD DUP3 PUSH2 0x756 JUMP JUMPDEST POP PUSH1 0x20 DUP3 ADD MLOAD PUSH2 0x7AC PUSH1 0x20 DUP6 ADD DUP3 PUSH2 0x756 JUMP JUMPDEST POP PUSH1 0x40 DUP3 ADD MLOAD PUSH2 0x7BF PUSH1 0x40 DUP6 ADD DUP3 PUSH2 0x756 JUMP JUMPDEST POP PUSH1 0x60 DUP3 ADD MLOAD PUSH2 0x7D2 PUSH1 0x60 DUP6 ADD DUP3 PUSH2 0x765 JUMP JUMPDEST POP PUSH1 0x80 DUP3 ADD MLOAD PUSH2 0x7E5 PUSH1 0x80 DUP6 ADD DUP3 PUSH2 0x756 JUMP JUMPDEST POP PUSH1 0xA0 DUP3 ADD MLOAD PUSH2 0x7F8 PUSH1 0xA0 DUP6 ADD DUP3 PUSH2 0x765 JUMP JUMPDEST POP PUSH1 0xC0 DUP3 ADD MLOAD PUSH2 0x80B PUSH1 0xC0 DUP6 ADD DUP3 PUSH2 0x774 JUMP JUMPDEST POP POP POP POP JUMP JUMPDEST PUSH1 0x0 PUSH1 0xE0 DUP3 ADD SWAP1 POP PUSH2 0x826 PUSH1 0x0 DUP4 ADD DUP5 PUSH2 0x783 JUMP JUMPDEST SWAP3 SWAP2 POP POP JUMP JUMPDEST PUSH1 0x0 PUSH1 0x20 DUP3 ADD SWAP1 POP PUSH2 0x841 PUSH1 0x0 DUP4 ADD DUP5 PUSH2 0x54E JUMP JUMPDEST SWAP3 SWAP2 POP POP JUMP JUMPDEST PUSH1 0x0 PUSH1 0x20 DUP3 ADD SWAP1 POP PUSH2 0x85C PUSH1 0x0 DUP4 ADD DUP5 PUSH2 0x5A8 JUMP JUMPDEST SWAP3 SWAP2 POP POP JUMP JUMPDEST PUSH1 0x0 PUSH1 0x60 DUP3 ADD SWAP1 POP PUSH2 0x877 PUSH1 0x0 DUP4 ADD DUP7 PUSH2 0x567 JUMP JUMPDEST PUSH2 0x884 PUSH1 0x20 DUP4 ADD DUP6 PUSH2 0x567 JUMP JUMPDEST PUSH2 0x891 PUSH1 0x40 DUP4 ADD DUP5 PUSH2 0x54E JUMP JUMPDEST SWAP5 SWAP4 POP POP POP POP JUMP INVALID LOG2 PUSH5 0x6970667358 0x22 SLT KECCAK256 0x24 0xA8 COINBASE DUP11 0xCA 0xA5 0xCF SWAP14 COINBASE 0xBC MULMOD DUP7 SHR 0x23 0xD0 MOD DUP12 0xC DUP6 RETURN SWAP14 0x5C DUP3 SSTORE 0xEF 0xCE PUSH0 0xB2 0x4B 0xE1 CALLDATALOAD 0x2B PUSH5 0x736F6C6343 STOP ADDMOD EQ STOP CALLER "},"methodIdentifiers":{"decisions(bytes32)":"1afd614a","getDecision(bytes32)":"d8c57892","isDecisionLogged(bytes32)":"28c07e0b","logDecision(bytes32,bytes32,bytes32,uint256,bytes32,uint256,address)":"4a82eb43"}}}}}