{
  "_format": "hh-sol-artifact-1",
  "contractName": "AIDecisionRegistry",
  "sourceName": "contracts/AIDecisionRegistry.sol",
  "abi": [
    {
      "inputs": [
        {
          "internalType": "bytes32",
          "name": "decisionId",
          "type": "bytes32"
        }
      ],
      "name": "DecisionAlreadyRegistered",
      "type": "error"
    },
    {
      "anonymous": false,
      "inputs": [
        {
          "indexed": true,
          "internalType": "bytes32",
          "name": "decisionId",
          "type": "bytes32"
        },
        {
          "indexed": true,
          "internalType": "bytes32",
          "name": "domainHash",
          "type": "bytes32"
        },
        {
          "indexed": true,
          "internalType": "bytes32",
          "name": "chosenModelHash",
          "type": "bytes32"
        },
        {
          "indexed": false,
          "internalType": "bytes32",
          "name": "ipfsCidHash",
          "type": "bytes32"
        },
        {
          "indexed": false,
          "internalType": "string",
          "name": "subject",
          "type": "string"
        },
        {
          "indexed": false,
          "internalType": "uint256",
          "name": "timestamp",
          "type": "uint256"
        }
      ],
      "name": "DecisionRegistered",
      "type": "event"
    },
    {
      "inputs": [
        {
          "internalType": "bytes32",
          "name": "",
          "type": "bytes32"
        }
      ],
      "name": "decisions",
      "outputs": [
        {
          "internalType": "bytes32",
          "name": "decisionId",
          "type": "bytes32"
        },
        {
          "internalType": "bytes32",
          "name": "ipfsCidHash",
          "type": "bytes32"
        },
        {
          "internalType": "string",
          "name": "ipfsCid",
          "type": "string"
        },
        {
          "internalType": "bytes32",
          "name": "domainHash",
          "type": "bytes32"
        },
        {
          "internalType": "bytes32",
          "name": "chosenModelHash",
          "type": "bytes32"
        },
        {
          "internalType": "string",
          "name": "subject",
          "type": "string"
        },
        {
          "internalType": "uint256",
          "name": "timestamp",
          "type": "uint256"
        }
      ],
      "stateMutability": "view",
      "type": "function"
    },
    {
      "inputs": [
        {
          "internalType": "bytes32",
          "name": "",
          "type": "bytes32"
        }
      ],
      "name": "isRegistered",
      "outputs": [
        {
          "internalType": "bool",
          "name": "",
          "type": "bool"
        }
      ],
      "stateMutability": "view",
      "type": "function"
    },
    {
      "inputs": [
        {
          "internalType": "bytes32",
          "name": "_decisionId",
          "type": "bytes32"
        },
        {
          "internalType": "bytes32",
          "name": "_ipfsCidHash",
          "type": "bytes32"
        },
        {
          "internalType": "string",
          "name": "_ipfsCid",
          "type": "string"
        },
        {
          "internalType": "bytes32",
          "name": "_domainHash",
          "type": "bytes32"
        },
        {
          "internalType": "bytes32",
          "name": "_chosenModelHash",
          "type": "bytes32"
        },
        {
          "internalType": "string",
          "name": "_subject",
          "type": "string"
        }
      ],
      "name": "registerDecision",
      "outputs": [],
      "stateMutability": "nonpayable",
      "type": "function"
    },
    {
      "inputs": [
        {
          "internalType": "bytes32",
          "name": "_decisionId",
          "type": "bytes32"
        },
        {
          "internalType": "bytes32",
          "name": "_ipfsCidHash",
          "type": "bytes32"
        }
      ],
      "name": "verifyDecision",
      "outputs": [
        {
          "internalType": "bool",
          "name": "",
          "type": "bool"
        }
      ],
      "stateMutability": "view",
      "type": "function"
    }
  ],
  "bytecode": "0x608060405234801561001057600080fd5b50610bf2806100206000396000f3fe608060405234801561001057600080fd5b506004361061004c5760003560e01c80631afd614a1461005157806327258b22146100875780638f0faa89146100b7578063c68f0c60146100e7575b600080fd5b61006b6004803603810190610066919061050c565b610103565b60405161007e97969594939291906105f1565b60405180910390f35b6100a1600480360381019061009c919061050c565b610255565b6040516100ae9190610689565b60405180910390f35b6100d160048036038101906100cc91906106a4565b610275565b6040516100de9190610689565b60405180910390f35b61010160048036038101906100fc9190610749565b6102c6565b005b600060205280600052604060002060009150905080600001549080600101549080600201805461013290610847565b80601f016020809104026020016040519081016040528092919081815260200182805461015e90610847565b80156101ab5780601f10610180576101008083540402835291602001916101ab565b820191906000526020600020905b81548152906001019060200180831161018e57829003601f168201915b5050505050908060030154908060040154908060050180546101cc90610847565b80601f01602080910402602001604051908101604052809291908181526020018280546101f890610847565b80156102455780601f1061021a57610100808354040283529160200191610245565b820191906000526020600020905b81548152906001019060200180831161022857829003601f168201915b5050505050908060060154905087565b60016020528060005260406000206000915054906101000a900460ff1681565b60006001600084815260200190815260200160002060009054906101000a900460ff166102a557600090506102c0565b81600080858152602001908152602001600020600101541490505b92915050565b6001600089815260200190815260200160002060009054906101000a900460ff161561032957876040517fe4da61ec0000000000000000000000000000000000000000000000000000000081526004016103209190610878565b60405180910390fd5b6040518060e0016040528089815260200188815260200187878080601f016020809104026020016040519081016040528093929190818152602001838380828437600081840152601f19601f82011690508083019250505050505050815260200185815260200184815260200183838080601f016020809104026020016040519081016040528093929190818152602001838380828437600081840152601f19601f820116905080830192505050505050508152602001428152506000808a81526020019081526020016000206000820151816000015560208201518160010155604082015181600201908161041f9190610a6e565b50606082015181600301556080820151816004015560a08201518160050190816104499190610a6e565b5060c0820151816006015590505060018060008a815260200190815260200160002060006101000a81548160ff0219169083151502179055508284897fd42a2f5d347dc826d7469677011e748d6d61e60bbac979f03eee75226bc693fa8a8686426040516104ba9493929190610b7c565b60405180910390a45050505050505050565b600080fd5b600080fd5b6000819050919050565b6104e9816104d6565b81146104f457600080fd5b50565b600081359050610506816104e0565b92915050565b600060208284031215610522576105216104cc565b5b6000610530848285016104f7565b91505092915050565b610542816104d6565b82525050565b600081519050919050565b600082825260208201905092915050565b60005b83811015610582578082015181840152602081019050610567565b60008484015250505050565b6000601f19601f8301169050919050565b60006105aa82610548565b6105b48185610553565b93506105c4818560208601610564565b6105cd8161058e565b840191505092915050565b6000819050919050565b6105eb816105d8565b82525050565b600060e082019050610606600083018a610539565b6106136020830189610539565b8181036040830152610625818861059f565b90506106346060830187610539565b6106416080830186610539565b81810360a0830152610653818561059f565b905061066260c08301846105e2565b98975050505050505050565b60008115159050919050565b6106838161066e565b82525050565b600060208201905061069e600083018461067a565b92915050565b600080604083850312156106bb576106ba6104cc565b5b60006106c9858286016104f7565b92505060206106da858286016104f7565b9150509250929050565b600080fd5b600080fd5b600080fd5b60008083601f840112610709576107086106e4565b5b8235905067ffffffffffffffff811115610726576107256106e9565b5b602083019150836001820283011115610742576107416106ee565b5b9250929050565b60008060008060008060008060c0898b031215610769576107686104cc565b5b60006107778b828c016104f7565b98505060206107888b828c016104f7565b975050604089013567ffffffffffffffff8111156107a9576107a86104d1565b5b6107b58b828c016106f3565b965096505060606107c88b828c016104f7565b94505060806107d98b828c016104f7565b93505060a089013567ffffffffffffffff8111156107fa576107f96104d1565b5b6108068b828c016106f3565b92509250509295985092959890939650565b7f4e487b7100000000000000000000000000000000000000000000000000000000600052602260045260246000fd5b6000600282049050600182168061085f57607f821691505b60208210810361087257610871610818565b5b50919050565b600060208201905061088d6000830184610539565b92915050565b7f4e487b7100000000000000000000000000000000000000000000000000000000600052604160045260246000fd5b60008190508160005260206000209050919050565b60006020601f8301049050919050565b600082821b905092915050565b6000600883026109247fffffffffffffffffffffffffffffffffffffffffffffffffffffffffffffffff826108e7565b61092e86836108e7565b95508019841693508086168417925050509392505050565b6000819050919050565b600061096b610966610961846105d8565b610946565b6105d8565b9050919050565b6000819050919050565b61098583610950565b61099961099182610972565b8484546108f4565b825550505050565b600090565b6109ae6109a1565b6109b981848461097c565b505050565b5b818110156109dd576109d26000826109a6565b6001810190506109bf565b5050565b601f821115610a22576109f3816108c2565b6109fc846108d7565b81016020851015610a0b578190505b610a1f610a17856108d7565b8301826109be565b50505b505050565b600082821c905092915050565b6000610a4560001984600802610a27565b1980831691505092915050565b6000610a5e8383610a34565b9150826002028217905092915050565b610a7782610548565b67ffffffffffffffff811115610a9057610a8f610893565b5b610a9a8254610847565b610aa58282856109e1565b600060209050601f831160018114610ad85760008415610ac6578287015190505b610ad08582610a52565b865550610b38565b601f198416610ae6866108c2565b60005b82811015610b0e57848901518255600182019150602085019450602081019050610ae9565b86831015610b2b5784890151610b27601f891682610a34565b8355505b6001600288020188555050505b505050505050565b82818337600083830152505050565b6000610b5b8385610553565b9350610b68838584610b40565b610b718361058e565b840190509392505050565b6000606082019050610b916000830187610539565b8181036020830152610ba4818587610b4f565b9050610bb360408301846105e2565b9594505050505056fea264697066735822122040e015bc0a8e28a954debf82df57e166905dd52d4fc62937b8ac43abc95058d764736f6c63430008140033",
  "linkReferences": {},
  "deployedLinkReferences": {}
}