{
  "_format": "hh-sol-artifact-1",
  "contractName": "DecisionLogger",
  "sourceName": "contracts/DecisionLogger.sol",
  "abi": [
    {
      "inputs": [],
      "stateMutability": "nonpayable",
      "type": "constructor"
    },
    {
      "inputs": [
        {
          "internalType": "address",
          "name": "target",
          "type": "address"
        }
      ],
      "name": "AddressEmptyCode",
      "type": "error"
    },
    {
      "inputs": [
        {
          "internalType": "address",
          "name": "implementation",
          "type": "address"
        }
      ],
      "name": "ERC1967InvalidImplementation",
      "type": "error"
    },
    {
      "inputs": [],
      "name": "ERC1967NonPayable",
      "type": "error"
    },
    {
      "inputs": [],
      "name": "FailedCall",
      "type": "error"
    },
    {
      "inputs": [],
      "name": "InvalidInitialization",
      "type": "error"
    },
    {
      "inputs": [],
      "name": "NotInitializing",
      "type": "error"
    },
    {
      "inputs": [
        {
          "internalType": "address",
          "name": "owner",
          "type": "address"
        }
      ],
      "name": "OwnableInvalidOwner",
      "type": "error"
    },
    {
      "inputs": [
        {
          "internalType": "address",
          "name": "account",
          "type": "address"
        }
      ],
      "name": "OwnableUnauthorizedAccount",
      "type": "error"
    },
    {
      "inputs": [],
      "name": "UUPSUnauthorizedCallContext",
      "type": "error"
    },
    {
      "inputs": [
        {
          "internalType": "bytes32",
          "name": "slot",
          "type": "bytes32"
        }
      ],
      "name": "UUPSUnsupportedProxiableUUID",
      "type": "error"
    },
    {
      "anonymous": false,
      "inputs": [
        {
          "indexed": true,
          "internalType": "bytes32",
          "name": "id",
          "type": "bytes32"
        },
        {
          "indexed": true,
          "internalType": "address",
          "name": "user",
          "type": "address"
        },
        {
          "indexed": false,
          "internalType": "uint8",
          "name": "action",
          "type": "uint8"
        },
        {
          "indexed": false,
          "internalType": "address",
          "name": "asset",
          "type": "address"
        },
        {
          "indexed": false,
          "internalType": "uint256",
          "name": "amount",
          "type": "uint256"
        },
        {
          "indexed": false,
          "internalType": "uint256",
          "name": "confidenceScore",
          "type": "uint256"
        }
      ],
      "name": "DecisionLogged",
      "type": "event"
    },
    {
      "anonymous": false,
      "inputs": [
        {
          "indexed": false,
          "internalType": "uint64",
          "name": "version",
          "type": "uint64"
        }
      ],
      "name": "Initialized",
      "type": "event"
    },
    {
      "anonymous": false,
      "inputs": [
        {
          "indexed": true,
          "internalType": "address",
          "name": "previousOwner",
          "type": "address"
        },
        {
          "indexed": true,
          "internalType": "address",
          "name": "newOwner",
          "type": "address"
        }
      ],
      "name": "OwnershipTransferred",
      "type": "event"
    },
    {
      "anonymous": false,
      "inputs": [
        {
          "indexed": true,
          "internalType": "address",
          "name": "implementation",
          "type": "address"
        }
      ],
      "name": "Upgraded",
      "type": "event"
    },
    {
      "inputs": [],
      "name": "DOMAIN_SEPARATOR",
      "outputs": [
        {
          "internalType": "bytes32",
          "name": "",
          "type": "bytes32"
        }
      ],
      "stateMutability": "view",
      "type": "function"
    },
    {
      "inputs": [],
      "name": "UPGRADE_INTERFACE_VERSION",
      "outputs": [
        {
          "internalType": "string",
          "name": "",
          "type": "string"
        }
      ],
      "stateMutability": "view",
      "type": "function"
    },
    {
      "inputs": [
        {
          "internalType": "uint256",
          "name": "",
          "type": "uint256"
        }
      ],
      "name": "allDecisions",
      "outputs": [
        {
          "internalType": "bytes32",
          "name": "",
          "type": "bytes32"
        }
      ],
      "stateMutability": "view",
      "type": "function"
    },
    {
      "inputs": [
        {
          "internalType": "bytes32",
          "name": "",
          "type": "bytes32"
        }
      ],
      "name": "decisions",
      "outputs": [
        {
          "internalType": "bytes32",
          "name": "id",
          "type": "bytes32"
        },
        {
          "internalType": "uint256",
          "name": "timestamp",
          "type": "uint256"
        },
        {
          "internalType": "uint8",
          "name": "action",
          "type": "uint8"
        },
        {
          "internalType": "address",
          "name": "user",
          "type": "address"
        },
        {
          "internalType": "address",
          "name": "asset",
          "type": "address"
        },
        {
          "internalType": "uint256",
          "name": "amount",
          "type": "uint256"
        },
        {
          "internalType": "address",
          "name": "fromProtocol",
          "type": "address"
        },
        {
          "internalType": "address",
          "name": "toProtocol",
          "type": "address"
        },
        {
          "internalType": "uint256",
          "name": "confidenceScore",
          "type": "uint256"
        },
        {
          "internalType": "string",
          "name": "reasons",
          "type": "string"
        },
        {
          "internalType": "string",
          "name": "dataSources",
          "type": "string"
        },
        {
          "internalType": "string",
          "name": "alternatives",
          "type": "string"
        },
        {
          "internalType": "bytes32",
          "name": "onChainHash",
          "type": "bytes32"
        },
        {
          "internalType": "string",
          "name": "modelCid",
          "type": "string"
        },
        {
          "internalType": "string",
          "name": "xaiCid",
          "type": "string"
        }
      ],
      "stateMutability": "view",
      "type": "function"
    },
    {
      "inputs": [
        {
          "internalType": "bytes32",
          "name": "id",
          "type": "bytes32"
        }
      ],
      "name": "getDecision",
      "outputs": [
        {
          "components": [
            {
              "internalType": "bytes32",
              "name": "id",
              "type": "bytes32"
            },
            {
              "internalType": "uint256",
              "name": "timestamp",
              "type": "uint256"
            },
            {
              "internalType": "uint8",
              "name": "action",
              "type": "uint8"
            },
            {
              "internalType": "address",
              "name": "user",
              "type": "address"
            },
            {
              "internalType": "address",
              "name": "asset",
              "type": "address"
            },
            {
              "internalType": "uint256",
              "name": "amount",
              "type": "uint256"
            },
            {
              "internalType": "address",
              "name": "fromProtocol",
              "type": "address"
            },
            {
              "internalType": "address",
              "name": "toProtocol",
              "type": "address"
            },
            {
              "internalType": "uint256",
              "name": "confidenceScore",
              "type": "uint256"
            },
            {
              "internalType": "string",
              "name": "reasons",
              "type": "string"
            },
            {
              "internalType": "string",
              "name": "dataSources",
              "type": "string"
            },
            {
              "internalType": "string",
              "name": "alternatives",
              "type": "string"
            },
            {
              "internalType": "bytes32",
              "name": "onChainHash",
              "type": "bytes32"
            },
            {
              "internalType": "string",
              "name": "modelCid",
              "type": "string"
            },
            {
              "internalType": "string",
              "name": "xaiCid",
              "type": "string"
            }
          ],
          "internalType": "struct DecisionLogger.Decision",
          "name": "",
          "type": "tuple"
        }
      ],
      "stateMutability": "view",
      "type": "function"
    },
    {
      "inputs": [
        {
          "internalType": "uint256",
          "name": "offset",
          "type": "uint256"
        },
        {
          "internalType": "uint256",
          "name": "limit",
          "type": "uint256"
        }
      ],
      "name": "getDecisions",
      "outputs": [
        {
          "internalType": "bytes32[]",
          "name": "",
          "type": "bytes32[]"
        }
      ],
      "stateMutability": "view",
      "type": "function"
    },
    {
      "inputs": [],
      "name": "getTotalDecisions",
      "outputs": [
        {
          "internalType": "uint256",
          "name": "",
          "type": "uint256"
        }
      ],
      "stateMutability": "view",
      "type": "function"
    },
    {
      "inputs": [
        {
          "internalType": "address",
          "name": "user",
          "type": "address"
        }
      ],
      "name": "getUserDecisions",
      "outputs": [
        {
          "internalType": "bytes32[]",
          "name": "",
          "type": "bytes32[]"
        }
      ],
      "stateMutability": "view",
      "type": "function"
    },
    {
      "inputs": [
        {
          "internalType": "address",
          "name": "_verifier",
          "type": "address"
        }
      ],
      "name": "initialize",
      "outputs": [],
      "stateMutability": "nonpayable",
      "type": "function"
    },
    {
      "inputs": [
        {
          "internalType": "bytes32",
          "name": "id",
          "type": "bytes32"
        },
        {
          "internalType": "address",
          "name": "user",
          "type": "address"
        },
        {
          "internalType": "uint8",
          "name": "action",
          "type": "uint8"
        },
        {
          "internalType": "address",
          "name": "asset",
          "type": "address"
        },
        {
          "internalType": "uint256",
          "name": "amount",
          "type": "uint256"
        },
        {
          "internalType": "address",
          "name": "fromProtocol",
          "type": "address"
        },
        {
          "internalType": "address",
          "name": "toProtocol",
          "type": "address"
        },
        {
          "internalType": "uint256",
          "name": "confidenceScore",
          "type": "uint256"
        },
        {
          "internalType": "string",
          "name": "reasons",
          "type": "string"
        },
        {
          "internalType": "string",
          "name": "dataSources",
          "type": "string"
        },
        {
          "internalType": "string",
          "name": "alternatives",
          "type": "string"
        },
        {
          "internalType": "bytes32",
          "name": "onChainHash",
          "type": "bytes32"
        },
        {
          "internalType": "string",
          "name": "modelCid",
          "type": "string"
        },
        {
          "internalType": "string",
          "name": "xaiCid",
          "type": "string"
        },
        {
          "internalType": "bytes",
          "name": "signature",
          "type": "bytes"
        }
      ],
      "name": "logDecision",
      "outputs": [],
      "stateMutability": "nonpayable",
      "type": "function"
    },
    {
      "inputs": [],
      "name": "owner",
      "outputs": [
        {
          "internalType": "address",
          "name": "",
          "type": "address"
        }
      ],
      "stateMutability": "view",
      "type": "function"
    },
    {
      "inputs": [],
      "name": "proxiableUUID",
      "outputs": [
        {
          "internalType": "bytes32",
          "name": "",
          "type": "bytes32"
        }
      ],
      "stateMutability": "view",
      "type": "function"
    },
    {
      "inputs": [],
      "name": "renounceOwnership",
      "outputs": [],
      "stateMutability": "nonpayable",
      "type": "function"
    },
    {
      "inputs": [
        {
          "internalType": "address",
          "name": "_verifier",
          "type": "address"
        }
      ],
      "name": "setVerifier",
      "outputs": [],
      "stateMutability": "nonpayable",
      "type": "function"
    },
    {
      "inputs": [
        {
          "internalType": "address",
          "name": "newOwner",
          "type": "address"
        }
      ],
      "name": "transferOwnership",
      "outputs": [],
      "stateMutability": "nonpayable",
      "type": "function"
    },
    {
      "inputs": [
        {
          "internalType": "address",
          "name": "newImplementation",
          "type": "address"
        },
        {
          "internalType": "bytes",
          "name": "data",
          "type": "bytes"
        }
      ],
      "name": "upgradeToAndCall",
      "outputs": [],
      "stateMutability": "payable",
      "type": "function"
    },
    {
      "inputs": [
        {
          "internalType": "address",
          "name": "",
          "type": "address"
        },
        {
          "internalType": "uint256",
          "name": "",
          "type": "uint256"
        }
      ],
      "name": "userDecisions",
      "outputs": [
        {
          "internalType": "bytes32",
          "name": "",
          "type": "bytes32"
        }
      ],
      "stateMutability": "view",
      "type": "function"
    },
    {
      "inputs": [],
      "name": "verifier",
      "outputs": [
        {
          "internalType": "contract DecisionVerifier",
          "name": "",
          "type": "address"
        }
      ],
      "stateMutability": "view",
      "type": "function"
    }
  ],
  "bytecode": "0x60a080604052346100cc57306080527ff0c57e16840df040f15088dc2f81fe391c3923bec73e23a9662efc9c229c6a009081549060ff8260401c166100bd57506001600160401b036002600160401b031982821601610078575b604051611f6c90816100d2823960805181818161154601526115ee0152f35b6001600160401b031990911681179091556040519081527fc7f505b2f371ae2175ee4913f4499e1f2633a7b5936321eed1cdaeb6115181d290602090a1388080610059565b63f92ee8a960e01b8152600490fd5b600080fdfe608080604052600436101561001357600080fd5b60003560e01c90816305d7a28c14611995575080631afd614a146118425780631d808cd3146118145780632b7ac3f3146117eb5780633644e515146117cd5780634f1ef286146115b057806352d1902d146115335780635437988d146114a75780636257ce00146114705780636cc6d63e146107b2578063715018a614610748578063774aa26a146106ef5780638da5cb5b146106b9578063ad3cb1cc14610673578063c4d66de814610422578063d8c5789214610133578063ee06edbb146101155763f2fde38b146100e557600080fd5b346101105760203660031901126101105761010e610101611a0d565b610109611e39565b611dc5565b005b600080fd5b34610110576000366003190112610110576020600454604051908152f35b346101105760203660031901126101105760043560606101c060405161015881611a99565b60008152600060208201526000604082015260008382015260006080820152600060a0820152600060c0820152600060e082015260006101008201528261012082015282610140820152826101608201526000610180820152826101a08201520152806000526002602052600160406000200154156103d25760005260026020526103ce60406000206102b3600d604051926101f384611a99565b8054845260018101546020850152600281015460ff811660408601526001600160a01b03600891821c81166060870152600383015481166080870152600483015460a08701526005830154811660c087015260068301541660e08601526007820154610100860152610266908201611af1565b61012085015261027860098201611af1565b61014085015261028a600a8201611af1565b610160850152600b8101546101808501526102a7600c8201611af1565b6101a085015201611af1565b6101c082015260405191829160208352805160208401526020810151604084015260ff604082015116606084015260018060a01b03606082015116608084015260018060a01b0360808201511660a084015260a081015160c084015260018060a01b0360c08201511660e084015260018060a01b0360e08201511661010084015261010081015161012084015261012081015161035f6101e09182610140870152610200860190611b96565b906101c06103bd61039d61038761014087015195601f1996878b8303016101608c0152611b96565b610160870151868a8303016101808b0152611b96565b6101808601516101a08901526101a08601518589830301848a0152611b96565b930151918584030190850152611b96565b0390f35b60405162461bcd60e51b815260206004820152602260248201527f4465636973696f6e4c6f676765723a206465636973696f6e206e6f7420666f756044820152611b9960f21b6064820152608490fd5b346101105760203660031901126101105761043b611a0d565b7ff0c57e16840df040f15088dc2f81fe391c3923bec73e23a9662efc9c229c6a0080549160ff8360401c1615906001600160401b03938481168015908161066b575b6001149081610661575b159081610658575b506106465767ffffffffffffffff198116600117845582610627575b506104b4611e72565b6104bc611e72565b6104c533611dc5565b6104cd611e72565b60018060a01b03166001600160601b0360a01b600054161760005574232624a72a2fa222a1a4a9a4a7a72fa627a3a3a2a960591b602060405161050f81611ab5565b601581520152603160f81b602060405161052881611ab5565b60018152015260405160208101907f8b73c3c69bb8fe3d512ecc4cf759cc79239f7b179b0ffacaa9a75d522b39400f82527f13bf0d1a78902b8a03be850caa23ba41dd3821365e0701d344b0f380769258ca60408201527fc89efdaa54c0f20c7adf612882df0950f5a951637e0307cdcb4c672f298b8bc660608201524660808201523060a082015260a0815260c08101948186109086111761061157846040525190206001556105d557005b805468ff000000000000000019169055600181527fc7f505b2f371ae2175ee4913f4499e1f2633a7b5936321eed1cdaeb6115181d290602090a1005b634e487b7160e01b600052604160045260246000fd5b68ffffffffffffffffff191668010000000000000001178355846104ab565b60405163f92ee8a960e01b8152600490fd5b9050158661048f565b303b159150610487565b84915061047d565b34610110576000366003190112610110576103ce60405161069381611ab5565b60058152640352e302e360dc1b6020820152604051918291602083526020830190611b96565b3461011057600036600319011261011057600080516020611f17833981519152546040516001600160a01b039091168152602090f35b3461011057604036600319011261011057610708611a0d565b6001600160a01b03166000908152600360205260409020805460243591908210156101105760209161073991611c85565b90549060031b1c604051908152f35b3461011057600036600319011261011057610761611e39565b600080516020611f1783398151915280546001600160a01b031981169091556000906001600160a01b03167f8be0079c531659141344cd1fd0a4f28419497f9722a3daafe3b4186f6b6457e08280a3005b34610110576101e0366003190112610110576024356001600160a01b0381168103610110576044359060ff82168203610110576064356001600160a01b03811681036101105760a4356001600160a01b03811681036101105760c4356001600160a01b038116810361011057610104356001600160401b0381116101105761083e903690600401611bf1565b610124356001600160401b0381116101105761085e903690600401611bf1565b6001600160401b0361014435116101105761087f3661014435600401611bf1565b906001600160401b036101843511610110576108a13661018435600401611bf1565b926001600160401b036101a43511610110576108c3366101a435600401611bf1565b946101c4356001600160401b038111610110576108e4903690600401611bf1565b600435600052600260205260016040600020015461141b576001600160a01b038a16156113d657600360ff8c16116113915761271060e4351161133b5789908b888b86516020880120885160208a0120908a5160208c01209260ff8d60208151910120956020815191012096604051997f99d22ae37f8e52b3f370626e2abbde8625d055975c843975b7c1c750e719236560208c015260043560408c015260018060a01b031660608b015216608089015260018060a01b031660a088015260843560c08801528d60018060a01b031660e088015260018060a01b03881661010088015260e435610120880152610140870152610160860152610180850152610164356101a08501526101c08401526101e08301526101e08252816102008101106001600160401b036102008401111761061157602090610200830160405282518284012060018060a01b0360005416906353613af160e11b610200860152610204850152604061022485015261020084019184610a6a6101ff1992610244830190611b96565b03019060006102008601915af190811561132f576000916112ec575b501561128c5760405196610a9988611a99565b600435885242602089015260ff8b16604089015260018060a01b038a16606089015260018060a01b038916608089015260843560a089015260018060a01b031660c088015260018060a01b031660e087015260e435610100870152610120860152610140850152610160840152610164356101808401526101a08301526101c0820152600435600052600260205260406000209080518255602081015160018301556002820160ff604083015116815490610100600160a81b03606085015160081b16916affffffffffffffffffffff60a81b16171790556003820160018060a01b03608083015116906001600160601b0360a01b918282541617905560a082015160048401556005830160018060a01b0360c08401511682825416179055600683019060018060a01b0360e0840151169082541617905561010081015160078301556101208101518051906001600160401b038211610611578190610c026008860154611a5f565b601f8111611239575b50602090601f83116001146111c7576000926111bc575b50508160011b916000199060031b1c19161760088301555b6101408101518051906001600160401b038211610611578190610c606009860154611a5f565b601f8111611169575b50602090601f83116001146110f7576000926110ec575b50508160011b916000199060031b1c19161760098301555b6101608101518051906001600160401b038211610611578190610cbe600a860154611a5f565b601f8111611099575b50602090601f83116001146110275760009261101c575b50508160011b916000199060031b1c191617600a8301555b610180810151600b8301556101a08101518051906001600160401b03821161061157610d25600c850154611a5f565b601f8111610fd5575b50602090601f8311600114610f61576101c093929160009183610f56575b50508160011b916000199060031b1c191617600c8401555b01518051906001600160401b03821161061157610d84600d840154611a5f565b601f8111610f0f575b50602090601f8311600114610ea157600d929160009183610e96575b50508160011b916000199060031b1c1916179101555b6001600160a01b038216600090815260036020526040902080546801000000000000000091828210156106115781610dff916001610e1b94018155611c85565b6004929192359083549060031b91821b91600019901b19161790565b90556004549081101561061157610dff816001610e3b9301600455611c38565b90556040805160ff9490941684526001600160a01b0391821660208501526084359084015260e43560608401521690600435907fea1e7f9033d0faabd83baf4f6612b160d08d5b95f6e9c96e8d8d1741e6e0581a90608090a3005b015190508780610da9565b90601f19831691600d850160005260206000209260005b818110610ef75750916001939185600d969410610ede575b505050811b01910155610dbf565b015160001960f88460031b161c19169055878080610ed0565b92936020600181928786015181550195019301610eb8565b600d84016000526020600020601f840160051c810160208510610f4f575b601f830160051c82018110610f43575050610d8d565b60008155600101610f2d565b5080610f2d565b015190508880610d4c565b90600c850160005260206000209160005b601f1985168110610fbd57509183916001936101c09695601f19811610610fa4575b505050811b01600c840155610d64565b015160001960f88460031b161c19169055888080610f94565b91926020600181928685015181550194019201610f72565b600c85016000526020600020601f840160051c810160208510611015575b601f830160051c82018110611009575050610d2e565b60008155600101610ff3565b5080610ff3565b015190508780610cde565b9250600a85016000526020600020906000935b601f198416851061107e576001945083601f19811610611065575b505050811b01600a830155610cf6565b015160001960f88460031b161c19169055878080611055565b8181015183556020948501946001909301929091019061103a565b909150600a85016000526020600020601f840160051c8101602085106110e5575b90849392915b601f830160051c820181106110d6575050610cc7565b600081558594506001016110c0565b50806110ba565b015190508780610c80565b9250600985016000526020600020906000935b601f198416851061114e576001945083601f19811610611135575b505050811b016009830155610c98565b015160001960f88460031b161c19169055878080611125565b8181015183556020948501946001909301929091019061110a565b909150600985016000526020600020601f840160051c8101602085106111b5575b90849392915b601f830160051c820181106111a6575050610c69565b60008155859450600101611190565b508061118a565b015190508780610c22565b9250600885016000526020600020906000935b601f198416851061121e576001945083601f19811610611205575b505050811b016008830155610c3a565b015160001960f88460031b161c191690558780806111f5565b818101518355602094850194600190930192909101906111da565b909150600885016000526020600020601f840160051c810160208510611285575b90849392915b601f830160051c82018110611276575050610c0b565b60008155859450600101611260565b508061125a565b60405162461bcd60e51b815260206004820152603260248201527f4465636973696f6e4c6f676765723a20556e617574686f72697a6564206f72206044820152715265706c61796564205369676e617475726560701b6064820152608490fd5b90506020813d602011611327575b8161130b6020936102008401611ad0565b810103126101105761020001518015158103610110578b610a86565b3d91506112fa565b6040513d6000823e3d90fd5b60405162461bcd60e51b815260206004820152602860248201527f4465636973696f6e4c6f676765723a20696e76616c696420636f6e666964656e60448201526763652073636f726560c01b6064820152608490fd5b60405162461bcd60e51b815260206004820152601e60248201527f4465636973696f6e4c6f676765723a20696e76616c696420616374696f6e00006044820152606490fd5b60405162461bcd60e51b815260206004820152601c60248201527f4465636973696f6e4c6f676765723a20496e76616c69642075736572000000006044820152606490fd5b60405162461bcd60e51b815260206004820152602760248201527f4465636973696f6e4c6f676765723a206465636973696f6e20616c72656164796044820152662065786973747360c81b6064820152608490fd5b346101105760203660031901126101105760043560045481101561011057611499602091611c38565b90546040519160031b1c8152f35b34610110576020366003190112610110576114c0611a0d565b6114c8611e39565b6001600160a01b031680156114ef576001600160601b0360a01b6000541617600055600080f35b606460405162461bcd60e51b815260206004820152602060248201527f4465636973696f6e4c6f676765723a20496e76616c69642076657269666965726044820152fd5b34610110576000366003190112610110577f00000000000000000000000000000000000000000000000000000000000000006001600160a01b0316300361159e5760206040517f360894a13ba1a3210667c828492db98dca3e2076cc3735a920a3ca505d382bbc8152f35b60405163703e46dd60e11b8152600490fd5b6040366003190112610110576115c4611a0d565b6024356001600160401b038111610110576115e3903690600401611bf1565b906001600160a01b037f0000000000000000000000000000000000000000000000000000000000000000811630811490811561179f575b5061159e57611627611e39565b6040516352d1902d60e01b8152908216916020918281600481875afa60009181611770575b5061166a57604051634c9c8ce360e01b815260048101859052602490fd5b9284937f360894a13ba1a3210667c828492db98dca3e2076cc3735a920a3ca505d382bbc908181036117585750823b1561173f5780546001600160a01b03191682179055604051907fbc7cd75a20ee27fd9adebab32041f755214dbc6bffa90cc0225b39da2e5c2d3b600080a28351156117255750600080848461010e96519101845af4903d1561171c573d6116ff81611bd6565b9061170d6040519283611ad0565b8152600081943d92013e611eb3565b60609250611eb3565b925050503461173057005b63b398979f60e01b8152600490fd5b604051634c9c8ce360e01b815260048101839052602490fd5b60249060405190632a87526960e21b82526004820152fd5b9091508381813d8311611798575b6117888183611ad0565b810103126101105751908661164c565b503d61177e565b9050817f360894a13ba1a3210667c828492db98dca3e2076cc3735a920a3ca505d382bbc541614158461161a565b34610110576000366003190112610110576020600154604051908152f35b34610110576000366003190112610110576000546040516001600160a01b039091168152602090f35b34610110576040366003190112610110576103ce611836602435600435611cd7565b60405191829182611a23565b3461011057602036600319011261011057600480356000908152600260208190526040909120805460018201549282015460038301549483015460058401546006850154600786015493976001600160a01b039081169695939492811693911691906118b060088701611af1565b916118bd60098801611af1565b936118ca600a8901611af1565b95600b89015497600c8a016118de90611af1565b99600d016118eb90611af1565b9a604051809e819e6101e0988352602083015260ff81166040830152600160a01b600190039060081c16906060015260808d015260a08c015260c08b015260e08a015261010089015280610120890152870161194691611b96565b86810361014088015261195891611b96565b85810361016087015261196a91611b96565b906101808501528381036101a085015261198391611b96565b8281036101c08401526103ce91611b96565b34610110576020906020600319360112610110576001600160a01b036119b9611a0d565b166000526003602052604060002091825480835260208301936000526020600020916000905b8282106119f6576103ce8561183681890382611ad0565b8354865294850194600193840193909101906119df565b600435906001600160a01b038216820361011057565b602090602060408183019282815285518094520193019160005b828110611a4b575050505090565b835185529381019392810192600101611a3d565b90600182811c92168015611a8f575b6020831014611a7957565b634e487b7160e01b600052602260045260246000fd5b91607f1691611a6e565b6101e081019081106001600160401b0382111761061157604052565b604081019081106001600160401b0382111761061157604052565b90601f801991011681019081106001600160401b0382111761061157604052565b90604051918260008254611b0481611a5f565b90818452602094600191600181169081600014611b745750600114611b35575b505050611b3392500383611ad0565b565b600090815285812095935091905b818310611b5c575050611b339350820101388080611b24565b85548884018501529485019487945091830191611b43565b92505050611b3394925060ff191682840152151560051b820101388080611b24565b919082519283825260005b848110611bc2575050826000602080949584010152601f8019910116010190565b602081830181015184830182015201611ba1565b6001600160401b03811161061157601f01601f191660200190565b81601f8201121561011057803590611c0882611bd6565b92611c166040519485611ad0565b8284526020838301011161011057816000926020809301838601378301015290565b600454811015611c6f5760046000527f8a35acfbc15ff81a39ae7d344fd709f28e8600b4aa8c65c6b64bfe7fe36bd19b0190600090565b634e487b7160e01b600052603260045260246000fd5b8054821015611c6f5760005260206000200190600090565b6001600160401b0381116106115760051b60200190565b91908203918211611cc157565b634e487b7160e01b600052601160045260246000fd5b906004906004549081841015611d9957830190818411611cc157808211611d91575b50611d048382611cb4565b92611d27611d1185611c9d565b94611d1f6040519687611ad0565b808652611c9d565b60209190601f19013686840137805b838110611d4557505050505090565b611d4e81611c38565b9054611d5a8484611cb4565b918851831015611d7b5760031b1c60059190911b8701840152600101611d36565b634e487b7160e01b600090815260328952602490fd5b905038611cf9565b50505050604051602081018181106001600160401b038211176106115760405260008152600036813790565b6001600160a01b03908116908115611e2057600080516020611f1783398151915280546001600160a01b031981168417909155167f8be0079c531659141344cd1fd0a4f28419497f9722a3daafe3b4186f6b6457e0600080a3565b604051631e4fbdf760e01b815260006004820152602490fd5b600080516020611f17833981519152546001600160a01b03163303611e5a57565b60405163118cdaa760e01b8152336004820152602490fd5b60ff7ff0c57e16840df040f15088dc2f81fe391c3923bec73e23a9662efc9c229c6a005460401c1615611ea157565b604051631afcd79f60e31b8152600490fd5b90611eda5750805115611ec857602081519101fd5b60405163d6bda27560e01b8152600490fd5b81511580611f0d575b611eeb575090565b604051639996b31560e01b81526001600160a01b039091166004820152602490fd5b50803b15611ee356fe9016d09d72d40fdae2fd8ceac6b6234c7706214fd39c1cd1e609a0528c199300a2646970667358221220075a5e755cdcd20d0359a70e238642c3950d60932f1bb5dbe1017304308a155b64736f6c63430008180033",
  "linkReferences": {},
  "deployedLinkReferences": {}
}