{
  "_format": "hh-sol-artifact-1",
  "contractName": "DecisionVerifier",
  "sourceName": "contracts/DecisionVerifier.sol",
  "abi": [
    {
      "inputs": [],
      "stateMutability": "nonpayable",
      "type": "constructor"
    },
    {
      "inputs": [
        {
          "internalType": "address",
          "name": "target",
          "type": "address"
        }
      ],
      "name": "AddressEmptyCode",
      "type": "error"
    },
    {
      "inputs": [],
      "name": "ECDSAInvalidSignature",
      "type": "error"
    },
    {
      "inputs": [
        {
          "internalType": "uint256",
          "name": "length",
          "type": "uint256"
        }
      ],
      "name": "ECDSAInvalidSignatureLength",
      "type": "error"
    },
    {
      "inputs": [
        {
          "internalType": "bytes32",
          "name": "s",
          "type": "bytes32"
        }
      ],
      "name": "ECDSAInvalidSignatureS",
      "type": "error"
    },
    {
      "inputs": [
        {
          "internalType": "address",
          "name": "implementation",
          "type": "address"
        }
      ],
      "name": "ERC1967InvalidImplementation",
      "type": "error"
    },
    {
      "inputs": [],
      "name": "ERC1967NonPayable",
      "type": "error"
    },
    {
      "inputs": [],
      "name": "FailedCall",
      "type": "error"
    },
    {
      "inputs": [],
      "name": "InvalidInitialization",
      "type": "error"
    },
    {
      "inputs": [],
      "name": "NotInitializing",
      "type": "error"
    },
    {
      "inputs": [
        {
          "internalType": "address",
          "name": "owner",
          "type": "address"
        }
      ],
      "name": "OwnableInvalidOwner",
      "type": "error"
    },
    {
      "inputs": [
        {
          "internalType": "address",
          "name": "account",
          "type": "address"
        }
      ],
      "name": "OwnableUnauthorizedAccount",
      "type": "error"
    },
    {
      "inputs": [],
      "name": "UUPSUnauthorizedCallContext",
      "type": "error"
    },
    {
      "inputs": [
        {
          "internalType": "bytes32",
          "name": "slot",
          "type": "bytes32"
        }
      ],
      "name": "UUPSUnsupportedProxiableUUID",
      "type": "error"
    },
    {
      "anonymous": false,
      "inputs": [
        {
          "indexed": true,
          "internalType": "address",
          "name": "newVerifier",
          "type": "address"
        }
      ],
      "name": "AttestationVerifierUpdated",
      "type": "event"
    },
    {
      "anonymous": false,
      "inputs": [
        {
          "indexed": true,
          "internalType": "address",
          "name": "enclaveKey",
          "type": "address"
        },
        {
          "indexed": true,
          "internalType": "bytes32",
          "name": "mrenclave",
          "type": "bytes32"
        },
        {
          "indexed": false,
          "internalType": "uint256",
          "name": "expiry",
          "type": "uint256"
        }
      ],
      "name": "EnclaveRegistered",
      "type": "event"
    },
    {
      "anonymous": false,
      "inputs": [
        {
          "indexed": true,
          "internalType": "address",
          "name": "enclaveKey",
          "type": "address"
        }
      ],
      "name": "EnclaveRevoked",
      "type": "event"
    },
    {
      "anonymous": false,
      "inputs": [
        {
          "indexed": false,
          "internalType": "uint64",
          "name": "version",
          "type": "uint64"
        }
      ],
      "name": "Initialized",
      "type": "event"
    },
    {
      "anonymous": false,
      "inputs": [
        {
          "indexed": true,
          "internalType": "bytes32",
          "name": "mrenclave",
          "type": "bytes32"
        },
        {
          "indexed": false,
          "internalType": "bool",
          "name": "status",
          "type": "bool"
        }
      ],
      "name": "MrenclaveWhitelisted",
      "type": "event"
    },
    {
      "anonymous": false,
      "inputs": [
        {
          "indexed": true,
          "internalType": "address",
          "name": "previousOwner",
          "type": "address"
        },
        {
          "indexed": true,
          "internalType": "address",
          "name": "newOwner",
          "type": "address"
        }
      ],
      "name": "OwnershipTransferred",
      "type": "event"
    },
    {
      "anonymous": false,
      "inputs": [
        {
          "indexed": true,
          "internalType": "address",
          "name": "implementation",
          "type": "address"
        }
      ],
      "name": "Upgraded",
      "type": "event"
    },
    {
      "inputs": [],
      "name": "DOMAIN_SEPARATOR",
      "outputs": [
        {
          "internalType": "bytes32",
          "name": "",
          "type": "bytes32"
        }
      ],
      "stateMutability": "view",
      "type": "function"
    },
    {
      "inputs": [],
      "name": "UPGRADE_INTERFACE_VERSION",
      "outputs": [
        {
          "internalType": "string",
          "name": "",
          "type": "string"
        }
      ],
      "stateMutability": "view",
      "type": "function"
    },
    {
      "inputs": [
        {
          "internalType": "bytes32",
          "name": "",
          "type": "bytes32"
        }
      ],
      "name": "allowedMrenclaves",
      "outputs": [
        {
          "internalType": "bool",
          "name": "",
          "type": "bool"
        }
      ],
      "stateMutability": "view",
      "type": "function"
    },
    {
      "inputs": [],
      "name": "attestationVerifier",
      "outputs": [
        {
          "internalType": "address",
          "name": "",
          "type": "address"
        }
      ],
      "stateMutability": "view",
      "type": "function"
    },
    {
      "inputs": [
        {
          "internalType": "address",
          "name": "_attestationVerifier",
          "type": "address"
        }
      ],
      "name": "initialize",
      "outputs": [],
      "stateMutability": "nonpayable",
      "type": "function"
    },
    {
      "inputs": [],
      "name": "owner",
      "outputs": [
        {
          "internalType": "address",
          "name": "",
          "type": "address"
        }
      ],
      "stateMutability": "view",
      "type": "function"
    },
    {
      "inputs": [],
      "name": "proxiableUUID",
      "outputs": [
        {
          "internalType": "bytes32",
          "name": "",
          "type": "bytes32"
        }
      ],
      "stateMutability": "view",
      "type": "function"
    },
    {
      "inputs": [
        {
          "internalType": "address",
          "name": "enclaveKey",
          "type": "address"
        },
        {
          "internalType": "bytes32",
          "name": "mrenclave",
          "type": "bytes32"
        },
        {
          "internalType": "uint256",
          "name": "expiry",
          "type": "uint256"
        },
        {
          "internalType": "bytes",
          "name": "verifierSignature",
          "type": "bytes"
        }
      ],
      "name": "registerEnclave",
      "outputs": [],
      "stateMutability": "nonpayable",
      "type": "function"
    },
    {
      "inputs": [],
      "name": "renounceOwnership",
      "outputs": [],
      "stateMutability": "nonpayable",
      "type": "function"
    },
    {
      "inputs": [
        {
          "internalType": "address",
          "name": "enclaveKey",
          "type": "address"
        }
      ],
      "name": "revokeEnclave",
      "outputs": [],
      "stateMutability": "nonpayable",
      "type": "function"
    },
    {
      "inputs": [
        {
          "internalType": "address",
          "name": "",
          "type": "address"
        }
      ],
      "name": "revokedEnclaves",
      "outputs": [
        {
          "internalType": "bool",
          "name": "",
          "type": "bool"
        }
      ],
      "stateMutability": "view",
      "type": "function"
    },
    {
      "inputs": [
        {
          "internalType": "bytes32",
          "name": "mrenclave",
          "type": "bytes32"
        },
        {
          "internalType": "bool",
          "name": "allowed",
          "type": "bool"
        }
      ],
      "name": "setAllowedMrenclave",
      "outputs": [],
      "stateMutability": "nonpayable",
      "type": "function"
    },
    {
      "inputs": [
        {
          "internalType": "address",
          "name": "_attestationVerifier",
          "type": "address"
        }
      ],
      "name": "setAttestationVerifier",
      "outputs": [],
      "stateMutability": "nonpayable",
      "type": "function"
    },
    {
      "inputs": [
        {
          "internalType": "address",
          "name": "newOwner",
          "type": "address"
        }
      ],
      "name": "transferOwnership",
      "outputs": [],
      "stateMutability": "nonpayable",
      "type": "function"
    },
    {
      "inputs": [
        {
          "internalType": "address",
          "name": "newImplementation",
          "type": "address"
        },
        {
          "internalType": "bytes",
          "name": "data",
          "type": "bytes"
        }
      ],
      "name": "upgradeToAndCall",
      "outputs": [],
      "stateMutability": "payable",
      "type": "function"
    },
    {
      "inputs": [
        {
          "internalType": "bytes32",
          "name": "",
          "type": "bytes32"
        }
      ],
      "name": "usedDecisionHashes",
      "outputs": [
        {
          "internalType": "bool",
          "name": "",
          "type": "bool"
        }
      ],
      "stateMutability": "view",
      "type": "function"
    },
    {
      "inputs": [
        {
          "internalType": "address",
          "name": "",
          "type": "address"
        }
      ],
      "name": "verifiedEnclaves",
      "outputs": [
        {
          "internalType": "uint256",
          "name": "",
          "type": "uint256"
        }
      ],
      "stateMutability": "view",
      "type": "function"
    },
    {
      "inputs": [
        {
          "internalType": "bytes32",
          "name": "structHash",
          "type": "bytes32"
        },
        {
          "internalType": "bytes",
          "name": "signature",
          "type": "bytes"
        }
      ],
      "name": "verifyDecision",
      "outputs": [
        {
          "internalType": "bool",
          "name": "",
          "type": "bool"
        }
      ],
      "stateMutability": "nonpayable",
      "type": "function"
    }
  ],
  "bytecode": "0x60a080604052346100cc57306080527ff0c57e16840df040f15088dc2f81fe391c3923bec73e23a9662efc9c229c6a009081549060ff8260401c166100bd57506001600160401b036002600160401b031982821601610078575b60405161134a90816100d282396080518181816108ff01526109a30152f35b6001600160401b031990911681179091556040519081527fc7f505b2f371ae2175ee4913f4499e1f2633a7b5936321eed1cdaeb6115181d290602090a1388080610059565b63f92ee8a960e01b8152600490fd5b600080fdfe608060408181526004918236101561001657600080fd5b600092833560e01c91826306c47e9814610f565750816322fe1e5014610ee15781633644e51514610ec2578163442a1b9714610b985781634f1ef2861461096357816352d1902d146108ea578163715018a6146108805781638187d48d1461085457816382f6f6081461079c5781638d0958011461072f5781638da5cb5b146106f9578163a278e890146106c1578163a6c275e2146104af578163ad3cb1cc14610435578163b4b3c5a01461040d578163c4d66de81461015b57508063f2fde38b1461012b5763fb1b84e0146100eb57600080fd5b346101275760203660031901126101275760209160ff9082906001600160a01b03610114610f80565b1681526002855220541690519015158152f35b5080fd5b823461015857602036600319011261015857610155610148610f80565b6101506110c6565b611052565b80f35b80fd5b91905034610409576020908160031936011261040557610179610f80565b7ff0c57e16840df040f15088dc2f81fe391c3923bec73e23a9662efc9c229c6a009384549260ff84821c16159267ffffffffffffffff94858116801590816103fd575b60011490816103f3575b1590816103ea575b506103db5767ffffffffffffffff1981166001178855846103bc575b506101f36111c0565b6101fb6111c0565b61020433611052565b61020c6111c0565b6001600160a01b03168015610366576bffffffffffffffffffffffff60a01b8354161782556f2232b1b4b9b4b7b72b32b934b334b2b960811b85825161025181610f9b565b601081520152603160f81b85825161026881610f9b565b600181520152805190858201927f8b73c3c69bb8fe3d512ecc4cf759cc79239f7b179b0ffacaa9a75d522b39400f84527f580d016cbbd05d2a25f75086e95b5bc04533433082a29bd35436d48a0075dc86828401527fc89efdaa54c0f20c7adf612882df0950f5a951637e0307cdcb4c672f298b8bc660608401524660808401523060a084015260a0835260c0830195838710908711176103535750849052519020600555610315578380f35b7fc7f505b2f371ae2175ee4913f4499e1f2633a7b5936321eed1cdaeb6115181d29268ff000000000000000019815416905560018152a13880808380f35b634e487b7160e01b895260419052602488fd5b815162461bcd60e51b8152808401879052602a60248201527f4465636973696f6e56657269666965723a20496e76616c6964207665726966696044820152696572206164647265737360b01b6064820152608490fd5b68ffffffffffffffffff191668010000000000000001178755386101ea565b50505163f92ee8a960e01b8152fd5b905015386101ce565b303b1591506101c6565b8691506101bc565b8380fd5b8280fd5b9050346104095782600319360112610409575490516001600160a01b03909116815260209150f35b505034610127578160031936011261012757805161045281610f9b565b60058152602090640352e302e360dc1b6020820152825193849260208452825192836020860152825b84811061049957505050828201840152601f01601f19168101030190f35b818101830151888201880152879550820161047b565b83833461012757806003193601126101275782359160243567ffffffffffffffff8111610127576104e3903690860161100b565b928082526020936003855260ff848420541661066a5761052161052a91604260055487519061190160f01b82526002820152856022820152206110ff565b9092919261113b565b6001600160a01b03168015610629578083526002855260ff84842054166105d557825260018452828220544210156105785790829181526003845220600160ff198254161790555160018152f35b825162461bcd60e51b8152808601859052603160248201527f4465636973696f6e56657269666965723a20456e636c617665206e6f742076656044820152701c9a599a5959081bdc88195e1c1a5c9959607a1b6064820152608490fd5b835162461bcd60e51b8152808701869052602860248201527f4465636973696f6e56657269666965723a205369676e657220656e636c617665604482015267081c995d9bdad95960c21b6064820152608490fd5b606486868087519262461bcd60e51b845283015260248201527f4465636973696f6e56657269666965723a20496e76616c6964207369676e65726044820152fd5b835162461bcd60e51b8152808701869052602b60248201527f4465636973696f6e56657269666965723a204465636973696f6e20616c72656160448201526a191e481c995c1b185e595960aa1b6064820152608490fd5b5050346101275760203660031901126101275760209181906001600160a01b036106e9610f80565b1681526001845220549051908152f35b5050346101275781600319360112610127576000805160206112f58339815191525490516001600160a01b039091168152602090f35b905034610409578160031936011261040957359060243590811515809203610405577fdffa9c625b556f27192b57b656768abdb8c82e4937440898e1c9ef17675f19589160209161077e6110c6565b84865285835280862060ff1981541660ff841617905551908152a280f35b905034610409576020366003190112610409576107b7610f80565b6107bf6110c6565b6001600160a01b0316918215610807575080546001600160a01b031916821790557f1c5e76007fd03093bc99eeb725e205f42fe55d8ae04044202cf40c0d5b6f8c0d8280a280f35b906020608492519162461bcd60e51b8352820152602160248201527f4465636973696f6e56657269666965723a20496e76616c6964206164647265736044820152607360f81b6064820152fd5b905034610409576020366003190112610409578160209360ff9235815280855220541690519015158152f35b83346101585780600319360112610158576108996110c6565b6000805160206112f583398151915280546001600160a01b0319811690915581906001600160a01b03167f8be0079c531659141344cd1fd0a4f28419497f9722a3daafe3b4186f6b6457e08280a380f35b828434610158578060031936011261015857507f00000000000000000000000000000000000000000000000000000000000000006001600160a01b0316300361095657602090517f360894a13ba1a3210667c828492db98dca3e2076cc3735a920a3ca505d382bbc8152f35b5163703e46dd60e11b8152fd5b9180915060031936011261040957610979610f80565b9060243567ffffffffffffffff8111610b9457610999903690850161100b565b6001600160a01b037f00000000000000000000000000000000000000000000000000000000000000008116308114908115610b66575b50610b56576109dc6110c6565b82516352d1902d60e01b81529084169360209182818881895afa889181610b23575b50610a1a578451634c9c8ce360e01b8152808801879052602490fd5b7f360894a13ba1a3210667c828492db98dca3e2076cc3735a920a3ca505d382bbc96929591939690818103610b0d5750833b15610af65780546001600160a01b0319168217905583518792917fbc7cd75a20ee27fd9adebab32041f755214dbc6bffa90cc0225b39da2e5c2d3b8480a2865115610ad9575050808585610acb97519101845af4913d15610acf573d610abd610ab482610fef565b92519283610fcd565b81528581943d92013e611291565b5080f35b5060609250611291565b9450945050505034610aea57505080f35b63b398979f60e01b8152fd5b8451634c9c8ce360e01b8152808401839052602490fd5b83602491875191632a87526960e21b8352820152fd5b9091508381813d8311610b4f575b610b3b8183610fcd565b81010312610b4b575190386109fe565b8880fd5b503d610b31565b825163703e46dd60e11b81528590fd5b9050817f360894a13ba1a3210667c828492db98dca3e2076cc3735a920a3ca505d382bbc54161415386109cf565b8480fd5b8391503461012757608036600319011261012757610bb4610f80565b602493843592604491823591606480359467ffffffffffffffff95868111610ebe57610be3903690850161100b565b6001600160a01b0397881697908815610e6f57888b526020976002895260ff878d205416610e245742881115610dd5578a8c528b895260ff878d20541615610d8857865190898201907f12a3753ab95345ed9034045f606e5668859eca9f32b13b417c8e3caf71ec1c8482528b898401528c60608401528960808401526080835260a083019183831082841117610d765761012090838b5284519020936005549460c082019561190160f01b875260c283015260e282015260428452019082821090821117610d64578852519020610cc89291610cbf916110ff565b9093919361113b565b80855416911603610d0e57505050907fdc6d66d54845c14aac57ad7787b919e9f2f441039728b946fcf95ca9ae1f6678929184875260018352818188205551908152a380f35b907f4465636973696f6e56657269666965723a20496e76616c6964204174746573746e6174696f6e205369676e617475726560881b92602f8c89608498519762461bcd60e51b8952880152860152840152820152fd5b634e487b7160e01b8e52604188528e8efd5b634e487b7160e01b8f52604189528f8ffd5b505050907f4465636973696f6e56657269666965723a20496e76616c6964204d52454e434c6241564560e81b9260238c89608498519762461bcd60e51b8952880152860152840152820152fd5b505050907f4465636973696f6e56657269666965723a204174746573746174696f6e206578641c1a5c995960da1b9260258c89608498519762461bcd60e51b8952880152860152840152820152fd5b505050907f4465636973696f6e56657269666965723a20456e636c617665207265766f6b65601960fa1b9260218c89608498519762461bcd60e51b8952880152860152840152820152fd5b5050907f4465636973696f6e56657269666965723a20496e76616c696420656e636c61766465206b657960d81b9260258c6020608498519762461bcd60e51b8952880152860152840152820152fd5b8980fd5b5050346101275781600319360112610127576020906005549051908152f35b5050346101275760203660031901126101275781610efd610f80565b610f056110c6565b6001600160a01b031680825260026020908152838320805460ff191660019081179091559052918120557f014328d04215ef25a11c630f007f31516a065906981503bcb8cdf4998651c18b8280a280f35b92915034610405576020366003190112610405573583526003602090815292205460ff1615158152f35b600435906001600160a01b0382168203610f9657565b600080fd5b6040810190811067ffffffffffffffff821117610fb757604052565b634e487b7160e01b600052604160045260246000fd5b90601f8019910116810190811067ffffffffffffffff821117610fb757604052565b67ffffffffffffffff8111610fb757601f01601f191660200190565b81601f82011215610f965780359061102282610fef565b926110306040519485610fcd565b82845260208383010111610f9657816000926020809301838601378301015290565b6001600160a01b039081169081156110ad576000805160206112f583398151915280546001600160a01b031981168417909155167f8be0079c531659141344cd1fd0a4f28419497f9722a3daafe3b4186f6b6457e0600080a3565b604051631e4fbdf760e01b815260006004820152602490fd5b6000805160206112f5833981519152546001600160a01b031633036110e757565b60405163118cdaa760e01b8152336004820152602490fd5b81519190604183036111305761112992506020820151906060604084015193015160001a90611201565b9192909190565b505060009160029190565b60048110156111aa578061114d575050565b600181036111675760405163f645eedf60e01b8152600490fd5b600281036111885760405163fce698f760e01b815260048101839052602490fd5b6003146111925750565b602490604051906335e2f38360e21b82526004820152fd5b634e487b7160e01b600052602160045260246000fd5b60ff7ff0c57e16840df040f15088dc2f81fe391c3923bec73e23a9662efc9c229c6a005460401c16156111ef57565b604051631afcd79f60e31b8152600490fd5b91907f7fffffffffffffffffffffffffffffff5d576e7357a4501ddfe92f46681b20a0841161128557926020929160ff608095604051948552168484015260408301526060820152600092839182805260015afa156112795780516001600160a01b0381161561127057918190565b50809160019190565b604051903d90823e3d90fd5b50505060009160039190565b906112b857508051156112a657602081519101fd5b60405163d6bda27560e01b8152600490fd5b815115806112eb575b6112c9575090565b604051639996b31560e01b81526001600160a01b039091166004820152602490fd5b50803b156112c156fe9016d09d72d40fdae2fd8ceac6b6234c7706214fd39c1cd1e609a0528c199300a264697066735822122055080a2ddbef9cf178590594d2d61fa476e0f6d628a3b106600fd72b1035a8f864736f6c63430008180033",
  "linkReferences": {},
  "deployedLinkReferences": {}
}