{
  "_format": "hh-sol-artifact-1",
  "contractName": "FeeManager",
  "sourceName": "contracts/FeeManager.sol",
  "abi": [
    {
      "inputs": [],
      "stateMutability": "nonpayable",
      "type": "constructor"
    },
    {
      "inputs": [
        {
          "internalType": "address",
          "name": "target",
          "type": "address"
        }
      ],
      "name": "AddressEmptyCode",
      "type": "error"
    },
    {
      "inputs": [
        {
          "internalType": "address",
          "name": "implementation",
          "type": "address"
        }
      ],
      "name": "ERC1967InvalidImplementation",
      "type": "error"
    },
    {
      "inputs": [],
      "name": "ERC1967NonPayable",
      "type": "error"
    },
    {
      "inputs": [],
      "name": "FailedCall",
      "type": "error"
    },
    {
      "inputs": [],
      "name": "InvalidInitialization",
      "type": "error"
    },
    {
      "inputs": [],
      "name": "NotInitializing",
      "type": "error"
    },
    {
      "inputs": [
        {
          "internalType": "address",
          "name": "owner",
          "type": "address"
        }
      ],
      "name": "OwnableInvalidOwner",
      "type": "error"
    },
    {
      "inputs": [
        {
          "internalType": "address",
          "name": "account",
          "type": "address"
        }
      ],
      "name": "OwnableUnauthorizedAccount",
      "type": "error"
    },
    {
      "inputs": [],
      "name": "ReentrancyGuardReentrantCall",
      "type": "error"
    },
    {
      "inputs": [
        {
          "internalType": "address",
          "name": "token",
          "type": "address"
        }
      ],
      "name": "SafeERC20FailedOperation",
      "type": "error"
    },
    {
      "inputs": [],
      "name": "UUPSUnauthorizedCallContext",
      "type": "error"
    },
    {
      "inputs": [
        {
          "internalType": "bytes32",
          "name": "slot",
          "type": "bytes32"
        }
      ],
      "name": "UUPSUnsupportedProxiableUUID",
      "type": "error"
    },
    {
      "anonymous": false,
      "inputs": [
        {
          "indexed": false,
          "internalType": "uint64",
          "name": "version",
          "type": "uint64"
        }
      ],
      "name": "Initialized",
      "type": "event"
    },
    {
      "anonymous": false,
      "inputs": [
        {
          "indexed": true,
          "internalType": "address",
          "name": "user",
          "type": "address"
        },
        {
          "indexed": true,
          "internalType": "address",
          "name": "asset",
          "type": "address"
        },
        {
          "indexed": false,
          "internalType": "uint256",
          "name": "amount",
          "type": "uint256"
        }
      ],
      "name": "ManagementFeeCollected",
      "type": "event"
    },
    {
      "anonymous": false,
      "inputs": [
        {
          "indexed": true,
          "internalType": "address",
          "name": "previousOwner",
          "type": "address"
        },
        {
          "indexed": true,
          "internalType": "address",
          "name": "newOwner",
          "type": "address"
        }
      ],
      "name": "OwnershipTransferred",
      "type": "event"
    },
    {
      "anonymous": false,
      "inputs": [
        {
          "indexed": true,
          "internalType": "address",
          "name": "user",
          "type": "address"
        },
        {
          "indexed": true,
          "internalType": "address",
          "name": "asset",
          "type": "address"
        },
        {
          "indexed": false,
          "internalType": "uint256",
          "name": "profit",
          "type": "uint256"
        },
        {
          "indexed": false,
          "internalType": "uint256",
          "name": "fee",
          "type": "uint256"
        }
      ],
      "name": "PerformanceFeeCollected",
      "type": "event"
    },
    {
      "anonymous": false,
      "inputs": [
        {
          "indexed": true,
          "internalType": "address",
          "name": "oldTreasury",
          "type": "address"
        },
        {
          "indexed": true,
          "internalType": "address",
          "name": "newTreasury",
          "type": "address"
        }
      ],
      "name": "TreasuryUpdated",
      "type": "event"
    },
    {
      "anonymous": false,
      "inputs": [
        {
          "indexed": true,
          "internalType": "address",
          "name": "implementation",
          "type": "address"
        }
      ],
      "name": "Upgraded",
      "type": "event"
    },
    {
      "inputs": [],
      "name": "MANAGEMENT_FEE_BPS",
      "outputs": [
        {
          "internalType": "uint256",
          "name": "",
          "type": "uint256"
        }
      ],
      "stateMutability": "view",
      "type": "function"
    },
    {
      "inputs": [],
      "name": "PERFORMANCE_FEE_BPS",
      "outputs": [
        {
          "internalType": "uint256",
          "name": "",
          "type": "uint256"
        }
      ],
      "stateMutability": "view",
      "type": "function"
    },
    {
      "inputs": [],
      "name": "UPGRADE_INTERFACE_VERSION",
      "outputs": [
        {
          "internalType": "string",
          "name": "",
          "type": "string"
        }
      ],
      "stateMutability": "view",
      "type": "function"
    },
    {
      "inputs": [
        {
          "internalType": "address",
          "name": "user",
          "type": "address"
        },
        {
          "internalType": "address",
          "name": "asset",
          "type": "address"
        }
      ],
      "name": "collectManagementFee",
      "outputs": [
        {
          "internalType": "uint256",
          "name": "",
          "type": "uint256"
        }
      ],
      "stateMutability": "nonpayable",
      "type": "function"
    },
    {
      "inputs": [
        {
          "internalType": "address",
          "name": "user",
          "type": "address"
        },
        {
          "internalType": "address",
          "name": "asset",
          "type": "address"
        },
        {
          "internalType": "uint256",
          "name": "currentValueUSD",
          "type": "uint256"
        }
      ],
      "name": "collectPerformanceFee",
      "outputs": [
        {
          "internalType": "uint256",
          "name": "",
          "type": "uint256"
        }
      ],
      "stateMutability": "nonpayable",
      "type": "function"
    },
    {
      "inputs": [
        {
          "internalType": "address",
          "name": "user",
          "type": "address"
        },
        {
          "internalType": "address",
          "name": "asset",
          "type": "address"
        }
      ],
      "name": "getUserBalance",
      "outputs": [
        {
          "internalType": "uint256",
          "name": "",
          "type": "uint256"
        }
      ],
      "stateMutability": "view",
      "type": "function"
    },
    {
      "inputs": [
        {
          "internalType": "address",
          "name": "user",
          "type": "address"
        },
        {
          "internalType": "address",
          "name": "asset",
          "type": "address"
        }
      ],
      "name": "getUserEntryValue",
      "outputs": [
        {
          "internalType": "uint256",
          "name": "",
          "type": "uint256"
        }
      ],
      "stateMutability": "view",
      "type": "function"
    },
    {
      "inputs": [
        {
          "internalType": "address",
          "name": "_treasury",
          "type": "address"
        }
      ],
      "name": "initialize",
      "outputs": [],
      "stateMutability": "nonpayable",
      "type": "function"
    },
    {
      "inputs": [
        {
          "internalType": "address",
          "name": "",
          "type": "address"
        },
        {
          "internalType": "address",
          "name": "",
          "type": "address"
        }
      ],
      "name": "lastFeeTimestamp",
      "outputs": [
        {
          "internalType": "uint256",
          "name": "",
          "type": "uint256"
        }
      ],
      "stateMutability": "view",
      "type": "function"
    },
    {
      "inputs": [],
      "name": "owner",
      "outputs": [
        {
          "internalType": "address",
          "name": "",
          "type": "address"
        }
      ],
      "stateMutability": "view",
      "type": "function"
    },
    {
      "inputs": [],
      "name": "proxiableUUID",
      "outputs": [
        {
          "internalType": "bytes32",
          "name": "",
          "type": "bytes32"
        }
      ],
      "stateMutability": "view",
      "type": "function"
    },
    {
      "inputs": [
        {
          "internalType": "address",
          "name": "user",
          "type": "address"
        },
        {
          "internalType": "address",
          "name": "asset",
          "type": "address"
        },
        {
          "internalType": "uint256",
          "name": "amount",
          "type": "uint256"
        },
        {
          "internalType": "uint256",
          "name": "usdValue",
          "type": "uint256"
        }
      ],
      "name": "recordDeposit",
      "outputs": [],
      "stateMutability": "nonpayable",
      "type": "function"
    },
    {
      "inputs": [
        {
          "internalType": "address",
          "name": "user",
          "type": "address"
        },
        {
          "internalType": "address",
          "name": "asset",
          "type": "address"
        },
        {
          "internalType": "uint256",
          "name": "amount",
          "type": "uint256"
        }
      ],
      "name": "recordWithdrawal",
      "outputs": [],
      "stateMutability": "nonpayable",
      "type": "function"
    },
    {
      "inputs": [],
      "name": "renounceOwnership",
      "outputs": [],
      "stateMutability": "nonpayable",
      "type": "function"
    },
    {
      "inputs": [
        {
          "internalType": "address",
          "name": "_treasury",
          "type": "address"
        }
      ],
      "name": "setTreasury",
      "outputs": [],
      "stateMutability": "nonpayable",
      "type": "function"
    },
    {
      "inputs": [
        {
          "internalType": "address",
          "name": "newOwner",
          "type": "address"
        }
      ],
      "name": "transferOwnership",
      "outputs": [],
      "stateMutability": "nonpayable",
      "type": "function"
    },
    {
      "inputs": [],
      "name": "treasury",
      "outputs": [
        {
          "internalType": "address",
          "name": "",
          "type": "address"
        }
      ],
      "stateMutability": "view",
      "type": "function"
    },
    {
      "inputs": [
        {
          "internalType": "address",
          "name": "newImplementation",
          "type": "address"
        },
        {
          "internalType": "bytes",
          "name": "data",
          "type": "bytes"
        }
      ],
      "name": "upgradeToAndCall",
      "outputs": [],
      "stateMutability": "payable",
      "type": "function"
    },
    {
      "inputs": [
        {
          "internalType": "address",
          "name": "",
          "type": "address"
        },
        {
          "internalType": "address",
          "name": "",
          "type": "address"
        }
      ],
      "name": "userBalances",
      "outputs": [
        {
          "internalType": "uint256",
          "name": "",
          "type": "uint256"
        }
      ],
      "stateMutability": "view",
      "type": "function"
    },
    {
      "inputs": [
        {
          "internalType": "address",
          "name": "",
          "type": "address"
        },
        {
          "internalType": "address",
          "name": "",
          "type": "address"
        }
      ],
      "name": "userEntryValue",
      "outputs": [
        {
          "internalType": "uint256",
          "name": "",
          "type": "uint256"
        }
      ],
      "stateMutability": "view",
      "type": "function"
    }
  ],
  "bytecode": "0x60a080604052346100cc57306080527ff0c57e16840df040f15088dc2f81fe391c3923bec73e23a9662efc9c229c6a009081549060ff8260401c166100bd57506001600160401b036002600160401b031982821601610078575b60405161130f90816100d282396080518181816105b901526106980152f35b6001600160401b031990911681179091556040519081527fc7f505b2f371ae2175ee4913f4499e1f2633a7b5936321eed1cdaeb6115181d290602090a1388080610059565b63f92ee8a960e01b8152600490fd5b600080fdfe60406080815260048036101561001457600080fd5b600091823560e01c9182631a23030414610ccd5782631c10c61814610c0157826330c15ee5146108d057826346817e4e146108875782634f1ef2861461061d57826352d1902d146105a45782635a0c7c121461055f5782635b01e3741461054257826361d027b31461051a5782636805d6ad14610391578263715018a6146104b05782638da5cb5b1461047a578263ad3cb1cc146103da578263adb5198014610391578263bcf90d2b14610375578263c4d66de8146101ed57508163d1105eba146101a0578163d6968ae8146101a057508063f0f442601461012e5763f2fde38b146100ff57600080fd5b3461012b57602036600319011261012b5761012861011b610d0b565b6101236110d2565b61105e565b80f35b80fd5b503461012b57602036600319011261012b57610148610d0b565b6101506110d2565b6001600160a01b0390811690610167821515611006565b82546001600160a01b0319811683178455167f4ab5be82436d353e61ca18726e984e561f5c1cc7c6d38b29d2553c790434705a8380a380f35b9050346101e957806003193601126101e957806020926101be610d0b565b6101c6610d26565b6001600160a01b0391821683526002865283832091168252845220549051908152f35b5080fd5b9091503461037157602036600319011261037157610209610d0b565b907ff0c57e16840df040f15088dc2f81fe391c3923bec73e23a9662efc9c229c6a0091825460ff81861c16159267ffffffffffffffff821680159081610369575b600114908161035f575b159081610356575b50610348575067ffffffffffffffff198116600117845582610329575b506102826111f5565b61028a6111f5565b6102933361105e565b61029b6111f5565b6102a36111f5565b60016000805160206112ba833981519152556102bd6111f5565b6001600160a01b03166102d1811515611006565b84546001600160a01b0319161784556102e8578280f35b805468ff00000000000000001916905551600181527fc7f505b2f371ae2175ee4913f4499e1f2633a7b5936321eed1cdaeb6115181d290602090a138808280f35b68ffffffffffffffffff19166801000000000000000117835538610279565b855163f92ee8a960e01b8152fd5b9050153861025c565b303b159150610254565b85915061024a565b8280fd5b8382346101e957816003193601126101e9576020905160648152f35b8382346101e957806003193601126101e957806020926103af610d0b565b6103b7610d26565b6001600160a01b0391821683526001865283832091168252845220549051908152f35b909150346103715782600319360112610371578151908282019082821067ffffffffffffffff8311176104675750825260058152602090640352e302e360dc1b6020820152825193849260208452825192836020860152825b84811061045157505050828201840152601f01601f19168101030190f35b8181018301518882018801528795508201610433565b634e487b7160e01b855260419052602484fd5b8382346101e957816003193601126101e95760008051602061129a8339815191525490516001600160a01b039091168152602090f35b833461012b578060031936011261012b576104c96110d2565b60008051602061129a83398151915280546001600160a01b0319811690915581906001600160a01b03167f8be0079c531659141344cd1fd0a4f28419497f9722a3daafe3b4186f6b6457e08280a380f35b8382346101e957816003193601126101e957905490516001600160a01b039091168152602090f35b8382346101e957816003193601126101e957602090516107d08152f35b8382346101e95760209061058b61057536610d3c565b9161057e6110d2565b61058661110b565b610f44565b9060016000805160206112ba8339815191525551908152f35b90833461012b578060031936011261012b57507f00000000000000000000000000000000000000000000000000000000000000006001600160a01b0316300361061057602090517f360894a13ba1a3210667c828492db98dca3e2076cc3735a920a3ca505d382bbc8152f35b5163703e46dd60e11b8152fd5b91508060031936011261037157610632610d0b565b90602493843567ffffffffffffffff81116101e957366023820112156101e9578085013561065f81610da9565b9461066c85519687610d71565b81865260209182870193368a8383010111610883578186928b8693018737880101526001600160a01b037f00000000000000000000000000000000000000000000000000000000000000008116308114908115610855575b50610845576106d16110d2565b81169585516352d1902d60e01b815283818a818b5afa869181610812575b5061070b575050505050505191634c9c8ce360e01b8352820152fd5b9088888894938c7f360894a13ba1a3210667c828492db98dca3e2076cc3735a920a3ca505d382bbc918281036107fd5750853b156107e9575080546001600160a01b031916821790558451889392917fbc7cd75a20ee27fd9adebab32041f755214dbc6bffa90cc0225b39da2e5c2d3b8580a28251156107cb5750506107bd9582915190845af4913d156107c1573d6107af6107a682610da9565b92519283610d71565b81528581943d92013e611236565b5080f35b5060609250611236565b9550955050505050346107dd57505080f35b63b398979f60e01b8152fd5b8651634c9c8ce360e01b8152808501849052fd5b8751632a87526960e21b815280860191909152fd5b9091508481813d831161083e575b61082a8183610d71565b8101031261083a575190386106ef565b8680fd5b503d610820565b855163703e46dd60e11b81528890fd5b9050817f360894a13ba1a3210667c828492db98dca3e2076cc3735a920a3ca505d382bbc54161415386106c4565b8580fd5b8382346101e957806003193601126101e957806020926108a5610d0b565b6108ad610d26565b6001600160a01b0391821683526003865283832091168252845220549051908152f35b90915034610371576080366003190112610371576108ec610d0b565b906108f5610d26565b604492833560649485356109076110d2565b61090f61110b565b6001600160a01b0393841694909384918615610bc05716968715610b81578315610b425788516370a0823160e01b8082523089830152602098919089826024818e5afa918215610af6578d92610b13575b508b516323b872dd60e01b8b8201528960248201523087820152878582015284815260a0810181811067ffffffffffffffff821117610b00579160248e6109ae8f9695948f9583528761118d565b5180958193825230888301525afa8015610af6578d90610ac3575b6109d39250610dc5565b938415610a845750505084895260018652878920878a5286528789206109fa838254610f37565b9055818311610a70575b505050818652600283528486208487528352610a24858720918254610f37565b90558085526003825283852083865282528385205415610a55575b8460016000805160206112ba8339815191525580f35b84526003815282842091845252429082205538808080610a3f565b610a7b929350610de8565b04388080610a04565b8a5162461bcd60e51b8152918201899052601e60248301527f4665654d616e616765723a204e6f20746f6b656e73207265636569766564000090820152fd5b508982813d8311610aef575b610ad98183610d71565b81010312610aeb576109d391516109c9565b8c80fd5b503d610acf565b8c513d8f823e3d90fd5b634e487b7160e01b8f526041855260248ffd5b9091508981813d8311610b3b575b610b2b8183610d71565b81010312610aeb57519038610960565b503d610b21565b885162461bcd60e51b8152602081890152601e60248201527f4665654d616e616765723a20416d6f756e74206d757374206265203e2030000081850152fd5b885162461bcd60e51b8152602081890152601960248201527f4665654d616e616765723a20496e76616c69642061737365740000000000000081850152fd5b895162461bcd60e51b81526020818a0152601860248201527f4665654d616e616765723a20496e76616c696420757365720000000000000000818601528990fd5b8390346101e957610c1136610d3c565b92610c1a6110d2565b610c2261110b565b60018060a01b039081841690818752602092600184528888209416938488528352858888205410610c8c575090859691610c7796526001815281872090838852528520610c70848254610dc5565b905561113b565b60016000805160206112ba8339815191525580f35b60649083808a519262461bcd60e51b845283015260248201527f4665654d616e616765723a20696e73756666696369656e742062616c616e63656044820152fd5b8382346101e957806003193601126101e95760209061058b610ced610d0b565b610cf5610d26565b90610cfe6110d2565b610d0661110b565b610dfb565b600435906001600160a01b0382168203610d2157565b600080fd5b602435906001600160a01b0382168203610d2157565b6060906003190112610d21576001600160a01b03906004358281168103610d2157916024359081168103610d21579060443590565b90601f8019910116810190811067ffffffffffffffff821117610d9357604052565b634e487b7160e01b600052604160045260246000fd5b67ffffffffffffffff8111610d9357601f01601f191660200190565b91908203918211610dd257565b634e487b7160e01b600052601160045260246000fd5b81810292918115918404141715610dd257565b6001600160a01b03908116600081815260016020908152604080832095851680845295825280832054949594928315610f2d57848152600383528181208682528352818120548015610f2257610e519042610dc5565b60648502858104606403610f0e576301e1338091612710610e729204610de8565b049687948515159081610f03575b50610e90575b5050505050505090565b7fb46130b279b057e97e6b556f82eae25ad037b863a7220079669b3c354a6790a394610ebf918354168861113b565b848152600183528181208682528352818120610edc888254610dc5565b9055848152600383528181208682528352814291205551858152a338808281808080610e86565b905085111538610e80565b634e487b7160e01b83526011600452602483fd5b509550505050505090565b9550505050505090565b91908201809211610dd257565b60018060a01b0380911690600082815260026020526040918282209416938482526020528181205480861115610ffd57610f7e9086610dc5565b906107d0808302908382041483151715610fe9579083610fc66127107fc820a084f7d94c2ff4783f958809fb2de298f51a40d941493ef7d9c2ae66edc7969594048099610dc5565b91868152600260205281812088825260205220558151908152856020820152a390565b634e487b7160e01b82526011600452602482fd5b50935050505090565b1561100d57565b60405162461bcd60e51b8152602060048201526024808201527f4665654d616e616765723a20696e76616c6964207472656173757279206164646044820152637265737360e01b6064820152608490fd5b6001600160a01b039081169081156110b95760008051602061129a83398151915280546001600160a01b031981168417909155167f8be0079c531659141344cd1fd0a4f28419497f9722a3daafe3b4186f6b6457e0600080a3565b604051631e4fbdf760e01b815260006004820152602490fd5b60008051602061129a833981519152546001600160a01b031633036110f357565b60405163118cdaa760e01b8152336004820152602490fd5b6000805160206112ba83398151915260028154146111295760029055565b604051633ee5aeb560e01b8152600490fd5b60405163a9059cbb60e01b60208201526001600160a01b039092166024830152604480830193909352918152608081019167ffffffffffffffff831182841017610d935761118b9260405261118d565b565b906000602091828151910182855af1156111e9576000513d6111e057506001600160a01b0381163b155b6111be5750565b604051635274afe760e01b81526001600160a01b039091166004820152602490fd5b600114156111b7565b6040513d6000823e3d90fd5b60ff7ff0c57e16840df040f15088dc2f81fe391c3923bec73e23a9662efc9c229c6a005460401c161561122457565b604051631afcd79f60e31b8152600490fd5b9061125d575080511561124b57602081519101fd5b60405163d6bda27560e01b8152600490fd5b81511580611290575b61126e575090565b604051639996b31560e01b81526001600160a01b039091166004820152602490fd5b50803b1561126656fe9016d09d72d40fdae2fd8ceac6b6234c7706214fd39c1cd1e609a0528c1993009b779b17422d0df92223018b32b4d1fa46e071723d6817e2486d003becc55f00a26469706673582212200b5e975785880c0829a3cd36fab158da39760cdea9055e4dfe96d67be93e9f3c64736f6c63430008180033",
  "linkReferences": {},
  "deployedLinkReferences": {}
}