{
  "_format": "hh-sol-artifact-1",
  "contractName": "IdentityRegistry",
  "sourceName": "contracts/IdentityRegistry.sol",
  "abi": [
    {
      "inputs": [],
      "stateMutability": "nonpayable",
      "type": "constructor"
    },
    {
      "inputs": [],
      "name": "AddressAlreadyRegistered",
      "type": "error"
    },
    {
      "inputs": [
        {
          "internalType": "address",
          "name": "target",
          "type": "address"
        }
      ],
      "name": "AddressEmptyCode",
      "type": "error"
    },
    {
      "inputs": [],
      "name": "AgentNotFound",
      "type": "error"
    },
    {
      "inputs": [],
      "name": "DomainAlreadyRegistered",
      "type": "error"
    },
    {
      "inputs": [
        {
          "internalType": "address",
          "name": "implementation",
          "type": "address"
        }
      ],
      "name": "ERC1967InvalidImplementation",
      "type": "error"
    },
    {
      "inputs": [],
      "name": "ERC1967NonPayable",
      "type": "error"
    },
    {
      "inputs": [],
      "name": "FailedCall",
      "type": "error"
    },
    {
      "inputs": [],
      "name": "InvalidAddress",
      "type": "error"
    },
    {
      "inputs": [],
      "name": "InvalidDomain",
      "type": "error"
    },
    {
      "inputs": [],
      "name": "InvalidInitialization",
      "type": "error"
    },
    {
      "inputs": [],
      "name": "NotInitializing",
      "type": "error"
    },
    {
      "inputs": [
        {
          "internalType": "address",
          "name": "owner",
          "type": "address"
        }
      ],
      "name": "OwnableInvalidOwner",
      "type": "error"
    },
    {
      "inputs": [
        {
          "internalType": "address",
          "name": "account",
          "type": "address"
        }
      ],
      "name": "OwnableUnauthorizedAccount",
      "type": "error"
    },
    {
      "inputs": [],
      "name": "UUPSUnauthorizedCallContext",
      "type": "error"
    },
    {
      "inputs": [
        {
          "internalType": "bytes32",
          "name": "slot",
          "type": "bytes32"
        }
      ],
      "name": "UUPSUnsupportedProxiableUUID",
      "type": "error"
    },
    {
      "inputs": [],
      "name": "UnauthorizedRegistration",
      "type": "error"
    },
    {
      "inputs": [],
      "name": "UnauthorizedUpdate",
      "type": "error"
    },
    {
      "anonymous": false,
      "inputs": [
        {
          "indexed": true,
          "internalType": "uint256",
          "name": "agentId",
          "type": "uint256"
        },
        {
          "indexed": false,
          "internalType": "string",
          "name": "agentDomain",
          "type": "string"
        },
        {
          "indexed": false,
          "internalType": "address",
          "name": "agentAddress",
          "type": "address"
        }
      ],
      "name": "AgentRegistered",
      "type": "event"
    },
    {
      "anonymous": false,
      "inputs": [
        {
          "indexed": true,
          "internalType": "uint256",
          "name": "agentId",
          "type": "uint256"
        },
        {
          "indexed": false,
          "internalType": "string",
          "name": "agentDomain",
          "type": "string"
        },
        {
          "indexed": false,
          "internalType": "address",
          "name": "agentAddress",
          "type": "address"
        }
      ],
      "name": "AgentUpdated",
      "type": "event"
    },
    {
      "anonymous": false,
      "inputs": [
        {
          "indexed": false,
          "internalType": "uint64",
          "name": "version",
          "type": "uint64"
        }
      ],
      "name": "Initialized",
      "type": "event"
    },
    {
      "anonymous": false,
      "inputs": [
        {
          "indexed": true,
          "internalType": "address",
          "name": "previousOwner",
          "type": "address"
        },
        {
          "indexed": true,
          "internalType": "address",
          "name": "newOwner",
          "type": "address"
        }
      ],
      "name": "OwnershipTransferred",
      "type": "event"
    },
    {
      "anonymous": false,
      "inputs": [
        {
          "indexed": true,
          "internalType": "address",
          "name": "implementation",
          "type": "address"
        }
      ],
      "name": "Upgraded",
      "type": "event"
    },
    {
      "inputs": [],
      "name": "UPGRADE_INTERFACE_VERSION",
      "outputs": [
        {
          "internalType": "string",
          "name": "",
          "type": "string"
        }
      ],
      "stateMutability": "view",
      "type": "function"
    },
    {
      "inputs": [
        {
          "internalType": "uint256",
          "name": "agentId",
          "type": "uint256"
        }
      ],
      "name": "agentExists",
      "outputs": [
        {
          "internalType": "bool",
          "name": "exists",
          "type": "bool"
        }
      ],
      "stateMutability": "view",
      "type": "function"
    },
    {
      "inputs": [
        {
          "internalType": "uint256",
          "name": "agentId",
          "type": "uint256"
        }
      ],
      "name": "getAgent",
      "outputs": [
        {
          "components": [
            {
              "internalType": "uint256",
              "name": "agentId",
              "type": "uint256"
            },
            {
              "internalType": "string",
              "name": "agentDomain",
              "type": "string"
            },
            {
              "internalType": "address",
              "name": "agentAddress",
              "type": "address"
            }
          ],
          "internalType": "struct IIdentityRegistry.AgentInfo",
          "name": "agentInfo",
          "type": "tuple"
        }
      ],
      "stateMutability": "view",
      "type": "function"
    },
    {
      "inputs": [],
      "name": "getAgentCount",
      "outputs": [
        {
          "internalType": "uint256",
          "name": "count",
          "type": "uint256"
        }
      ],
      "stateMutability": "view",
      "type": "function"
    },
    {
      "inputs": [],
      "name": "initialize",
      "outputs": [],
      "stateMutability": "nonpayable",
      "type": "function"
    },
    {
      "inputs": [
        {
          "internalType": "string",
          "name": "agentDomain",
          "type": "string"
        },
        {
          "internalType": "address",
          "name": "agentAddress",
          "type": "address"
        }
      ],
      "name": "newAgent",
      "outputs": [
        {
          "internalType": "uint256",
          "name": "agentId",
          "type": "uint256"
        }
      ],
      "stateMutability": "nonpayable",
      "type": "function"
    },
    {
      "inputs": [],
      "name": "owner",
      "outputs": [
        {
          "internalType": "address",
          "name": "",
          "type": "address"
        }
      ],
      "stateMutability": "view",
      "type": "function"
    },
    {
      "inputs": [],
      "name": "proxiableUUID",
      "outputs": [
        {
          "internalType": "bytes32",
          "name": "",
          "type": "bytes32"
        }
      ],
      "stateMutability": "view",
      "type": "function"
    },
    {
      "inputs": [],
      "name": "renounceOwnership",
      "outputs": [],
      "stateMutability": "nonpayable",
      "type": "function"
    },
    {
      "inputs": [
        {
          "internalType": "address",
          "name": "agentAddress",
          "type": "address"
        }
      ],
      "name": "resolveByAddress",
      "outputs": [
        {
          "components": [
            {
              "internalType": "uint256",
              "name": "agentId",
              "type": "uint256"
            },
            {
              "internalType": "string",
              "name": "agentDomain",
              "type": "string"
            },
            {
              "internalType": "address",
              "name": "agentAddress",
              "type": "address"
            }
          ],
          "internalType": "struct IIdentityRegistry.AgentInfo",
          "name": "agentInfo",
          "type": "tuple"
        }
      ],
      "stateMutability": "view",
      "type": "function"
    },
    {
      "inputs": [
        {
          "internalType": "string",
          "name": "agentDomain",
          "type": "string"
        }
      ],
      "name": "resolveByDomain",
      "outputs": [
        {
          "components": [
            {
              "internalType": "uint256",
              "name": "agentId",
              "type": "uint256"
            },
            {
              "internalType": "string",
              "name": "agentDomain",
              "type": "string"
            },
            {
              "internalType": "address",
              "name": "agentAddress",
              "type": "address"
            }
          ],
          "internalType": "struct IIdentityRegistry.AgentInfo",
          "name": "agentInfo",
          "type": "tuple"
        }
      ],
      "stateMutability": "view",
      "type": "function"
    },
    {
      "inputs": [
        {
          "internalType": "address",
          "name": "newOwner",
          "type": "address"
        }
      ],
      "name": "transferOwnership",
      "outputs": [],
      "stateMutability": "nonpayable",
      "type": "function"
    },
    {
      "inputs": [
        {
          "internalType": "uint256",
          "name": "agentId",
          "type": "uint256"
        },
        {
          "internalType": "string",
          "name": "newAgentDomain",
          "type": "string"
        },
        {
          "internalType": "address",
          "name": "newAgentAddress",
          "type": "address"
        }
      ],
      "name": "updateAgent",
      "outputs": [
        {
          "internalType": "bool",
          "name": "success",
          "type": "bool"
        }
      ],
      "stateMutability": "nonpayable",
      "type": "function"
    },
    {
      "inputs": [
        {
          "internalType": "address",
          "name": "newImplementation",
          "type": "address"
        },
        {
          "internalType": "bytes",
          "name": "data",
          "type": "bytes"
        }
      ],
      "name": "upgradeToAndCall",
      "outputs": [],
      "stateMutability": "payable",
      "type": "function"
    }
  ],
  "bytecode": "0x60a080604052346100cc57306080527ff0c57e16840df040f15088dc2f81fe391c3923bec73e23a9662efc9c229c6a009081549060ff8260401c166100bd57506001600160401b036002600160401b031982821601610078575b60405161139b90816100d2823960805181818161047e01526105380152f35b6001600160401b031990911681179091556040519081527fc7f505b2f371ae2175ee4913f4499e1f2633a7b5936321eed1cdaeb6115181d290602090a1388080610059565b63f92ee8a960e01b8152600490fd5b600080fdfe6080604052600436101561001257600080fd5b60003560e01c80630c63810714610d975780632de5aaf714610d1a5780633bfbbad714610a625780634750d0fa146107175780634f1ef286146104e857806352d1902d1461046b578063715018a61461040157806378ddad12146103335780638129fc1c146101fe5780638da5cb5b146101c857806391cab63e14610187578063ad3cb1cc14610114578063de99f157146100e65763f2fde38b146100b657600080fd5b346100e15760203660031901126100e1576100df6100d2610e2c565b6100da611268565b6110ef565b005b600080fd5b346100e15760203660031901126100e157600435600052600160205260206040600020541515604051908152f35b346100e15760003660031901126100e157604051604081019080821067ffffffffffffffff8311176101715761016d9160405260058152640352e302e360dc1b6020820152604051918291602083526020830190610e65565b0390f35b634e487b7160e01b600052604160045260246000fd5b346100e15760003660031901126100e15760005460001981019081116101b257602090604051908152f35b634e487b7160e01b600052601160045260246000fd5b346100e15760003660031901126100e157600080516020611346833981519152546040516001600160a01b039091168152602090f35b346100e15760003660031901126100e1577ff0c57e16840df040f15088dc2f81fe391c3923bec73e23a9662efc9c229c6a00805460ff8160401c16159067ffffffffffffffff81168015908161032b575b6001149081610321575b159081610318575b506103065767ffffffffffffffff1981166001178355816102e7575b506102866112a1565b61028e6112a1565b610297336110ef565b61029f6112a1565b60016000556102aa57005b68ff00000000000000001981541690557fc7f505b2f371ae2175ee4913f4499e1f2633a7b5936321eed1cdaeb6115181d2602060405160018152a1005b68ffffffffffffffffff1916680100000000000000011782558261027d565b60405163f92ee8a960e01b8152600490fd5b90501584610261565b303b159150610259565b83915061024f565b346100e15760203660031901126100e15760043567ffffffffffffffff81116100e15761038261037d61036d610387933690600401610ec4565b610375610f83565b503691610f4c565b61118a565b611073565b5480156103ef57600052600160205261016d6040600020604051906103ab82610ef2565b805482526040516103ca816103c38160018601610fdd565b0382610f0e565b6020830152600201546001600160a01b03166040808301919091525191829182610e8a565b60405163e93ba22360e01b8152600490fd5b346100e15760003660031901126100e15761041a611268565b60008051602061134683398151915280546001600160a01b031981169091556000906001600160a01b03167f8be0079c531659141344cd1fd0a4f28419497f9722a3daafe3b4186f6b6457e08280a3005b346100e15760003660031901126100e1577f00000000000000000000000000000000000000000000000000000000000000006001600160a01b031630036104d65760206040517f360894a13ba1a3210667c828492db98dca3e2076cc3735a920a3ca505d382bbc8152f35b60405163703e46dd60e11b8152600490fd5b60403660031901126100e1576104fc610e2c565b60243567ffffffffffffffff81116100e157366023820112156100e15761052d903690602481600401359101610f4c565b906001600160a01b037f000000000000000000000000000000000000000000000000000000000000000081163081149081156106e9575b506104d657610571611268565b6040516352d1902d60e01b8152908216916020918281600481875afa600091816106ba575b506105b457604051634c9c8ce360e01b815260048101859052602490fd5b9284937f360894a13ba1a3210667c828492db98dca3e2076cc3735a920a3ca505d382bbc908181036106a25750823b156106895780546001600160a01b03191682179055604051907fbc7cd75a20ee27fd9adebab32041f755214dbc6bffa90cc0225b39da2e5c2d3b600080a283511561066f575060008084846100df96519101845af4903d15610666573d61064981610f30565b906106576040519283610f0e565b8152600081943d92013e6112e2565b606092506112e2565b925050503461067a57005b63b398979f60e01b8152600490fd5b604051634c9c8ce360e01b815260048101839052602490fd5b60249060405190632a87526960e21b82526004820152fd5b9091508381813d83116106e2575b6106d28183610f0e565b810103126100e157519086610596565b503d6106c8565b9050817f360894a13ba1a3210667c828492db98dca3e2076cc3735a920a3ca505d382bbc5416141584610564565b346100e15760403660031901126100e15760043567ffffffffffffffff81116100e157610748903690600401610ec4565b90602435906001600160a01b03821682036100e1576001600160a01b0382163303610a50578215610a3e576001600160a01b03821615610a2c5761079061037d368584610f4c565b9260405160208186516107a68183858b01610e42565b8101600281520301902054610a1a576001600160a01b038316600090815260036020526040902054610a08576000549160001983146101b25760018301600055604051946107f386610ef2565b838652610801368484610f4c565b956020810196875260018060a01b0386166040820152846000526001602052604060002096815188555196875167ffffffffffffffff81116101715760209861085a826108516001860154610fa3565b60018601611099565b8990601f8311600114610967578a60609689989660027faef1fcdf962a03943b677ae3b92ef1b34c972aeef794ed6e9ba5f599b461883b9b976108be8e9f988f9881906108fc9960009261095c575b50508160011b916000199060031b1c19161790565b60018201555b0190604060018060a01b03910151166bffffffffffffffffffffffff60a01b8254161790558160405193828580945193849201610e42565b810160028152030190205560018060a01b0381166000526003895286604060002055604051948593604085528160408601528585013760008383018501526001600160a01b031688830152601f01601f19168101030190a2604051908152f35b0151905038806108a9565b90600184016000528a6000209160005b601f19851681106109f1575060609689989660027faef1fcdf962a03943b677ae3b92ef1b34c972aeef794ed6e9ba5f599b461883b9b978f948e9f988f986108fc9860019383601f198116106109d8575b505050811b0160018201556108c4565b015160001960f88460031b161c191690553880806109c8565b91928c600181928685015181550194019201610977565b6040516316a163b960e11b8152600490fd5b604051637b857a6b60e01b8152600490fd5b60405163e6c4247b60e01b8152600490fd5b6040516375893cc160e11b8152600490fd5b6040516313444ccd60e11b8152600490fd5b346100e15760603660031901126100e15767ffffffffffffffff6024358181116100e157610a94903690600401610ec4565b9091604435916001600160a01b03831683036100e15760043560005260016020526040600020938454156103ef5760028501546001600160a01b03163303610d085781610bb4575b5050506001600160a01b038116610b4f575b507f1b37db56c92268433e33fda6783791cb9e5f8ffababd3952ab40716443f1bf8960018060a01b0360028301541691610b3660405191604083526001604084019101610fdd565b92602082015280600435930390a2602060405160018152f35b6001600160a01b038116600090815260036020526040902054610a08576002820180546001600160a01b0390811660009081526003602052604080822082905583546001600160a01b0319169490921693841790925591815220600435905581610aee565b610bc261037d368484610f4c565b926040516020818651610bd88183858b01610e42565b8101600281520301902054610a1a576000610c05610382600161037d8a6103c36040518094819301610fdd565b55821161017157610c2682610c1d6001880154610fa3565b60018801611099565b600090601f8311600114610c9757610c56929160009183610c8c5750508160011b916000199060031b1c19161790565b60018401555b6020610c716040519283815193849201610e42565b81019060028252602081600435930301902055828080610adc565b0135905086806108a9565b600186939293016000526020600020906000935b601f1984168510610cf0576001945083601f19811610610cd6575b505050811b016001840155610c5c565b0135600019600384901b60f8161c19169055858080610cc6565b81810135835560209485019460019093019201610cab565b604051634f1f214760e01b8152600490fd5b346100e15760203660031901126100e157610d33610f83565b506004356000526001602052604060002060405190610d5182610ef2565b80548252604051610d69816103c38160018601610fdd565b6020830152600201546001600160a01b031660408201528051156103ef5761016d9060405191829182610e8a565b346100e15760203660031901126100e157610db0610e2c565b610db8610f83565b506001600160a01b039081166000908152600360205260409020549081156103ef5761016d916000526001602052604060002090600260405192610dfb84610ef2565b80548452604051610e13816103c38160018601610fdd565b6020850152015416604082015260405191829182610e8a565b600435906001600160a01b03821682036100e157565b60005b838110610e555750506000910152565b8181015183820152602001610e45565b90602091610e7e81518092818552858086019101610e42565b601f01601f1916010190565b60208152815160208201526060610eaf60208401518260408501526080840190610e65565b6040909301516001600160a01b031691015290565b9181601f840112156100e15782359167ffffffffffffffff83116100e157602083818601950101116100e157565b6060810190811067ffffffffffffffff82111761017157604052565b90601f8019910116810190811067ffffffffffffffff82111761017157604052565b67ffffffffffffffff811161017157601f01601f191660200190565b929192610f5882610f30565b91610f666040519384610f0e565b8294818452818301116100e1578281602093846000960137010152565b60405190610f9082610ef2565b6000604083828152606060208201520152565b90600182811c92168015610fd3575b6020831014610fbd57565b634e487b7160e01b600052602260045260246000fd5b91607f1691610fb2565b805460009392610fec82610fa3565b918282526020936001916001811690816000146110545750600114611013575b5050505050565b90939495506000929192528360002092846000945b8386106110405750505050010190388080808061100c565b805485870183015294019385908201611028565b60ff19168685015250505090151560051b01019150388080808061100c565b602061108c918160405193828580945193849201610e42565b8101600281520301902090565b90601f81116110a757505050565b6000916000526020600020906020601f850160051c830194106110e5575b601f0160051c01915b8281106110da57505050565b8181556001016110ce565b90925082906110c5565b6001600160a01b0390811690811561114a5760008051602061134683398151915280546001600160a01b031981168417909155167f8be0079c531659141344cd1fd0a4f28419497f9722a3daafe3b4186f6b6457e0600080a3565b604051631e4fbdf760e01b815260006004820152602490fd5b908151811015611174570160200190565b634e487b7160e01b600052603260045260246000fd5b9081516111af61119982610f30565b916111a76040519384610f0e565b808352610f30565b602090601f1901368383013760005b8451811015611261576001600160f81b031990604160f81b826111e18389611163565b5116101580611247575b15611225576111fa8187611163565b51918360f893841c0160ff81116101b2576001931b1660001a61121d8286611163565b535b016111be565b6001916112328288611163565b511660001a6112418286611163565b5361121f565b50602d60f91b826112588389611163565b511611156111eb565b5090925050565b600080516020611346833981519152546001600160a01b0316330361128957565b60405163118cdaa760e01b8152336004820152602490fd5b60ff7ff0c57e16840df040f15088dc2f81fe391c3923bec73e23a9662efc9c229c6a005460401c16156112d057565b604051631afcd79f60e31b8152600490fd5b9061130957508051156112f757602081519101fd5b60405163d6bda27560e01b8152600490fd5b8151158061133c575b61131a575090565b604051639996b31560e01b81526001600160a01b039091166004820152602490fd5b50803b1561131256fe9016d09d72d40fdae2fd8ceac6b6234c7706214fd39c1cd1e609a0528c199300a26469706673582212201df5c1fad54c8f55a78c9593f0c7588080d22c0e1af841276c6a1aae4d5a647f64736f6c63430008180033",
  "linkReferences": {},
  "deployedLinkReferences": {}
}