{
  "_format": "hh-sol-artifact-1",
  "contractName": "PortfolioManager",
  "sourceName": "contracts/PortfolioManager.sol",
  "abi": [
    {
      "inputs": [],
      "stateMutability": "nonpayable",
      "type": "constructor"
    },
    {
      "inputs": [
        {
          "internalType": "address",
          "name": "target",
          "type": "address"
        }
      ],
      "name": "AddressEmptyCode",
      "type": "error"
    },
    {
      "inputs": [
        {
          "internalType": "address",
          "name": "implementation",
          "type": "address"
        }
      ],
      "name": "ERC1967InvalidImplementation",
      "type": "error"
    },
    {
      "inputs": [],
      "name": "ERC1967NonPayable",
      "type": "error"
    },
    {
      "inputs": [],
      "name": "FailedCall",
      "type": "error"
    },
    {
      "inputs": [],
      "name": "InvalidInitialization",
      "type": "error"
    },
    {
      "inputs": [],
      "name": "NotInitializing",
      "type": "error"
    },
    {
      "inputs": [
        {
          "internalType": "address",
          "name": "owner",
          "type": "address"
        }
      ],
      "name": "OwnableInvalidOwner",
      "type": "error"
    },
    {
      "inputs": [
        {
          "internalType": "address",
          "name": "account",
          "type": "address"
        }
      ],
      "name": "OwnableUnauthorizedAccount",
      "type": "error"
    },
    {
      "inputs": [],
      "name": "ReentrancyGuardReentrantCall",
      "type": "error"
    },
    {
      "inputs": [],
      "name": "UUPSUnauthorizedCallContext",
      "type": "error"
    },
    {
      "inputs": [
        {
          "internalType": "bytes32",
          "name": "slot",
          "type": "bytes32"
        }
      ],
      "name": "UUPSUnsupportedProxiableUUID",
      "type": "error"
    },
    {
      "anonymous": false,
      "inputs": [
        {
          "indexed": false,
          "internalType": "uint64",
          "name": "version",
          "type": "uint64"
        }
      ],
      "name": "Initialized",
      "type": "event"
    },
    {
      "anonymous": false,
      "inputs": [
        {
          "indexed": true,
          "internalType": "address",
          "name": "previousOwner",
          "type": "address"
        },
        {
          "indexed": true,
          "internalType": "address",
          "name": "newOwner",
          "type": "address"
        }
      ],
      "name": "OwnershipTransferred",
      "type": "event"
    },
    {
      "anonymous": false,
      "inputs": [
        {
          "indexed": true,
          "internalType": "address",
          "name": "user",
          "type": "address"
        },
        {
          "indexed": false,
          "internalType": "uint256",
          "name": "totalValueUSD",
          "type": "uint256"
        }
      ],
      "name": "PortfolioValueUpdated",
      "type": "event"
    },
    {
      "anonymous": false,
      "inputs": [
        {
          "indexed": true,
          "internalType": "address",
          "name": "user",
          "type": "address"
        },
        {
          "indexed": true,
          "internalType": "address",
          "name": "asset",
          "type": "address"
        },
        {
          "indexed": true,
          "internalType": "address",
          "name": "protocol",
          "type": "address"
        },
        {
          "indexed": false,
          "internalType": "uint256",
          "name": "amount",
          "type": "uint256"
        }
      ],
      "name": "PositionAdded",
      "type": "event"
    },
    {
      "anonymous": false,
      "inputs": [
        {
          "indexed": true,
          "internalType": "address",
          "name": "user",
          "type": "address"
        },
        {
          "indexed": true,
          "internalType": "address",
          "name": "asset",
          "type": "address"
        },
        {
          "indexed": true,
          "internalType": "address",
          "name": "protocol",
          "type": "address"
        }
      ],
      "name": "PositionRemoved",
      "type": "event"
    },
    {
      "anonymous": false,
      "inputs": [
        {
          "indexed": true,
          "internalType": "address",
          "name": "user",
          "type": "address"
        },
        {
          "indexed": true,
          "internalType": "address",
          "name": "asset",
          "type": "address"
        },
        {
          "indexed": true,
          "internalType": "address",
          "name": "protocol",
          "type": "address"
        },
        {
          "indexed": false,
          "internalType": "uint256",
          "name": "amount",
          "type": "uint256"
        }
      ],
      "name": "PositionUpdated",
      "type": "event"
    },
    {
      "anonymous": false,
      "inputs": [
        {
          "indexed": true,
          "internalType": "address",
          "name": "implementation",
          "type": "address"
        }
      ],
      "name": "Upgraded",
      "type": "event"
    },
    {
      "inputs": [],
      "name": "UPGRADE_INTERFACE_VERSION",
      "outputs": [
        {
          "internalType": "string",
          "name": "",
          "type": "string"
        }
      ],
      "stateMutability": "view",
      "type": "function"
    },
    {
      "inputs": [
        {
          "internalType": "address",
          "name": "user",
          "type": "address"
        },
        {
          "internalType": "address",
          "name": "asset",
          "type": "address"
        },
        {
          "internalType": "address",
          "name": "protocol",
          "type": "address"
        },
        {
          "internalType": "uint256",
          "name": "amount",
          "type": "uint256"
        },
        {
          "internalType": "uint256",
          "name": "valueUSD",
          "type": "uint256"
        },
        {
          "internalType": "uint256",
          "name": "riskScore",
          "type": "uint256"
        },
        {
          "internalType": "uint256",
          "name": "yieldAPY",
          "type": "uint256"
        }
      ],
      "name": "addPosition",
      "outputs": [],
      "stateMutability": "nonpayable",
      "type": "function"
    },
    {
      "inputs": [],
      "name": "decisionLogger",
      "outputs": [
        {
          "internalType": "contract DecisionLogger",
          "name": "",
          "type": "address"
        }
      ],
      "stateMutability": "view",
      "type": "function"
    },
    {
      "inputs": [],
      "name": "feeManager",
      "outputs": [
        {
          "internalType": "contract FeeManager",
          "name": "",
          "type": "address"
        }
      ],
      "stateMutability": "view",
      "type": "function"
    },
    {
      "inputs": [
        {
          "internalType": "address",
          "name": "user",
          "type": "address"
        }
      ],
      "name": "getUserPositions",
      "outputs": [
        {
          "components": [
            {
              "internalType": "address",
              "name": "asset",
              "type": "address"
            },
            {
              "internalType": "address",
              "name": "protocol",
              "type": "address"
            },
            {
              "internalType": "uint256",
              "name": "amount",
              "type": "uint256"
            },
            {
              "internalType": "uint256",
              "name": "entryValueUSD",
              "type": "uint256"
            },
            {
              "internalType": "uint256",
              "name": "currentValueUSD",
              "type": "uint256"
            },
            {
              "internalType": "uint256",
              "name": "riskScore",
              "type": "uint256"
            },
            {
              "internalType": "uint256",
              "name": "yieldAPY",
              "type": "uint256"
            }
          ],
          "internalType": "struct PortfolioManager.Position[]",
          "name": "",
          "type": "tuple[]"
        }
      ],
      "stateMutability": "view",
      "type": "function"
    },
    {
      "inputs": [
        {
          "internalType": "address",
          "name": "user",
          "type": "address"
        }
      ],
      "name": "getUserTotalValue",
      "outputs": [
        {
          "internalType": "uint256",
          "name": "",
          "type": "uint256"
        }
      ],
      "stateMutability": "view",
      "type": "function"
    },
    {
      "inputs": [
        {
          "internalType": "address",
          "name": "_feeManager",
          "type": "address"
        },
        {
          "internalType": "address",
          "name": "_decisionLogger",
          "type": "address"
        }
      ],
      "name": "initialize",
      "outputs": [],
      "stateMutability": "nonpayable",
      "type": "function"
    },
    {
      "inputs": [],
      "name": "owner",
      "outputs": [
        {
          "internalType": "address",
          "name": "",
          "type": "address"
        }
      ],
      "stateMutability": "view",
      "type": "function"
    },
    {
      "inputs": [],
      "name": "proxiableUUID",
      "outputs": [
        {
          "internalType": "bytes32",
          "name": "",
          "type": "bytes32"
        }
      ],
      "stateMutability": "view",
      "type": "function"
    },
    {
      "inputs": [
        {
          "internalType": "address",
          "name": "user",
          "type": "address"
        },
        {
          "internalType": "uint256",
          "name": "positionIndex",
          "type": "uint256"
        }
      ],
      "name": "removePosition",
      "outputs": [],
      "stateMutability": "nonpayable",
      "type": "function"
    },
    {
      "inputs": [],
      "name": "renounceOwnership",
      "outputs": [],
      "stateMutability": "nonpayable",
      "type": "function"
    },
    {
      "inputs": [
        {
          "internalType": "address",
          "name": "newOwner",
          "type": "address"
        }
      ],
      "name": "transferOwnership",
      "outputs": [],
      "stateMutability": "nonpayable",
      "type": "function"
    },
    {
      "inputs": [
        {
          "internalType": "address",
          "name": "user",
          "type": "address"
        },
        {
          "internalType": "uint256",
          "name": "positionIndex",
          "type": "uint256"
        },
        {
          "internalType": "uint256",
          "name": "newAmount",
          "type": "uint256"
        },
        {
          "internalType": "uint256",
          "name": "newValueUSD",
          "type": "uint256"
        },
        {
          "internalType": "uint256",
          "name": "newRiskScore",
          "type": "uint256"
        },
        {
          "internalType": "uint256",
          "name": "newYieldAPY",
          "type": "uint256"
        }
      ],
      "name": "updatePosition",
      "outputs": [],
      "stateMutability": "nonpayable",
      "type": "function"
    },
    {
      "inputs": [
        {
          "internalType": "address",
          "name": "newImplementation",
          "type": "address"
        },
        {
          "internalType": "bytes",
          "name": "data",
          "type": "bytes"
        }
      ],
      "name": "upgradeToAndCall",
      "outputs": [],
      "stateMutability": "payable",
      "type": "function"
    },
    {
      "inputs": [
        {
          "internalType": "address",
          "name": "",
          "type": "address"
        },
        {
          "internalType": "uint256",
          "name": "",
          "type": "uint256"
        }
      ],
      "name": "userPositions",
      "outputs": [
        {
          "internalType": "address",
          "name": "asset",
          "type": "address"
        },
        {
          "internalType": "address",
          "name": "protocol",
          "type": "address"
        },
        {
          "internalType": "uint256",
          "name": "amount",
          "type": "uint256"
        },
        {
          "internalType": "uint256",
          "name": "entryValueUSD",
          "type": "uint256"
        },
        {
          "internalType": "uint256",
          "name": "currentValueUSD",
          "type": "uint256"
        },
        {
          "internalType": "uint256",
          "name": "riskScore",
          "type": "uint256"
        },
        {
          "internalType": "uint256",
          "name": "yieldAPY",
          "type": "uint256"
        }
      ],
      "stateMutability": "view",
      "type": "function"
    },
    {
      "inputs": [
        {
          "internalType": "address",
          "name": "",
          "type": "address"
        }
      ],
      "name": "userTotalValueUSD",
      "outputs": [
        {
          "internalType": "uint256",
          "name": "",
          "type": "uint256"
        }
      ],
      "stateMutability": "view",
      "type": "function"
    }
  ],
  "bytecode": "0x60a080604052346100cc57306080527ff0c57e16840df040f15088dc2f81fe391c3923bec73e23a9662efc9c229c6a009081549060ff8260401c166100bd57506001600160401b036002600160401b031982821601610078575b60405161137190816100d282396080518181816109540152610a330152f35b6001600160401b031990911681179091556040519081527fc7f505b2f371ae2175ee4913f4499e1f2633a7b5936321eed1cdaeb6115181d290602090a1388080610059565b63f92ee8a960e01b8152600490fd5b600080fdfe60806040908082526004918236101561001757600080fd5b60009260e0843560e01c938463065aa00714610fa5575083632a6bc2dd14610e7357508263485cc95514610c1e5782634f1ef286146109b857826352d1902d1461093f5782635e1b4d99146108a6578263715018a61461083c5782638da5cb5b14610806578263a4b423c6146107dd578263ad3cb1cc1461073d578263af3f5e2214610705578263b5eea234146104c7578263c891ba251461023f578263d0fb020314610213578263ef7378d51461010957505063f2fde38b146100da57600080fd5b34610106576020366003190112610106576101036100f6610fda565b6100fe61121e565b6111aa565b80f35b80fd5b9091503461020f5760c036600319011261020f576101ad8260008051602061131c833981519152926101da867f0e681e8967f193bab387e28b71168e03f46a1bfe1531c96d5155a888322dad2161015e610fda565b602435906101df6044359660643596879161017761121e565b60018060a01b038095169d888f809a5260209d8e9860028a5261019e848420548210611140565b8b835260028a5283832061108f565b509a8b9384018d600282549601555560843560058c015560a43560068c015589815260038852205461119d565b61111d565b848c5260038352878c205560018186541695015416948651908152a483855260038252808520549051908152a280f35b8280fd5b83823461023b578160031936011261023b57905490516001600160a01b039091168152602090f35b5080fd5b9091503461020f578160031936011261020f5761025a610fda565b9060249283359061026961121e565b60018060a01b038094169485875260029360209480865261028e848a20548610611140565b8789528086526102a96102a386868c2061108f565b506110c1565b946080860151898b52600388526102c4868c2091825461119d565b9055888a52818752848a205460001991908281019081116104b5578a81888e93850361041c575b5050915052818752848a20908154801561040a57019161030b838361108f565b9190916103f9576006828d809897969594938180955581600184015582015582600382015582868201558260058201550155558683541687865116918587015190823b156103eb57858b9360649382968a51988997889663038218c360e31b885287015285015260448401525af180156103ef576103d7575b5050838360008051602061131c8339815191529584511693015116815192867ffe5c2834f6f9b81b46d1871c46af5a9e702f58150e12474ac0942da7935d38948980a4848652600383528520548152a280f35b6103e09061103d565b6103eb578538610384565b8580fd5b83513d84823e3d90fd5b634e487b7160e01b8c528b8552858cfd5b634e487b7160e01b8c5260318552858cfd5b8361042f9361043f9552878d522061108f565b50918b8d52848a52878d2061108f565b9190916103f957808203610457575b8a8c91886102eb565b6006818b829354166001600160601b0360a01b908186541617855560018501908d600184015416908254161790558581015486850155600381015460038501558681015487850155600581015460058501550154910155388061044e565b634e487b7160e01b8c5260118552858cfd5b83823461023b5760e036600319011261023b576104e2610fda565b906104eb610ff5565b6001600160a01b03919060443583811691908290036103eb5760643596846084359661051561121e565b16958688526020956002875285892093818751916105328361100b565b16948582528882018781528883018d815260608401868152608085019187835260a086019360a435855260c087019560c4358752805490680100000000000000008210156106ef579061058a9160018201815561108f565b9790976106db579088600697969594939251166001600160601b0360a01b90818a54161789558960018a0192511690825416179055516002870155516003860155518785015551600584015551910155878952600387528589206105ef83825461111d565b905588541690813b156106d75760848a938a80948b948a5197889687956330c15ee560e01b8752860152896024860152604485015260648401525af180156106cd57610686575b50847fcf2d74ee8e5cfaa5cef9b1a861cd32cd09fcf166fb4b6c6986c6cbc85a5dff858560008051602061131c8339815191529798998651908152a483855260038252808520549051908152a280f35b947fcf2d74ee8e5cfaa5cef9b1a861cd32cd09fcf166fb4b6c6986c6cbc85a5dff858582986106c360008051602061131c8339815191529961103d565b9897505050610636565b84513d89823e3d90fd5b8880fd5b5050634e487b7160e01b8f528e895260248ffd5b50505060248f60418b634e487b7160e01b835252fd5b83823461023b57602036600319011261023b5760209181906001600160a01b0361072d610fda565b1681526003845220549051908152f35b9091503461020f578260031936011261020f578151908282019082821067ffffffffffffffff8311176107ca5750825260058152602090640352e302e360dc1b6020820152825193849260208452825192836020860152825b8481106107b457505050828201840152601f01601f19168101030190f35b8181018301518882018801528795508201610796565b634e487b7160e01b855260419052602484fd5b83823461023b578160031936011261023b5760015490516001600160a01b039091168152602090f35b83823461023b578160031936011261023b576000805160206112fc8339815191525490516001600160a01b039091168152602090f35b833461010657806003193601126101065761085561121e565b6000805160206112fc83398151915280546001600160a01b0319811690915581906001600160a01b03167f8be0079c531659141344cd1fd0a4f28419497f9722a3daafe3b4186f6b6457e08280a380f35b9091503461020f578160031936011261020f576108c1610fda565b6001600160a01b039081168452600260205282842080546024359592949290861015610106575060e0946108f49161108f565b50908382541693600183015416926002830154600384015491840154926006600586015495015495815197885260208801528601526060850152608084015260a083015260c0820152f35b908334610106578060031936011261010657507f00000000000000000000000000000000000000000000000000000000000000006001600160a01b031630036109ab57602090517f360894a13ba1a3210667c828492db98dca3e2076cc3735a920a3ca505d382bbc8152f35b5163703e46dd60e11b8152fd5b91508060031936011261020f576109cd610fda565b90602493843567ffffffffffffffff811161023b573660238201121561023b57808501356109fa81611073565b94610a0785519687611051565b81865260209182870193368a83830101116103eb578186928b8693018737880101526001600160a01b037f00000000000000000000000000000000000000000000000000000000000000008116308114908115610bf0575b50610be057610a6c61121e565b81169585516352d1902d60e01b815283818a818b5afa869181610bad575b50610aa6575050505050505191634c9c8ce360e01b8352820152fd5b9088888894938c7f360894a13ba1a3210667c828492db98dca3e2076cc3735a920a3ca505d382bbc91828103610b985750853b15610b84575080546001600160a01b031916821790558451889392917fbc7cd75a20ee27fd9adebab32041f755214dbc6bffa90cc0225b39da2e5c2d3b8580a2825115610b66575050610b589582915190845af4913d15610b5c573d610b4a610b4182611073565b92519283611051565b81528581943d92013e611298565b5080f35b5060609250611298565b955095505050505034610b7857505080f35b63b398979f60e01b8152fd5b8651634c9c8ce360e01b8152808501849052fd5b8751632a87526960e21b815280860191909152fd5b9091508481813d8311610bd9575b610bc58183611051565b81010312610bd557519038610a8a565b8680fd5b503d610bbb565b855163703e46dd60e11b81528890fd5b9050817f360894a13ba1a3210667c828492db98dca3e2076cc3735a920a3ca505d382bbc5416141538610a5f565b9091503461020f578160031936011261020f57610c39610fda565b610c41610ff5565b907ff0c57e16840df040f15088dc2f81fe391c3923bec73e23a9662efc9c229c6a009283549260ff84871c16159267ffffffffffffffff851694851580610e6c575b60018097149081610e62575b159081610e59575b50610e495767ffffffffffffffff1981168617875584610e2a575b50610cbb611257565b610cc3611257565b610ccc336111aa565b610cd4611257565b610cdc611257565b847f9b779b17422d0df92223018b32b4d1fa46e071723d6817e2486d003becc55f0055610d07611257565b6001600160a01b03908116918215610dd95716918215610d8457506001600160601b0360a01b9081885416178755835416178255610d43578380f35b7fc7f505b2f371ae2175ee4913f4499e1f2633a7b5936321eed1cdaeb6115181d29260209268ff000000000000000019815416905551908152a13880808380f35b608490602088519162461bcd60e51b8352820152602960248201527f506f7274666f6c696f4d616e616765723a20696e76616c69642064656369736960448201526837b7103637b3b3b2b960b91b6064820152fd5b875162461bcd60e51b8152602081860152602560248201527f506f7274666f6c696f4d616e616765723a20696e76616c696420666565206d616044820152643730b3b2b960d91b6064820152608490fd5b68ffffffffffffffffff19166801000000000000000117865538610cb2565b875163f92ee8a960e01b81528490fd5b90501538610c97565b303b159150610c8f565b5084610c83565b925083346101065760209081600319360112610106576001600160a01b039485610e9b610fda565b168252600283528482209586549467ffffffffffffffff8611610f925750939194869391815193610ed1848260051b0186611051565b8085528385018096895284892089915b838310610f63575050505081519583870194848852518095528287019597925b858410610f0e5787870388f35b8851805183168852808601518316888701528082015188830152606080820151908901526080808201519089015260a0808201519089015260c090810151908801529784019795820195600190930192610f01565b600787600192610f7b859e9a9b9c9e9d98999d6110c1565b815201920192019190999796959998949398610ee1565b634e487b7160e01b845260419052602483fd5b935050503461020f57602036600319011261020f576020926001600160a01b03610fcd610fda565b1681526003845220548152f35b600435906001600160a01b0382168203610ff057565b600080fd5b602435906001600160a01b0382168203610ff057565b60e0810190811067ffffffffffffffff82111761102757604052565b634e487b7160e01b600052604160045260246000fd5b67ffffffffffffffff811161102757604052565b90601f8019910116810190811067ffffffffffffffff82111761102757604052565b67ffffffffffffffff811161102757601f01601f191660200190565b80548210156110ab576000526007602060002091020190600090565b634e487b7160e01b600052603260045260246000fd5b906040516110ce8161100b565b82546001600160a01b0390811682526001840154166020820152600283015460408201526003830154606082015260048301546080820152600583015460a082015260069092015460c0830152565b9190820180921161112a57565b634e487b7160e01b600052601160045260246000fd5b1561114757565b60405162461bcd60e51b815260206004820152602860248201527f506f7274666f6c696f4d616e616765723a20696e76616c696420706f736974696044820152670dedc40d2dcc8caf60c31b6064820152608490fd5b9190820391821161112a57565b6001600160a01b03908116908115611205576000805160206112fc83398151915280546001600160a01b031981168417909155167f8be0079c531659141344cd1fd0a4f28419497f9722a3daafe3b4186f6b6457e0600080a3565b604051631e4fbdf760e01b815260006004820152602490fd5b6000805160206112fc833981519152546001600160a01b0316330361123f57565b60405163118cdaa760e01b8152336004820152602490fd5b60ff7ff0c57e16840df040f15088dc2f81fe391c3923bec73e23a9662efc9c229c6a005460401c161561128657565b604051631afcd79f60e31b8152600490fd5b906112bf57508051156112ad57602081519101fd5b60405163d6bda27560e01b8152600490fd5b815115806112f2575b6112d0575090565b604051639996b31560e01b81526001600160a01b039091166004820152602490fd5b50803b156112c856fe9016d09d72d40fdae2fd8ceac6b6234c7706214fd39c1cd1e609a0528c199300a2e55c88bead4c884e56c7e5c6fa7e8378588a689a4bbf2176da62e97b56df52a26469706673582212209e2526bdeb31448fa5435f18eb3ad610c50a303bc81a7fe0502fd139eb6b01e464736f6c63430008180033",
  "linkReferences": {},
  "deployedLinkReferences": {}
}