{
  "_format": "hh-sol-artifact-1",
  "contractName": "ReputationRegistry",
  "sourceName": "contracts/ReputationRegistry.sol",
  "abi": [
    {
      "inputs": [],
      "stateMutability": "nonpayable",
      "type": "constructor"
    },
    {
      "inputs": [
        {
          "internalType": "address",
          "name": "target",
          "type": "address"
        }
      ],
      "name": "AddressEmptyCode",
      "type": "error"
    },
    {
      "inputs": [],
      "name": "AgentNotFound",
      "type": "error"
    },
    {
      "inputs": [
        {
          "internalType": "address",
          "name": "implementation",
          "type": "address"
        }
      ],
      "name": "ERC1967InvalidImplementation",
      "type": "error"
    },
    {
      "inputs": [],
      "name": "ERC1967NonPayable",
      "type": "error"
    },
    {
      "inputs": [],
      "name": "FailedCall",
      "type": "error"
    },
    {
      "inputs": [],
      "name": "FeedbackAlreadyAuthorized",
      "type": "error"
    },
    {
      "inputs": [],
      "name": "InvalidAgentId",
      "type": "error"
    },
    {
      "inputs": [],
      "name": "InvalidInitialization",
      "type": "error"
    },
    {
      "inputs": [],
      "name": "NotInitializing",
      "type": "error"
    },
    {
      "inputs": [
        {
          "internalType": "address",
          "name": "owner",
          "type": "address"
        }
      ],
      "name": "OwnableInvalidOwner",
      "type": "error"
    },
    {
      "inputs": [
        {
          "internalType": "address",
          "name": "account",
          "type": "address"
        }
      ],
      "name": "OwnableUnauthorizedAccount",
      "type": "error"
    },
    {
      "inputs": [],
      "name": "SelfFeedbackNotAllowed",
      "type": "error"
    },
    {
      "inputs": [],
      "name": "UUPSUnauthorizedCallContext",
      "type": "error"
    },
    {
      "inputs": [
        {
          "internalType": "bytes32",
          "name": "slot",
          "type": "bytes32"
        }
      ],
      "name": "UUPSUnsupportedProxiableUUID",
      "type": "error"
    },
    {
      "inputs": [],
      "name": "UnauthorizedFeedback",
      "type": "error"
    },
    {
      "anonymous": false,
      "inputs": [
        {
          "indexed": true,
          "internalType": "uint256",
          "name": "agentClientId",
          "type": "uint256"
        },
        {
          "indexed": true,
          "internalType": "uint256",
          "name": "agentServerId",
          "type": "uint256"
        },
        {
          "indexed": true,
          "internalType": "bytes32",
          "name": "feedbackAuthId",
          "type": "bytes32"
        }
      ],
      "name": "AuthFeedback",
      "type": "event"
    },
    {
      "anonymous": false,
      "inputs": [
        {
          "indexed": false,
          "internalType": "uint64",
          "name": "version",
          "type": "uint64"
        }
      ],
      "name": "Initialized",
      "type": "event"
    },
    {
      "anonymous": false,
      "inputs": [
        {
          "indexed": true,
          "internalType": "address",
          "name": "previousOwner",
          "type": "address"
        },
        {
          "indexed": true,
          "internalType": "address",
          "name": "newOwner",
          "type": "address"
        }
      ],
      "name": "OwnershipTransferred",
      "type": "event"
    },
    {
      "anonymous": false,
      "inputs": [
        {
          "indexed": true,
          "internalType": "address",
          "name": "implementation",
          "type": "address"
        }
      ],
      "name": "Upgraded",
      "type": "event"
    },
    {
      "inputs": [],
      "name": "UPGRADE_INTERFACE_VERSION",
      "outputs": [
        {
          "internalType": "string",
          "name": "",
          "type": "string"
        }
      ],
      "stateMutability": "view",
      "type": "function"
    },
    {
      "inputs": [
        {
          "internalType": "uint256",
          "name": "agentClientId",
          "type": "uint256"
        },
        {
          "internalType": "uint256",
          "name": "agentServerId",
          "type": "uint256"
        }
      ],
      "name": "acceptFeedback",
      "outputs": [],
      "stateMutability": "nonpayable",
      "type": "function"
    },
    {
      "inputs": [
        {
          "internalType": "uint256",
          "name": "agentClientId",
          "type": "uint256"
        },
        {
          "internalType": "uint256",
          "name": "agentServerId",
          "type": "uint256"
        }
      ],
      "name": "getFeedbackAuthId",
      "outputs": [
        {
          "internalType": "bytes32",
          "name": "feedbackAuthId",
          "type": "bytes32"
        }
      ],
      "stateMutability": "view",
      "type": "function"
    },
    {
      "inputs": [],
      "name": "identityRegistry",
      "outputs": [
        {
          "internalType": "contract IIdentityRegistry",
          "name": "",
          "type": "address"
        }
      ],
      "stateMutability": "view",
      "type": "function"
    },
    {
      "inputs": [
        {
          "internalType": "address",
          "name": "_identityRegistry",
          "type": "address"
        }
      ],
      "name": "initialize",
      "outputs": [],
      "stateMutability": "nonpayable",
      "type": "function"
    },
    {
      "inputs": [
        {
          "internalType": "uint256",
          "name": "agentClientId",
          "type": "uint256"
        },
        {
          "internalType": "uint256",
          "name": "agentServerId",
          "type": "uint256"
        }
      ],
      "name": "isFeedbackAuthorized",
      "outputs": [
        {
          "internalType": "bool",
          "name": "isAuthorized",
          "type": "bool"
        },
        {
          "internalType": "bytes32",
          "name": "feedbackAuthId",
          "type": "bytes32"
        }
      ],
      "stateMutability": "view",
      "type": "function"
    },
    {
      "inputs": [],
      "name": "owner",
      "outputs": [
        {
          "internalType": "address",
          "name": "",
          "type": "address"
        }
      ],
      "stateMutability": "view",
      "type": "function"
    },
    {
      "inputs": [],
      "name": "proxiableUUID",
      "outputs": [
        {
          "internalType": "bytes32",
          "name": "",
          "type": "bytes32"
        }
      ],
      "stateMutability": "view",
      "type": "function"
    },
    {
      "inputs": [],
      "name": "renounceOwnership",
      "outputs": [],
      "stateMutability": "nonpayable",
      "type": "function"
    },
    {
      "inputs": [
        {
          "internalType": "address",
          "name": "newOwner",
          "type": "address"
        }
      ],
      "name": "transferOwnership",
      "outputs": [],
      "stateMutability": "nonpayable",
      "type": "function"
    },
    {
      "inputs": [
        {
          "internalType": "address",
          "name": "newImplementation",
          "type": "address"
        },
        {
          "internalType": "bytes",
          "name": "data",
          "type": "bytes"
        }
      ],
      "name": "upgradeToAndCall",
      "outputs": [],
      "stateMutability": "payable",
      "type": "function"
    }
  ],
  "bytecode": "0x60a080604052346100cc57306080527ff0c57e16840df040f15088dc2f81fe391c3923bec73e23a9662efc9c229c6a009081549060ff8260401c166100bd57506001600160401b036002600160401b031982821601610078575b604051610c4e90816100d282396080518181816106f501526107d40152f35b6001600160401b031990911681179091556040519081527fc7f505b2f371ae2175ee4913f4499e1f2633a7b5936321eed1cdaeb6115181d290602090a1388080610059565b63f92ee8a960e01b8152600490fd5b600080fdfe60806040908082526004918236101561001757600080fd5b600092833560e01c928363134e18f4146109c3575082634f1ef2861461075957826352d1902d146106e0578263715018a6146106765782638524d9881461036a5782638da5cb5b14610334578263a9f94015146102e0578263aab206a3146102b0578263ad3cb1cc1461022d578263c4d66de8146100cf57505063f2fde38b146100a057600080fd5b346100cc5760203660031901126100cc576100c96100bc6109e7565b6100c4610b1b565b610aa7565b80f35b80fd5b90915034610229576020366003190112610229576100eb6109e7565b907ff0c57e16840df040f15088dc2f81fe391c3923bec73e23a9662efc9c229c6a0091825460ff81861c16159267ffffffffffffffff821680159081610221575b6001149081610217575b15908161020e575b50610200575067ffffffffffffffff1981166001178455826101e1575b50610164610b54565b61016c610b54565b61017533610aa7565b61017d610b54565b84546001600160a01b0319166001600160a01b03919091161784556101a0578280f35b805468ff00000000000000001916905551600181527fc7f505b2f371ae2175ee4913f4499e1f2633a7b5936321eed1cdaeb6115181d290602090a138808280f35b68ffffffffffffffffff1916680100000000000000011783553861015b565b855163f92ee8a960e01b8152fd5b9050153861013e565b303b159150610136565b85915061012c565b8280fd5b9083346100cc57806003193601126100cc578151908282019082821067ffffffffffffffff83111761029d575061028f935082526005815260208101640352e302e360dc1b815282519384926020845251809281602086015285850190610a6c565b601f01601f19168101030190f35b634e487b7160e01b815260418552602490fd5b8382346102dc57806020926102c436610a56565b90825260028552828220908252845220549051908152f35b5080fd5b5082346100cc576102f036610a56565b90825260026020528282209082526020528181205482811515928361031e575b505191151582526020820152f35b8281526001602052205460ff1691508284610310565b8382346102dc57816003193601126102dc57600080516020610bf98339815191525490516001600160a01b039091168152602090f35b909150346102295761037b36610a56565b8454845163de99f15760e01b808252818601859052929460209390926001600160a01b039290831691908581602481865afa90811561066c578a9161064f575b501561063f57875190815286848201528481602481855afa908115610635578991610608575b50156105f8576024888892835192838092632de5aaf760e01b82528b898301525afa9081156105ee57899161050c575b5001511633036104fe578383146104f057828652600282528486208487528252848620546104e25784518281019184835285878301524260608301524460808301523360601b60a08301526094825260c082019082821067ffffffffffffffff8311176104cf5750865251902093849182875260018152818720600160ff198254161790558387526002815281872090858852528520557f875b92862bcb577e19434ed5238b2e5a1b58bd8606a26d1a414edf00eee18fd88480a480f35b634e487b7160e01b895260419052602488fd5b845163093898f360e31b8152fd5b84516339a2a7d960e21b8152fd5b84516329f221b760e11b8152fd5b9150503d8089833e61051e8183610a02565b810184828203126105cb57815167ffffffffffffffff928382116105d357016060818303126105ea5788519260608401848110828211176105d7578a5281518452868201519081116105d35781019180601f840112156105d35782519261058484610a3a565b916105918c519384610a02565b8483528885830101116105cf578a936105af91898085019101610a6c565b8684015201519082821682036105cb5787918282015238610411565b8880fd5b8b80fd5b8a80fd5b634e487b7160e01b8c526041875260248cfd5b8980fd5b82513d8b823e3d90fd5b865163e93ba22360e01b81528390fd5b6106289150853d871161062e575b6106208183610a02565b810190610a8f565b386103e1565b503d610616565b88513d8b823e3d90fd5b875163e93ba22360e01b81528490fd5b6106669150863d881161062e576106208183610a02565b386103bb565b89513d8c823e3d90fd5b83346100cc57806003193601126100cc5761068f610b1b565b600080516020610bf983398151915280546001600160a01b0319811690915581906001600160a01b03167f8be0079c531659141344cd1fd0a4f28419497f9722a3daafe3b4186f6b6457e08280a380f35b9083346100cc57806003193601126100cc57507f00000000000000000000000000000000000000000000000000000000000000006001600160a01b0316300361074c57602090517f360894a13ba1a3210667c828492db98dca3e2076cc3735a920a3ca505d382bbc8152f35b5163703e46dd60e11b8152fd5b9150806003193601126102295761076e6109e7565b90602493843567ffffffffffffffff81116102dc57366023820112156102dc578085013561079b81610a3a565b946107a885519687610a02565b81865260209182870193368a83830101116109bf578186928b8693018737880101526001600160a01b037f00000000000000000000000000000000000000000000000000000000000000008116308114908115610991575b506109815761080d610b1b565b81169585516352d1902d60e01b815283818a818b5afa86918161094e575b50610847575050505050505191634c9c8ce360e01b8352820152fd5b9088888894938c7f360894a13ba1a3210667c828492db98dca3e2076cc3735a920a3ca505d382bbc918281036109395750853b15610925575080546001600160a01b031916821790558451889392917fbc7cd75a20ee27fd9adebab32041f755214dbc6bffa90cc0225b39da2e5c2d3b8580a28251156109075750506108f99582915190845af4913d156108fd573d6108eb6108e282610a3a565b92519283610a02565b81528581943d92013e610b95565b5080f35b5060609250610b95565b95509550505050503461091957505080f35b63b398979f60e01b8152fd5b8651634c9c8ce360e01b8152808501849052fd5b8751632a87526960e21b815280860191909152fd5b9091508481813d831161097a575b6109668183610a02565b810103126109765751903861082b565b8680fd5b503d61095c565b855163703e46dd60e11b81528890fd5b9050817f360894a13ba1a3210667c828492db98dca3e2076cc3735a920a3ca505d382bbc5416141538610800565b8580fd5b8490346102dc57816003193601126102dc5790546001600160a01b03168152602090f35b600435906001600160a01b03821682036109fd57565b600080fd5b90601f8019910116810190811067ffffffffffffffff821117610a2457604052565b634e487b7160e01b600052604160045260246000fd5b67ffffffffffffffff8111610a2457601f01601f191660200190565b60409060031901126109fd576004359060243590565b60005b838110610a7f5750506000910152565b8181015183820152602001610a6f565b908160209103126109fd575180151581036109fd5790565b6001600160a01b03908116908115610b0257600080516020610bf983398151915280546001600160a01b031981168417909155167f8be0079c531659141344cd1fd0a4f28419497f9722a3daafe3b4186f6b6457e0600080a3565b604051631e4fbdf760e01b815260006004820152602490fd5b600080516020610bf9833981519152546001600160a01b03163303610b3c57565b60405163118cdaa760e01b8152336004820152602490fd5b60ff7ff0c57e16840df040f15088dc2f81fe391c3923bec73e23a9662efc9c229c6a005460401c1615610b8357565b604051631afcd79f60e31b8152600490fd5b90610bbc5750805115610baa57602081519101fd5b60405163d6bda27560e01b8152600490fd5b81511580610bef575b610bcd575090565b604051639996b31560e01b81526001600160a01b039091166004820152602490fd5b50803b15610bc556fe9016d09d72d40fdae2fd8ceac6b6234c7706214fd39c1cd1e609a0528c199300a2646970667358221220dd0c9032cdc89e97888697341e2a6726cc42110923fe57362ef18f1c4174933764736f6c63430008180033",
  "linkReferences": {},
  "deployedLinkReferences": {}
}