{
    "_format": "hh-sol-artifact-1",
    "contractName": "DecisionLogger",
    "sourceName": "contracts/DecisionLogger.sol",
    "abi": [
        {
            "inputs": [
                {
                    "internalType": "bytes32",
                    "name": "decisionId",
                    "type": "bytes32"
                }
            ],
            "name": "DecisionAlreadyLogged",
            "type": "error"
        },
        {
            "inputs": [
                {
                    "internalType": "address",
                    "name": "signer",
                    "type": "address"
                }
            ],
            "name": "InvalidSigner",
            "type": "error"
        },
        {
            "anonymous": false,
            "inputs": [
                {
                    "indexed": true,
                    "internalType": "bytes32",
                    "name": "decisionId",
                    "type": "bytes32"
                },
                {
                    "indexed": true,
                    "internalType": "bytes32",
                    "name": "decisionHash",
                    "type": "bytes32"
                },
                {
                    "indexed": true,
                    "internalType": "address",
                    "name": "backendSigner",
                    "type": "address"
                },
                {
                    "indexed": false,
                    "internalType": "uint256",
                    "name": "timestamp",
                    "type": "uint256"
                },
                {
                    "indexed": false,
                    "internalType": "uint256",
                    "name": "ftsoRoundId",
                    "type": "uint256"
                },
                {
                    "indexed": false,
                    "internalType": "bytes32",
                    "name": "fdcProofHash",
                    "type": "bytes32"
                }
            ],
            "name": "DecisionLogged",
            "type": "event"
        },
        {
            "inputs": [
                {
                    "internalType": "bytes32",
                    "name": "",
                    "type": "bytes32"
                }
            ],
            "name": "decisions",
            "outputs": [
                {
                    "internalType": "bytes32",
                    "name": "decisionId",
                    "type": "bytes32"
                },
                {
                    "internalType": "bytes32",
                    "name": "decisionHash",
                    "type": "bytes32"
                },
                {
                    "internalType": "bytes32",
                    "name": "modelHash",
                    "type": "bytes32"
                },
                {
                    "internalType": "uint256",
                    "name": "ftsoRoundId",
                    "type": "uint256"
                },
                {
                    "internalType": "bytes32",
                    "name": "fdcProofHash",
                    "type": "bytes32"
                },
                {
                    "internalType": "uint256",
                    "name": "timestamp",
                    "type": "uint256"
                },
                {
                    "internalType": "address",
                    "name": "backendSigner",
                    "type": "address"
                }
            ],
            "stateMutability": "view",
            "type": "function"
        },
        {
            "inputs": [
                {
                    "internalType": "bytes32",
                    "name": "_decisionId",
                    "type": "bytes32"
                }
            ],
            "name": "getDecision",
            "outputs": [
                {
                    "components": [
                        {
                            "internalType": "bytes32",
                            "name": "decisionId",
                            "type": "bytes32"
                        },
                        {
                            "internalType": "bytes32",
                            "name": "decisionHash",
                            "type": "bytes32"
                        },
                        {
                            "internalType": "bytes32",
                            "name": "modelHash",
                            "type": "bytes32"
                        },
                        {
                            "internalType": "uint256",
                            "name": "ftsoRoundId",
                            "type": "uint256"
                        },
                        {
                            "internalType": "bytes32",
                            "name": "fdcProofHash",
                            "type": "bytes32"
                        },
                        {
                            "internalType": "uint256",
                            "name": "timestamp",
                            "type": "uint256"
                        },
                        {
                            "internalType": "address",
                            "name": "backendSigner",
                            "type": "address"
                        }
                    ],
                    "internalType": "struct DecisionLogger.Decision",
                    "name": "",
                    "type": "tuple"
                }
            ],
            "stateMutability": "view",
            "type": "function"
        },
        {
            "inputs": [
                {
                    "internalType": "bytes32",
                    "name": "",
                    "type": "bytes32"
                }
            ],
            "name": "isDecisionLogged",
            "outputs": [
                {
                    "internalType": "bool",
                    "name": "",
                    "type": "bool"
                }
            ],
            "stateMutability": "view",
            "type": "function"
        },
        {
            "inputs": [
                {
                    "internalType": "bytes32",
                    "name": "_decisionId",
                    "type": "bytes32"
                },
                {
                    "internalType": "bytes32",
                    "name": "_decisionHash",
                    "type": "bytes32"
                },
                {
                    "internalType": "bytes32",
                    "name": "_modelHash",
                    "type": "bytes32"
                },
                {
                    "internalType": "uint256",
                    "name": "_ftsoRoundId",
                    "type": "uint256"
                },
                {
                    "internalType": "bytes32",
                    "name": "_fdcProofHash",
                    "type": "bytes32"
                },
                {
                    "internalType": "uint256",
                    "name": "_timestamp",
                    "type": "uint256"
                },
                {
                    "internalType": "address",
                    "name": "_backendSigner",
                    "type": "address"
                }
            ],
            "name": "logDecision",
            "outputs": [],
            "stateMutability": "nonpayable",
            "type": "function"
        }
    ],
    "bytecode": "0x608060405234801561001057600080fd5b506108cf806100206000396000f3fe608060405234801561001057600080fd5b506004361061004c5760003560e01c80631afd614a1461005157806328c07e0b146100875780634a82eb43146100b7578063d8c57892146100d3575b600080fd5b61006b60048036038101906100669190610521565b610103565b60405161007e97969594939291906105b7565b60405180910390f35b6100a1600480360381019061009c9190610521565b610165565b6040516100ae9190610641565b60405180910390f35b6100d160048036038101906100cc91906106b4565b610185565b005b6100ed60048036038101906100e89190610521565b6103c8565b6040516100fa9190610811565b60405180910390f35b60016020528060005260406000206000915090508060000154908060010154908060020154908060030154908060040154908060050154908060060160009054906101000a900473ffffffffffffffffffffffffffffffffffffffff16905087565b60006020528060005260406000206000915054906101000a900460ff1681565b60008088815260200190815260200160002060009054906101000a900460ff16156101e757866040517f3e4db87f0000000000000000000000000000000000000000000000000000000081526004016101de919061082c565b60405180910390fd5b600073ffffffffffffffffffffffffffffffffffffffff168173ffffffffffffffffffffffffffffffffffffffff160361025857806040517fbf18af4300000000000000000000000000000000000000000000000000000000815260040161024f9190610847565b60405180910390fd5b60006040518060e001604052808981526020018881526020018781526020018681526020018581526020018481526020018373ffffffffffffffffffffffffffffffffffffffff16815250905080600160008a8152602001908152602001600020600082015181600001556020820151816001015560408201518160020155606082015181600301556080820151816004015560a0820151816005015560c08201518160060160006101000a81548173ffffffffffffffffffffffffffffffffffffffff021916908373ffffffffffffffffffffffffffffffffffffffff16021790555090505060016000808a815260200190815260200160002060006101000a81548160ff0219169083151502179055508173ffffffffffffffffffffffffffffffffffffffff1687897fe5917ce79a46a10f291e65ab5297d5a623f8e826e2605e18152d6841498736a68689896040516103b693929190610862565b60405180910390a45050505050505050565b6103d0610487565b600160008381526020019081526020016000206040518060e00160405290816000820154815260200160018201548152602001600282015481526020016003820154815260200160048201548152602001600582015481526020016006820160009054906101000a900473ffffffffffffffffffffffffffffffffffffffff1673ffffffffffffffffffffffffffffffffffffffff1673ffffffffffffffffffffffffffffffffffffffff16815250509050919050565b6040518060e00160405280600080191681526020016000801916815260200160008019168152602001600081526020016000801916815260200160008152602001600073ffffffffffffffffffffffffffffffffffffffff1681525090565b600080fd5b6000819050919050565b6104fe816104eb565b811461050957600080fd5b50565b60008135905061051b816104f5565b92915050565b600060208284031215610537576105366104e6565b5b60006105458482850161050c565b91505092915050565b610557816104eb565b82525050565b6000819050919050565b6105708161055d565b82525050565b600073ffffffffffffffffffffffffffffffffffffffff82169050919050565b60006105a182610576565b9050919050565b6105b181610596565b82525050565b600060e0820190506105cc600083018a61054e565b6105d9602083018961054e565b6105e6604083018861054e565b6105f36060830187610567565b610600608083018661054e565b61060d60a0830185610567565b61061a60c08301846105a8565b98975050505050505050565b60008115159050919050565b61063b81610626565b82525050565b60006020820190506106566000830184610632565b92915050565b6106658161055d565b811461067057600080fd5b50565b6000813590506106828161065c565b92915050565b61069181610596565b811461069c57600080fd5b50565b6000813590506106ae81610688565b92915050565b600080600080600080600060e0888a0312156106d3576106d26104e6565b5b60006106e18a828b0161050c565b97505060206106f28a828b0161050c565b96505060406107038a828b0161050c565b95505060606107148a828b01610673565b94505060806107258a828b0161050c565b93505060a06107368a828b01610673565b92505060c06107478a828b0161069f565b91505092959891949750929550565b61075f816104eb565b82525050565b61076e8161055d565b82525050565b61077d81610596565b82525050565b60e0820160008201516107996000850182610756565b5060208201516107ac6020850182610756565b5060408201516107bf6040850182610756565b5060608201516107d26060850182610765565b5060808201516107e56080850182610756565b5060a08201516107f860a0850182610765565b5060c082015161080b60c0850182610774565b50505050565b600060e0820190506108266000830184610783565b92915050565b6000602082019050610841600083018461054e565b92915050565b600060208201905061085c60008301846105a8565b92915050565b60006060820190506108776000830186610567565b6108846020830185610567565b610891604083018461054e565b94935050505056fea264697066735822122024a8418acaa5cf9d41bc09861c23d0068b0c85f39d5c8255efce5fb24be1352b64736f6c63430008140033",
    "linkReferences": {},
    "deployedLinkReferences": {}
}